{
  "contractName": "Challenge",
  "abi": [
    {
      "inputs": [],
      "payable": false,
      "stateMutability": "nonpayable",
      "type": "constructor"
    },
    {
      "anonymous": false,
      "inputs": [
        {
          "indexed": false,
          "internalType": "string",
          "name": "_winner",
          "type": "string"
        }
      ],
      "name": "Winner",
      "type": "event"
    },
    {
      "anonymous": false,
      "inputs": [],
      "name": "Winner1",
      "type": "event"
    },
    {
      "anonymous": false,
      "inputs": [],
      "name": "Winner2",
      "type": "event"
    },
    {
      "constant": true,
      "inputs": [],
      "name": "admin",
      "outputs": [
        {
          "internalType": "address payable",
          "name": "",
          "type": "address"
        }
      ],
      "payable": false,
      "stateMutability": "view",
      "type": "function"
    },
    {
      "constant": true,
      "inputs": [
        {
          "internalType": "address",
          "name": "",
          "type": "address"
        }
      ],
      "name": "users",
      "outputs": [
        {
          "internalType": "uint256",
          "name": "balance",
          "type": "uint256"
        },
        {
          "internalType": "address",
          "name": "userAddress",
          "type": "address"
        }
      ],
      "payable": false,
      "stateMutability": "view",
      "type": "function"
    },
    {
      "constant": true,
      "inputs": [
        {
          "internalType": "address",
          "name": "_userAddress",
          "type": "address"
        }
      ],
      "name": "getUser",
      "outputs": [
        {
          "internalType": "uint256",
          "name": "",
          "type": "uint256"
        },
        {
          "internalType": "address",
          "name": "",
          "type": "address"
        }
      ],
      "payable": false,
      "stateMutability": "view",
      "type": "function"
    },
    {
      "constant": true,
      "inputs": [
        {
          "internalType": "address",
          "name": "_userAddress",
          "type": "address"
        }
      ],
      "name": "getBalance",
      "outputs": [
        {
          "internalType": "uint256",
          "name": "",
          "type": "uint256"
        }
      ],
      "payable": false,
      "stateMutability": "view",
      "type": "function"
    },
    {
      "constant": true,
      "inputs": [],
      "name": "getBalanceContract",
      "outputs": [
        {
          "internalType": "uint256",
          "name": "",
          "type": "uint256"
        }
      ],
      "payable": false,
      "stateMutability": "view",
      "type": "function"
    },
    {
      "constant": false,
      "inputs": [
        {
          "internalType": "address payable",
          "name": "_newAdmin",
          "type": "address"
        }
      ],
      "name": "setAdmin",
      "outputs": [],
      "payable": false,
      "stateMutability": "nonpayable",
      "type": "function"
    },
    {
      "constant": false,
      "inputs": [],
      "name": "depositAdmin",
      "outputs": [],
      "payable": true,
      "stateMutability": "payable",
      "type": "function"
    },
    {
      "constant": false,
      "inputs": [
        {
          "internalType": "uint256",
          "name": "_amount",
          "type": "uint256"
        }
      ],
      "name": "withdrawAdmin",
      "outputs": [],
      "payable": true,
      "stateMutability": "payable",
      "type": "function"
    },
    {
      "constant": false,
      "inputs": [],
      "name": "deposit",
      "outputs": [],
      "payable": true,
      "stateMutability": "payable",
      "type": "function"
    },
    {
      "constant": false,
      "inputs": [
        {
          "internalType": "uint256",
          "name": "_amount",
          "type": "uint256"
        }
      ],
      "name": "withdraw",
      "outputs": [],
      "payable": false,
      "stateMutability": "nonpayable",
      "type": "function"
    },
    {
      "constant": false,
      "inputs": [
        {
          "internalType": "address",
          "name": "_pl1",
          "type": "address"
        },
        {
          "internalType": "address",
          "name": "_pl2",
          "type": "address"
        },
        {
          "internalType": "uint256",
          "name": "_bet",
          "type": "uint256"
        },
        {
          "internalType": "uint256",
          "name": "_resul",
          "type": "uint256"
        }
      ],
      "name": "game",
      "outputs": [],
      "payable": false,
      "stateMutability": "nonpayable",
      "type": "function"
    },
    {
      "constant": false,
      "inputs": [
        {
          "internalType": "string",
          "name": "_str1",
          "type": "string"
        },
        {
          "internalType": "string",
          "name": "_str2",
          "type": "string"
        }
      ],
      "name": "levDistance",
      "outputs": [
        {
          "internalType": "uint256",
          "name": "",
          "type": "uint256"
        }
      ],
      "payable": false,
      "stateMutability": "nonpayable",
      "type": "function"
    },
    {
      "constant": false,
      "inputs": [
        {
          "internalType": "uint256",
          "name": "a",
          "type": "uint256"
        },
        {
          "internalType": "uint256",
          "name": "b",
          "type": "uint256"
        },
        {
          "internalType": "uint256",
          "name": "c",
          "type": "uint256"
        }
      ],
      "name": "minimum",
      "outputs": [
        {
          "internalType": "uint256",
          "name": "",
          "type": "uint256"
        }
      ],
      "payable": false,
      "stateMutability": "nonpayable",
      "type": "function"
    },
    {
      "constant": false,
      "inputs": [
        {
          "internalType": "uint256",
          "name": "a",
          "type": "uint256"
        },
        {
          "internalType": "uint256",
          "name": "b",
          "type": "uint256"
        }
      ],
      "name": "max",
      "outputs": [
        {
          "internalType": "uint256",
          "name": "",
          "type": "uint256"
        }
      ],
      "payable": false,
      "stateMutability": "nonpayable",
      "type": "function"
    }
  ],
  "bytecode": "0x608060405234801561001057600080fd5b50336000806101000a81548173ffffffffffffffffffffffffffffffffffffffff021916908373ffffffffffffffffffffffffffffffffffffffff160217905550611641806100606000396000f3fe6080604052600436106100dd5760003560e01c8063710428571161007f578063d77836ce11610059578063d77836ce1461041e578063df7450e41461044c578063f851a440146105bf578063f8b2cb4f14610616576100dd565b80637104285714610372578063a87430ba1461037c578063d0e30db014610414576100dd565b80636d5433e6116100bb5780636d5433e6146101cd5780636f77926b146102265780636fbdb1f5146102be578063704b6c0214610321576100dd565b80632e1a7d4d146100e257806353f9194d1461011d57806366bd78fd146101a2575b600080fd5b3480156100ee57600080fd5b5061011b6004803603602081101561010557600080fd5b810190808035906020019092919050505061067b565b005b34801561012957600080fd5b506101a06004803603608081101561014057600080fd5b81019080803573ffffffffffffffffffffffffffffffffffffffff169060200190929190803573ffffffffffffffffffffffffffffffffffffffff169060200190929190803590602001909291908035906020019092919050505061071f565b005b3480156101ae57600080fd5b506101b7610a07565b6040518082815260200191505060405180910390f35b3480156101d957600080fd5b50610210600480360360408110156101f057600080fd5b810190808035906020019092919080359060200190929190505050610ab4565b6040518082815260200191505060405180910390f35b34801561023257600080fd5b506102756004803603602081101561024957600080fd5b81019080803573ffffffffffffffffffffffffffffffffffffffff169060200190929190505050610ad9565b604051808381526020018273ffffffffffffffffffffffffffffffffffffffff1673ffffffffffffffffffffffffffffffffffffffff1681526020019250505060405180910390f35b3480156102ca57600080fd5b5061030b600480360360608110156102e157600080fd5b81019080803590602001909291908035906020019092919080359060200190929190505050610b8b565b6040518082815260200191505060405180910390f35b34801561032d57600080fd5b506103706004803603602081101561034457600080fd5b81019080803573ffffffffffffffffffffffffffffffffffffffff169060200190929190505050610bd8565b005b61037a610cc0565b005b34801561038857600080fd5b506103cb6004803603602081101561039f57600080fd5b81019080803573ffffffffffffffffffffffffffffffffffffffff169060200190929190505050610d67565b604051808381526020018273ffffffffffffffffffffffffffffffffffffffff1673ffffffffffffffffffffffffffffffffffffffff1681526020019250505060405180910390f35b61041c610dab565b005b61044a6004803603602081101561043457600080fd5b8101908080359060200190929190505050610f54565b005b34801561045857600080fd5b506105a96004803603604081101561046f57600080fd5b810190808035906020019064010000000081111561048c57600080fd5b82018360208201111561049e57600080fd5b803590602001918460018302840111640100000000831117156104c057600080fd5b91908080601f016020809104026020016040519081016040528093929190818152602001838380828437600081840152601f19601f8201169050808301925050505050505091929192908035906020019064010000000081111561052357600080fd5b82018360208201111561053557600080fd5b8035906020019184600183028401116401000000008311171561055757600080fd5b91908080601f016020809104026020016040519081016040528093929190818152602001838380828437600081840152601f19601f8201169050808301925050505050505091929192905050506110bd565b6040518082815260200191505060405180910390f35b3480156105cb57600080fd5b506105d4611364565b604051808273ffffffffffffffffffffffffffffffffffffffff1673ffffffffffffffffffffffffffffffffffffffff16815260200191505060405180910390f35b34801561062257600080fd5b506106656004803603602081101561063957600080fd5b81019080803573ffffffffffffffffffffffffffffffffffffffff169060200190929190505050611389565b6040518082815260200191505060405180910390f35b61068533826113d5565b3373ffffffffffffffffffffffffffffffffffffffff166108fc829081150290604051600060405180830381858888f193505050501580156106cb573d6000803e3d6000fd5b5080600160003373ffffffffffffffffffffffffffffffffffffffff1673ffffffffffffffffffffffffffffffffffffffff1681526020019081526020016000206000016000828254039250508190555050565b6000809054906101000a900473ffffffffffffffffffffffffffffffffffffffff1673ffffffffffffffffffffffffffffffffffffffff163373ffffffffffffffffffffffffffffffffffffffff16146107c4576040517f08c379a00000000000000000000000000000000000000000000000000000000081526004018080602001828103825260218152602001806115ec6021913960400191505060405180910390fd5b6107ce84836113d5565b6107d883836113d5565b6000600282816107e457fe5b0614156108f85781600160008673ffffffffffffffffffffffffffffffffffffffff1673ffffffffffffffffffffffffffffffffffffffff1681526020019081526020016000206000016000828254019250508190555081600160008573ffffffffffffffffffffffffffffffffffffffff1673ffffffffffffffffffffffffffffffffffffffff168152602001908152602001600020600001600082825403925050819055507f1e1f22c88be4eb57512afdedf796b878457b4d104150bb48d3614b166a0415b86040518080602001828103825260088152602001807f506c61796572203100000000000000000000000000000000000000000000000081525060200191505060405180910390a1610a01565b81600160008573ffffffffffffffffffffffffffffffffffffffff1673ffffffffffffffffffffffffffffffffffffffff1681526020019081526020016000206000016000828254019250508190555081600160008673ffffffffffffffffffffffffffffffffffffffff1673ffffffffffffffffffffffffffffffffffffffff168152602001908152602001600020600001600082825403925050819055507f1e1f22c88be4eb57512afdedf796b878457b4d104150bb48d3614b166a0415b86040518080602001828103825260088152602001807f506c61796572203200000000000000000000000000000000000000000000000081525060200191505060405180910390a15b50505050565b60008060009054906101000a900473ffffffffffffffffffffffffffffffffffffffff1673ffffffffffffffffffffffffffffffffffffffff163373ffffffffffffffffffffffffffffffffffffffff1614610aae576040517f08c379a00000000000000000000000000000000000000000000000000000000081526004018080602001828103825260218152602001806115ec6021913960400191505060405180910390fd5b47905090565b600080828403905060008490506000821015610ace578390505b809250505092915050565b600080600160008473ffffffffffffffffffffffffffffffffffffffff1673ffffffffffffffffffffffffffffffffffffffff16815260200190815260200160002060000154600160008573ffffffffffffffffffffffffffffffffffffffff1673ffffffffffffffffffffffffffffffffffffffff16815260200190815260200160002060010160009054906101000a900473ffffffffffffffffffffffffffffffffffffffff1691509150915091565b600080838511158015610b9e5750828511155b15610bab57849050610bcd565b828411158015610bbb5750848411155b15610bc857839050610bcc565b8290505b5b809150509392505050565b6000809054906101000a900473ffffffffffffffffffffffffffffffffffffffff1673ffffffffffffffffffffffffffffffffffffffff163373ffffffffffffffffffffffffffffffffffffffff1614610c7d576040517f08c379a00000000000000000000000000000000000000000000000000000000081526004018080602001828103825260218152602001806115ec6021913960400191505060405180910390fd5b806000806101000a81548173ffffffffffffffffffffffffffffffffffffffff021916908373ffffffffffffffffffffffffffffffffffffffff16021790555050565b6000809054906101000a900473ffffffffffffffffffffffffffffffffffffffff1673ffffffffffffffffffffffffffffffffffffffff163373ffffffffffffffffffffffffffffffffffffffff1614610d65576040517f08c379a00000000000000000000000000000000000000000000000000000000081526004018080602001828103825260218152602001806115ec6021913960400191505060405180910390fd5b565b60016020528060005260406000206000915090508060000154908060010160009054906101000a900473ffffffffffffffffffffffffffffffffffffffff16905082565b600073ffffffffffffffffffffffffffffffffffffffff16600160003373ffffffffffffffffffffffffffffffffffffffff1673ffffffffffffffffffffffffffffffffffffffff16815260200190815260200160002060010160009054906101000a900473ffffffffffffffffffffffffffffffffffffffff1673ffffffffffffffffffffffffffffffffffffffff161415610f02576040518060400160405280600081526020013373ffffffffffffffffffffffffffffffffffffffff16815250600160003373ffffffffffffffffffffffffffffffffffffffff1673ffffffffffffffffffffffffffffffffffffffff1681526020019081526020016000206000820151816000015560208201518160010160006101000a81548173ffffffffffffffffffffffffffffffffffffffff021916908373ffffffffffffffffffffffffffffffffffffffff1602179055509050505b34600160003373ffffffffffffffffffffffffffffffffffffffff1673ffffffffffffffffffffffffffffffffffffffff16815260200190815260200160002060000160008282540192505081905550565b6000809054906101000a900473ffffffffffffffffffffffffffffffffffffffff1673ffffffffffffffffffffffffffffffffffffffff163373ffffffffffffffffffffffffffffffffffffffff1614610ff9576040517f08c379a00000000000000000000000000000000000000000000000000000000081526004018080602001828103825260218152602001806115ec6021913960400191505060405180910390fd5b80471015611052576040517f08c379a00000000000000000000000000000000000000000000000000000000081526004018080602001828103825260258152602001806115c76025913960400191505060405180910390fd5b6000809054906101000a900473ffffffffffffffffffffffffffffffffffffffff1673ffffffffffffffffffffffffffffffffffffffff166108fc829081150290604051600060405180830381858888f193505050501580156110b9573d6000803e3d6000fd5b5050565b600080835190506000835190506000600183019050600060018301905060006110e68383610ab4565b90506060600460405190808252806020026020018201604052801561112557816020015b611112611579565b81526020019060019003908161110a5790505b5090506000809050600080905060608b905060608b9050600093505b89841161117f578385858151811061115557fe5b602002602001015160006002811061116957fe5b6020020181815250508380600101945050611141565b600092505b8883116111c257828560008151811061119957fe5b602002602001015184600281106111ac57fe5b6020020181815250508280600101935050611184565b600193505b89841161132e57600192505b888311611321576000600190508160018503815181106111ef57fe5b602001015160f81c60f81b7effffffffffffffffffffffffffffffffffffffffffffffffffffffffffffff191683600187038151811061122b57fe5b602001015160f81c60f81b7effffffffffffffffffffffffffffffffffffffffffffffffffffffffffffff1916141561126357600090505b6112eb600187600188038151811061127757fe5b6020026020010151866002811061128a57fe5b602002015101600188888151811061129e57fe5b602002602001015160018803600281106112b457fe5b602002015101838960018a03815181106112ca57fe5b602002602001015160018903600281106112e057fe5b602002015101610b8b565b8686815181106112f757fe5b6020026020010151856002811061130a57fe5b6020020181815250505082806001019350506111d3565b83806001019450506111c7565b848a8151811061133a57fe5b6020026020010151896002811061134d57fe5b60200201519a505050505050505050505092915050565b6000809054906101000a900473ffffffffffffffffffffffffffffffffffffffff1681565b6000600160008373ffffffffffffffffffffffffffffffffffffffff1673ffffffffffffffffffffffffffffffffffffffff168152602001908152602001600020600001549050919050565b600073ffffffffffffffffffffffffffffffffffffffff16600160008473ffffffffffffffffffffffffffffffffffffffff1673ffffffffffffffffffffffffffffffffffffffff16815260200190815260200160002060010160009054906101000a900473ffffffffffffffffffffffffffffffffffffffff1673ffffffffffffffffffffffffffffffffffffffff1614156114da576040517f08c379a00000000000000000000000000000000000000000000000000000000081526004018080602001828103825260188152602001807f546865207573657220646f6573206e6f7420657869737473000000000000000081525060200191505060405180910390fd5b80600160008473ffffffffffffffffffffffffffffffffffffffff1673ffffffffffffffffffffffffffffffffffffffff168152602001908152602001600020600001541015611575576040517f08c379a000000000000000000000000000000000000000000000000000000000815260040180806020018281038252602b81526020018061159c602b913960400191505060405180910390fd5b5050565b604051806040016040528060029060208202803883398082019150509050509056fe546865207573657220646f6573206e6f742068617665207468652072657175657374656420616d6f756e745468652072657175657374656420616d6f756e74206973206e6f7420617661696c61626c654f6e6c792061646d696e2063616e2063616c6c20746869732066756e6374696f6ea265627a7a723158201160952e80c631fd6ab55b69ff310e0c198e60ac35c50b4fccff71dc151171db64736f6c63430005100032",
  "source": "pragma solidity ^0.5.0;\n\ncontract Challenge {\n\n  /* = = = = = = TO DO = = = = = = = */\n  /*\n    * Learn how to optimize gas costs\n    * See how to \"froze\" the money while betting\n    * Calculate the levenshtein distance\n      - Check how to calculate the string.length\n    * Transform this into a modular architecture\n  */\n\n  /* = = = = = = = VARIABLES & CONSTRUCTOR = = = = = = =*/\n  //State variables -> Permanently saved in the contract\n  address payable public admin;\n  mapping(address => User) public users;\n\n  struct User {\n        uint balance;        // Current amount of ETH of the user in our platform\n        address userAddress; // Address of the user\n  }\n\n  constructor () public{\n    admin = msg.sender;\n  }\n\n  modifier onlyAdmin {\n    require(msg.sender == admin, \"Only admin can call this function\");\n        _;\n  }\n\n/* = = = = = = = FUNCTIONS = = = = = = = */\n// - - - - Getters - - - -\nfunction getUser(address _userAddress) public view returns(uint, address){\n  return (users[_userAddress].balance, users[_userAddress].userAddress);\n}\n\nfunction getBalance(address _userAddress) public view returns(uint){\n  return (users[_userAddress].balance);\n}\n\nfunction getBalanceContract() public view onlyAdmin returns(uint){\n  return address(this).balance;\n}\n\n// function getUsersCount() public view returns(uint) {\n//   return users.length;\n// }\n\n// - - - - - - - - - -\n\n// - - - - Future Modifications - - - -\nfunction setAdmin(address payable _newAdmin) public onlyAdmin {\n  admin = _newAdmin;\n}\n// - - - - - - - - - -\n\n// - - - - Events - - - -\nevent Winner(string _winner); // Not able to obtain info inside a string\nevent Winner1();\nevent Winner2();\n\n// - - - - Core - - - -\n  function checkUser(address _userAddress, uint _amount) private{\n    require(users[_userAddress].userAddress != address(0), \"The user does not exists\");\n    require(users[_userAddress].balance >= _amount, \"The user does not have the requested amount\");\n  }\n\n  // Deposit and Withdraw for Admin\n  function depositAdmin() public payable onlyAdmin{}\n\n  function withdrawAdmin(uint _amount) public payable onlyAdmin{\n    require(address(this).balance >= _amount, \"The requested amount is not available\");\n    admin.transfer(_amount);\n  }\n\n  //Deposit and Withdraw for Users\n  function deposit() public payable{\n    // Create user if it does not exists\n    if (users[msg.sender].userAddress == address(0)){\n      users[msg.sender] = User(0, msg.sender);\n    }\n\n    users[msg.sender].balance += msg.value;\n  }\n\n  function withdraw(uint _amount) public {\n    checkUser(msg.sender, _amount);\n\n    msg.sender.transfer(_amount);\n    users[msg.sender].balance -= _amount;\n  }\n\n\n  function game(address _pl1, address _pl2, uint _bet, uint _resul) public onlyAdmin{\n    checkUser(_pl1, _bet);\n    checkUser(_pl2, _bet);\n\n    if ((_resul % 2) == 0){\n      users[_pl1].balance += _bet;\n      users[_pl2].balance -= _bet;\n      emit Winner(\"Player 1\");\n      //emit Winner1();\n    }\n    else{\n      users[_pl2].balance += _bet;\n      users[_pl1].balance -= _bet;\n      emit Winner(\"Player 2\");\n      //emit Winner2();\n    }\n  }\n\n// - - - - - - - - - -\n\n// - - - - Testing Functions - - - -\n  function levDistance(string memory _str1, string memory _str2) public returns(uint){\n    uint length1 = bytes(_str1).length;\n    uint length2 = bytes(_str2).length;\n    uint dim1 = length1+1;\n    uint dim2 = length2+1;\n    //uint[][] memory distance;\n    uint n = max(dim1, dim2);\n    uint[2][] memory distance = new uint[2][](4);\n    uint i = 0;\n    uint j = 0;\n    bytes memory str1 = bytes(_str1);\n    bytes memory str2 = bytes(_str2);\n\n\n    for(i=0; i<=length1; i++){\n      distance[i][0]=i;\n    }\n    for(j=0; j<=length2; j++){\n      distance[0][j]=j;\n    }\n    for(i=1; i<=length1; i++){\n      for(j=1; j<=length2; j++){\n        uint aux = 1;\n        if (str1[i-1] == str2[j-1]){\n          aux = 0;\n        }\n        distance[i][j]= minimum(distance[i-1][j] + 1, distance[i][j-1] + 1, distance[i-1][j-1] + aux);\n      }\n    }\n\n\n    return distance[length1][length2];\n    //return 2;\n  }\n\n  function minimum(uint a, uint b, uint c) public returns (uint){\n    uint smallest;\n    if (a <= b && a <= c) {\n        smallest = a;\n    } else if (b <= c && b <= a) {\n        smallest = b;\n    } else {\n        smallest = c;\n    }\n\n    return smallest;\n  }\n\n  function max(uint a, uint b) public returns (uint){\n    uint compare = a - b;\n    uint resul = a;\n    if (compare < 0){\n      resul = b;\n    }\n\n    return resul;\n  }\n\n  // function compareBytes(string memory _str1, string memory _str2) public returns (string memory, uint){\n  //   bytes memory str1 = bytes(_str1);\n  //   bytes memory str2 = bytes(_str2);\n  //   string memory resul = \"diferentes\";\n  //   uint aux = 1;\n  //   // uint[1][1] memory distance; // This one works\n  //   uint[1][] memory distance;\n  //\n  //   if (str2[1+aux] == str1[aux+1]){\n  //     resul = \"iguales\";\n  //   }\n  //\n  //   // distance[0][0] = aux; // This one works\n  //   distance[0] = [aux];\n  //\n  //   return (resul, distance[0]);\n  //\n  // }\n\n}\n",
  "sourcePath": "/home/pedro/TFG/challenge/contracts/Challenge.sol",
  "compiler": {
    "name": "solc",
    "version": "0.5.16+commit.9c3226ce.Emscripten.clang"
  },
  "schemaVersion": "3.3.4",
  "updatedAt": "2021-06-09T05:11:29.050Z",
  "networkType": "ethereum",
  "devdoc": {
    "methods": {}
  },
  "userdoc": {
    "methods": {}
  }
}