{
  "contractName": "Challenge",
  "abi": [
    {
      "inputs": [],
      "payable": false,
      "stateMutability": "nonpayable",
      "type": "constructor"
    },
    {
      "anonymous": false,
      "inputs": [
        {
          "indexed": false,
          "internalType": "string",
          "name": "_winner",
          "type": "string"
        }
      ],
      "name": "Winner",
      "type": "event"
    },
    {
      "anonymous": false,
      "inputs": [],
      "name": "Winner1",
      "type": "event"
    },
    {
      "anonymous": false,
      "inputs": [],
      "name": "Winner2",
      "type": "event"
    },
    {
      "constant": true,
      "inputs": [],
      "name": "admin",
      "outputs": [
        {
          "internalType": "address payable",
          "name": "",
          "type": "address"
        }
      ],
      "payable": false,
      "stateMutability": "view",
      "type": "function"
    },
    {
      "constant": true,
      "inputs": [
        {
          "internalType": "address",
          "name": "",
          "type": "address"
        }
      ],
      "name": "users",
      "outputs": [
        {
          "internalType": "uint256",
          "name": "balance",
          "type": "uint256"
        },
        {
          "internalType": "address",
          "name": "userAddress",
          "type": "address"
        }
      ],
      "payable": false,
      "stateMutability": "view",
      "type": "function"
    },
    {
      "constant": true,
      "inputs": [
        {
          "internalType": "address",
          "name": "_userAddress",
          "type": "address"
        }
      ],
      "name": "getUser",
      "outputs": [
        {
          "internalType": "uint256",
          "name": "",
          "type": "uint256"
        },
        {
          "internalType": "address",
          "name": "",
          "type": "address"
        }
      ],
      "payable": false,
      "stateMutability": "view",
      "type": "function"
    },
    {
      "constant": true,
      "inputs": [
        {
          "internalType": "address",
          "name": "_userAddress",
          "type": "address"
        }
      ],
      "name": "getBalance",
      "outputs": [
        {
          "internalType": "uint256",
          "name": "",
          "type": "uint256"
        }
      ],
      "payable": false,
      "stateMutability": "view",
      "type": "function"
    },
    {
      "constant": true,
      "inputs": [],
      "name": "getBalanceContract",
      "outputs": [
        {
          "internalType": "uint256",
          "name": "",
          "type": "uint256"
        }
      ],
      "payable": false,
      "stateMutability": "view",
      "type": "function"
    },
    {
      "constant": false,
      "inputs": [
        {
          "internalType": "address payable",
          "name": "_newAdmin",
          "type": "address"
        }
      ],
      "name": "setAdmin",
      "outputs": [],
      "payable": false,
      "stateMutability": "nonpayable",
      "type": "function"
    },
    {
      "constant": false,
      "inputs": [],
      "name": "depositAdmin",
      "outputs": [],
      "payable": true,
      "stateMutability": "payable",
      "type": "function"
    },
    {
      "constant": false,
      "inputs": [
        {
          "internalType": "uint256",
          "name": "_amount",
          "type": "uint256"
        }
      ],
      "name": "withdrawAdmin",
      "outputs": [],
      "payable": true,
      "stateMutability": "payable",
      "type": "function"
    },
    {
      "constant": false,
      "inputs": [],
      "name": "deposit",
      "outputs": [],
      "payable": true,
      "stateMutability": "payable",
      "type": "function"
    },
    {
      "constant": false,
      "inputs": [
        {
          "internalType": "uint256",
          "name": "_amount",
          "type": "uint256"
        }
      ],
      "name": "withdraw",
      "outputs": [],
      "payable": false,
      "stateMutability": "nonpayable",
      "type": "function"
    },
    {
      "constant": false,
      "inputs": [
        {
          "internalType": "address",
          "name": "_pl1",
          "type": "address"
        },
        {
          "internalType": "address",
          "name": "_pl2",
          "type": "address"
        },
        {
          "internalType": "uint256",
          "name": "_bet",
          "type": "uint256"
        },
        {
          "internalType": "uint256",
          "name": "_resul",
          "type": "uint256"
        }
      ],
      "name": "game",
      "outputs": [],
      "payable": false,
      "stateMutability": "nonpayable",
      "type": "function"
    },
    {
      "constant": false,
      "inputs": [
        {
          "internalType": "address",
          "name": "_pl1",
          "type": "address"
        },
        {
          "internalType": "address",
          "name": "_pl2",
          "type": "address"
        },
        {
          "internalType": "uint256",
          "name": "_bet",
          "type": "uint256"
        },
        {
          "internalType": "string",
          "name": "_pl1Resul",
          "type": "string"
        },
        {
          "internalType": "string",
          "name": "_pl2Resul",
          "type": "string"
        },
        {
          "internalType": "string",
          "name": "_resul",
          "type": "string"
        }
      ],
      "name": "gameLev",
      "outputs": [],
      "payable": false,
      "stateMutability": "nonpayable",
      "type": "function"
    },
    {
      "constant": true,
      "inputs": [
        {
          "internalType": "string",
          "name": "_str1",
          "type": "string"
        },
        {
          "internalType": "string",
          "name": "_str2",
          "type": "string"
        }
      ],
      "name": "levDistance",
      "outputs": [
        {
          "internalType": "uint256",
          "name": "",
          "type": "uint256"
        }
      ],
      "payable": false,
      "stateMutability": "pure",
      "type": "function"
    },
    {
      "constant": true,
      "inputs": [
        {
          "internalType": "uint256",
          "name": "a",
          "type": "uint256"
        },
        {
          "internalType": "uint256",
          "name": "b",
          "type": "uint256"
        },
        {
          "internalType": "uint256",
          "name": "c",
          "type": "uint256"
        }
      ],
      "name": "minimum",
      "outputs": [
        {
          "internalType": "uint256",
          "name": "",
          "type": "uint256"
        }
      ],
      "payable": false,
      "stateMutability": "pure",
      "type": "function"
    },
    {
      "constant": true,
      "inputs": [
        {
          "internalType": "uint256",
          "name": "a",
          "type": "uint256"
        },
        {
          "internalType": "uint256",
          "name": "b",
          "type": "uint256"
        }
      ],
      "name": "max",
      "outputs": [
        {
          "internalType": "uint256",
          "name": "",
          "type": "uint256"
        }
      ],
      "payable": false,
      "stateMutability": "pure",
      "type": "function"
    }
  ],
  "bytecode": "0x608060405234801561001057600080fd5b50336000806101000a81548173ffffffffffffffffffffffffffffffffffffffff021916908373ffffffffffffffffffffffffffffffffffffffff160217905550611bea806100606000396000f3fe6080604052600436106100e85760003560e01c8063704b6c021161008a578063d77836ce11610059578063d77836ce14610669578063df7450e414610697578063f851a4401461080a578063f8b2cb4f14610861576100e8565b8063704b6c021461056c57806371042857146105bd578063a87430ba146105c7578063d0e30db01461065f576100e8565b806366bd78fd116100c657806366bd78fd146103ed5780636d5433e6146104185780636f77926b146104715780636fbdb1f514610509576100e8565b80631d0939c9146100ed5780632e1a7d4d1461032d57806353f9194d14610368575b600080fd5b3480156100f957600080fd5b5061032b600480360360c081101561011057600080fd5b81019080803573ffffffffffffffffffffffffffffffffffffffff169060200190929190803573ffffffffffffffffffffffffffffffffffffffff169060200190929190803590602001909291908035906020019064010000000081111561017757600080fd5b82018360208201111561018957600080fd5b803590602001918460018302840111640100000000831117156101ab57600080fd5b91908080601f016020809104026020016040519081016040528093929190818152602001838380828437600081840152601f19601f8201169050808301925050505050505091929192908035906020019064010000000081111561020e57600080fd5b82018360208201111561022057600080fd5b8035906020019184600183028401116401000000008311171561024257600080fd5b91908080601f016020809104026020016040519081016040528093929190818152602001838380828437600081840152601f19601f820116905080830192505050505050509192919290803590602001906401000000008111156102a557600080fd5b8201836020820111156102b757600080fd5b803590602001918460018302840111640100000000831117156102d957600080fd5b91908080601f016020809104026020016040519081016040528093929190818152602001838380828437600081840152601f19601f8201169050808301925050505050505091929192905050506108c6565b005b34801561033957600080fd5b506103666004803603602081101561035057600080fd5b8101908080359060200190929190505050610c39565b005b34801561037457600080fd5b506103eb6004803603608081101561038b57600080fd5b81019080803573ffffffffffffffffffffffffffffffffffffffff169060200190929190803573ffffffffffffffffffffffffffffffffffffffff1690602001909291908035906020019092919080359060200190929190505050610cdd565b005b3480156103f957600080fd5b50610402610fc5565b6040518082815260200191505060405180910390f35b34801561042457600080fd5b5061045b6004803603604081101561043b57600080fd5b810190808035906020019092919080359060200190929190505050611072565b6040518082815260200191505060405180910390f35b34801561047d57600080fd5b506104c06004803603602081101561049457600080fd5b81019080803573ffffffffffffffffffffffffffffffffffffffff169060200190929190505050611093565b604051808381526020018273ffffffffffffffffffffffffffffffffffffffff1673ffffffffffffffffffffffffffffffffffffffff1681526020019250505060405180910390f35b34801561051557600080fd5b506105566004803603606081101561052c57600080fd5b81019080803590602001909291908035906020019092919080359060200190929190505050611145565b6040518082815260200191505060405180910390f35b34801561057857600080fd5b506105bb6004803603602081101561058f57600080fd5b81019080803573ffffffffffffffffffffffffffffffffffffffff169060200190929190505050611192565b005b6105c561127a565b005b3480156105d357600080fd5b50610616600480360360208110156105ea57600080fd5b81019080803573ffffffffffffffffffffffffffffffffffffffff169060200190929190505050611321565b604051808381526020018273ffffffffffffffffffffffffffffffffffffffff1673ffffffffffffffffffffffffffffffffffffffff1681526020019250505060405180910390f35b610667611365565b005b6106956004803603602081101561067f57600080fd5b810190808035906020019092919050505061150e565b005b3480156106a357600080fd5b506107f4600480360360408110156106ba57600080fd5b81019080803590602001906401000000008111156106d757600080fd5b8201836020820111156106e957600080fd5b8035906020019184600183028401116401000000008311171561070b57600080fd5b91908080601f016020809104026020016040519081016040528093929190818152602001838380828437600081840152601f19601f8201169050808301925050505050505091929192908035906020019064010000000081111561076e57600080fd5b82018360208201111561078057600080fd5b803590602001918460018302840111640100000000831117156107a257600080fd5b91908080601f016020809104026020016040519081016040528093929190818152602001838380828437600081840152601f19601f820116905080830192505050505050509192919290505050611677565b6040518082815260200191505060405180910390f35b34801561081657600080fd5b5061081f61190c565b604051808273ffffffffffffffffffffffffffffffffffffffff1673ffffffffffffffffffffffffffffffffffffffff16815260200191505060405180910390f35b34801561086d57600080fd5b506108b06004803603602081101561088457600080fd5b81019080803573ffffffffffffffffffffffffffffffffffffffff169060200190929190505050611931565b6040518082815260200191505060405180910390f35b6000809054906101000a900473ffffffffffffffffffffffffffffffffffffffff1673ffffffffffffffffffffffffffffffffffffffff163373ffffffffffffffffffffffffffffffffffffffff161461096b576040517f08c379a0000000000000000000000000000000000000000000000000000000008152600401808060200182810382526021815260200180611b956021913960400191505060405180910390fd5b610975868561197d565b61097f858561197d565b600061098b8483611677565b905060006109998484611677565b905080821015610ab05785600160008a73ffffffffffffffffffffffffffffffffffffffff1673ffffffffffffffffffffffffffffffffffffffff1681526020019081526020016000206000016000828254019250508190555085600160008973ffffffffffffffffffffffffffffffffffffffff1673ffffffffffffffffffffffffffffffffffffffff168152602001908152602001600020600001600082825403925050819055507f1e1f22c88be4eb57512afdedf796b878457b4d104150bb48d3614b166a0415b86040518080602001828103825260158152602001807f4c657644697374616e63653a20506c617965722031000000000000000000000081525060200191505060405180910390a1610c2f565b80821115610bc55785600160008973ffffffffffffffffffffffffffffffffffffffff1673ffffffffffffffffffffffffffffffffffffffff1681526020019081526020016000206000016000828254019250508190555085600160008a73ffffffffffffffffffffffffffffffffffffffff1673ffffffffffffffffffffffffffffffffffffffff168152602001908152602001600020600001600082825403925050819055507f1e1f22c88be4eb57512afdedf796b878457b4d104150bb48d3614b166a0415b86040518080602001828103825260158152602001807f4c657644697374616e63653a20506c617965722032000000000000000000000081525060200191505060405180910390a1610c2e565b7f1e1f22c88be4eb57512afdedf796b878457b4d104150bb48d3614b166a0415b86040518080602001828103825260118152602001807f4c657644697374616e63653a204472617700000000000000000000000000000081525060200191505060405180910390a15b5b5050505050505050565b610c43338261197d565b3373ffffffffffffffffffffffffffffffffffffffff166108fc829081150290604051600060405180830381858888f19350505050158015610c89573d6000803e3d6000fd5b5080600160003373ffffffffffffffffffffffffffffffffffffffff1673ffffffffffffffffffffffffffffffffffffffff1681526020019081526020016000206000016000828254039250508190555050565b6000809054906101000a900473ffffffffffffffffffffffffffffffffffffffff1673ffffffffffffffffffffffffffffffffffffffff163373ffffffffffffffffffffffffffffffffffffffff1614610d82576040517f08c379a0000000000000000000000000000000000000000000000000000000008152600401808060200182810382526021815260200180611b956021913960400191505060405180910390fd5b610d8c848361197d565b610d96838361197d565b600060028281610da257fe5b061415610eb65781600160008673ffffffffffffffffffffffffffffffffffffffff1673ffffffffffffffffffffffffffffffffffffffff1681526020019081526020016000206000016000828254019250508190555081600160008573ffffffffffffffffffffffffffffffffffffffff1673ffffffffffffffffffffffffffffffffffffffff168152602001908152602001600020600001600082825403925050819055507f1e1f22c88be4eb57512afdedf796b878457b4d104150bb48d3614b166a0415b86040518080602001828103825260088152602001807f506c61796572203100000000000000000000000000000000000000000000000081525060200191505060405180910390a1610fbf565b81600160008573ffffffffffffffffffffffffffffffffffffffff1673ffffffffffffffffffffffffffffffffffffffff1681526020019081526020016000206000016000828254019250508190555081600160008673ffffffffffffffffffffffffffffffffffffffff1673ffffffffffffffffffffffffffffffffffffffff168152602001908152602001600020600001600082825403925050819055507f1e1f22c88be4eb57512afdedf796b878457b4d104150bb48d3614b166a0415b86040518080602001828103825260088152602001807f506c61796572203200000000000000000000000000000000000000000000000081525060200191505060405180910390a15b50505050565b60008060009054906101000a900473ffffffffffffffffffffffffffffffffffffffff1673ffffffffffffffffffffffffffffffffffffffff163373ffffffffffffffffffffffffffffffffffffffff161461106c576040517f08c379a0000000000000000000000000000000000000000000000000000000008152600401808060200182810382526021815260200180611b956021913960400191505060405180910390fd5b47905090565b6000808383111561108557829050611089565b8390505b8091505092915050565b600080600160008473ffffffffffffffffffffffffffffffffffffffff1673ffffffffffffffffffffffffffffffffffffffff16815260200190815260200160002060000154600160008573ffffffffffffffffffffffffffffffffffffffff1673ffffffffffffffffffffffffffffffffffffffff16815260200190815260200160002060010160009054906101000a900473ffffffffffffffffffffffffffffffffffffffff1691509150915091565b6000808385111580156111585750828511155b1561116557849050611187565b8284111580156111755750848411155b1561118257839050611186565b8290505b5b809150509392505050565b6000809054906101000a900473ffffffffffffffffffffffffffffffffffffffff1673ffffffffffffffffffffffffffffffffffffffff163373ffffffffffffffffffffffffffffffffffffffff1614611237576040517f08c379a0000000000000000000000000000000000000000000000000000000008152600401808060200182810382526021815260200180611b956021913960400191505060405180910390fd5b806000806101000a81548173ffffffffffffffffffffffffffffffffffffffff021916908373ffffffffffffffffffffffffffffffffffffffff16021790555050565b6000809054906101000a900473ffffffffffffffffffffffffffffffffffffffff1673ffffffffffffffffffffffffffffffffffffffff163373ffffffffffffffffffffffffffffffffffffffff161461131f576040517f08c379a0000000000000000000000000000000000000000000000000000000008152600401808060200182810382526021815260200180611b956021913960400191505060405180910390fd5b565b60016020528060005260406000206000915090508060000154908060010160009054906101000a900473ffffffffffffffffffffffffffffffffffffffff16905082565b600073ffffffffffffffffffffffffffffffffffffffff16600160003373ffffffffffffffffffffffffffffffffffffffff1673ffffffffffffffffffffffffffffffffffffffff16815260200190815260200160002060010160009054906101000a900473ffffffffffffffffffffffffffffffffffffffff1673ffffffffffffffffffffffffffffffffffffffff1614156114bc576040518060400160405280600081526020013373ffffffffffffffffffffffffffffffffffffffff16815250600160003373ffffffffffffffffffffffffffffffffffffffff1673ffffffffffffffffffffffffffffffffffffffff1681526020019081526020016000206000820151816000015560208201518160010160006101000a81548173ffffffffffffffffffffffffffffffffffffffff021916908373ffffffffffffffffffffffffffffffffffffffff1602179055509050505b34600160003373ffffffffffffffffffffffffffffffffffffffff1673ffffffffffffffffffffffffffffffffffffffff16815260200190815260200160002060000160008282540192505081905550565b6000809054906101000a900473ffffffffffffffffffffffffffffffffffffffff1673ffffffffffffffffffffffffffffffffffffffff163373ffffffffffffffffffffffffffffffffffffffff16146115b3576040517f08c379a0000000000000000000000000000000000000000000000000000000008152600401808060200182810382526021815260200180611b956021913960400191505060405180910390fd5b8047101561160c576040517f08c379a0000000000000000000000000000000000000000000000000000000008152600401808060200182810382526025815260200180611b706025913960400191505060405180910390fd5b6000809054906101000a900473ffffffffffffffffffffffffffffffffffffffff1673ffffffffffffffffffffffffffffffffffffffff166108fc829081150290604051600060405180830381858888f19350505050158015611673573d6000803e3d6000fd5b5050565b60008083519050600083519050600060016116928484611072565b0190506060816040519080825280602002602001820160405280156116d157816020015b6116be611b21565b8152602001906001900390816116b65790505b5090506060879050606087905060008090505b86811161172257808482815181106116f857fe5b602002602001015160006014811061170c57fe5b60200201818152505080806001019150506116e4565b5060008090505b85811161176757808460008151811061173e57fe5b6020026020010151826014811061175157fe5b6020020181815250508080600101915050611729565b506000600190505b8681116118d9576000600190505b8681116118cb5760006001905083600183038151811061179957fe5b602001015160f81c60f81b7effffffffffffffffffffffffffffffffffffffffffffffffffffffffffffff19168560018503815181106117d557fe5b602001015160f81c60f81b7effffffffffffffffffffffffffffffffffffffffffffffffffffffffffffff1916141561180d57600090505b611895600187600186038151811061182157fe5b6020026020010151846014811061183457fe5b602002015101600188868151811061184857fe5b6020026020010151600186036014811061185e57fe5b6020020151018389600188038151811061187457fe5b6020026020010151600187036014811061188a57fe5b602002015101611145565b8684815181106118a157fe5b602002602001015183601481106118b457fe5b60200201818152505050808060010191505061177d565b50808060010191505061176f565b508286815181106118e657fe5b602002602001015185601481106118f957fe5b6020020151965050505050505092915050565b6000809054906101000a900473ffffffffffffffffffffffffffffffffffffffff1681565b6000600160008373ffffffffffffffffffffffffffffffffffffffff1673ffffffffffffffffffffffffffffffffffffffff168152602001908152602001600020600001549050919050565b600073ffffffffffffffffffffffffffffffffffffffff16600160008473ffffffffffffffffffffffffffffffffffffffff1673ffffffffffffffffffffffffffffffffffffffff16815260200190815260200160002060010160009054906101000a900473ffffffffffffffffffffffffffffffffffffffff1673ffffffffffffffffffffffffffffffffffffffff161415611a82576040517f08c379a00000000000000000000000000000000000000000000000000000000081526004018080602001828103825260188152602001807f546865207573657220646f6573206e6f7420657869737473000000000000000081525060200191505060405180910390fd5b80600160008473ffffffffffffffffffffffffffffffffffffffff1673ffffffffffffffffffffffffffffffffffffffff168152602001908152602001600020600001541015611b1d576040517f08c379a000000000000000000000000000000000000000000000000000000000815260040180806020018281038252602b815260200180611b45602b913960400191505060405180910390fd5b5050565b60405180610280016040528060149060208202803883398082019150509050509056fe546865207573657220646f6573206e6f742068617665207468652072657175657374656420616d6f756e745468652072657175657374656420616d6f756e74206973206e6f7420617661696c61626c654f6e6c792061646d696e2063616e2063616c6c20746869732066756e6374696f6ea265627a7a72315820416d3c8f1b1d16d39d05d2118b4f38fe94745246459ab89945843ecbf9ca595464736f6c63430005100032",
  "source": "pragma solidity ^0.5.0;\n\ncontract Challenge {\n\n  /* = = = = = = TO DO = = = = = = = */\n  /*\n    * Learn how to optimize gas costs\n    * See how to \"froze\" the money while betting\n    * Calculate the levenshtein distance\n      - Make it work for any string length\n    * Transform this into a modular architecture\n  */\n\n  /* = = = = = = = VARIABLES & CONSTRUCTOR = = = = = = =*/\n  //State variables -> Permanently saved in the contract\n  address payable public admin;\n  mapping(address => User) public users;\n\n  struct User {\n        uint balance;        // Current amount of ETH of the user in our platform\n        address userAddress; // Address of the user\n  }\n\n  constructor () public{\n    admin = msg.sender;\n  }\n\n  modifier onlyAdmin {\n    require(msg.sender == admin, \"Only admin can call this function\");\n        _;\n  }\n\n/* = = = = = = = FUNCTIONS = = = = = = = */\n// - - - - Getters - - - -\nfunction getUser(address _userAddress) public view returns(uint, address){\n  return (users[_userAddress].balance, users[_userAddress].userAddress);\n}\n\nfunction getBalance(address _userAddress) public view returns(uint){\n  return (users[_userAddress].balance);\n}\n\nfunction getBalanceContract() public view onlyAdmin returns(uint){\n  return address(this).balance;\n}\n\n// function getUsersCount() public view returns(uint) {\n//   return users.length;\n// }\n\n// - - - - - - - - - -\n\n// - - - - Future Modifications - - - -\nfunction setAdmin(address payable _newAdmin) public onlyAdmin {\n  admin = _newAdmin;\n}\n// - - - - - - - - - -\n\n// - - - - Events - - - -\nevent Winner(string _winner); // Not able to obtain info inside a string\nevent Winner1();\nevent Winner2();\n\n// - - - - Core - - - -\n  function checkUser(address _userAddress, uint _amount) private{\n    require(users[_userAddress].userAddress != address(0), \"The user does not exists\");\n    require(users[_userAddress].balance >= _amount, \"The user does not have the requested amount\");\n  }\n\n  // Deposit and Withdraw for Admin\n  function depositAdmin() public payable onlyAdmin{}\n\n  function withdrawAdmin(uint _amount) public payable onlyAdmin{\n    require(address(this).balance >= _amount, \"The requested amount is not available\");\n    admin.transfer(_amount);\n  }\n\n  //Deposit and Withdraw for Users\n  function deposit() public payable{\n    // Create user if it does not exists\n    if (users[msg.sender].userAddress == address(0)){\n      users[msg.sender] = User(0, msg.sender);\n    }\n\n    users[msg.sender].balance += msg.value;\n  }\n\n  function withdraw(uint _amount) public {\n    checkUser(msg.sender, _amount);\n\n    msg.sender.transfer(_amount);\n    users[msg.sender].balance -= _amount;\n  }\n\n\n  function game(address _pl1, address _pl2, uint _bet, uint _resul) public onlyAdmin{\n    checkUser(_pl1, _bet);\n    checkUser(_pl2, _bet);\n\n    if ((_resul % 2) == 0){\n      users[_pl1].balance += _bet;\n      users[_pl2].balance -= _bet;\n      emit Winner(\"Player 1\");\n      //emit Winner1();\n    }\n    else{\n      users[_pl2].balance += _bet;\n      users[_pl1].balance -= _bet;\n      emit Winner(\"Player 2\");\n      //emit Winner2();\n    }\n  }\n\n\n  function gameLev(address _pl1, address _pl2, uint _bet, string memory _pl1Resul, string memory _pl2Resul, string memory _resul) public onlyAdmin{\n    checkUser(_pl1, _bet);\n    checkUser(_pl2, _bet);\n\n    uint pl1Score = levDistance(_pl1Resul, _resul);\n    uint pl2Score = levDistance(_pl2Resul, _resul);\n\n    if (pl1Score < pl2Score){\n      users[_pl1].balance += _bet;\n      users[_pl2].balance -= _bet;\n      emit Winner(\"LevDistance: Player 1\");\n    }\n    else if (pl1Score > pl2Score){\n      users[_pl2].balance += _bet;\n      users[_pl1].balance -= _bet;\n      emit Winner(\"LevDistance: Player 2\");\n    }\n    else{\n      emit Winner(\"LevDistance: Draw\");\n    }\n  }\n\n// - - - - - - - - - -\n\n// - - - - Testing Functions - - - -\n  function levDistance(string memory _str1, string memory _str2) public pure returns(uint){\n    uint length1 = bytes(_str1).length;\n    uint length2 = bytes(_str2).length;\n    uint n = max(length1, length2) + 1;\n    uint[20][] memory distance = new uint[20][](n);\n    bytes memory str1 = bytes(_str1);\n    bytes memory str2 = bytes(_str2);\n\n    for(uint i=0; i<=length1; i++){\n      distance[i][0]=i;\n    }\n    for(uint j=0; j<=length2; j++){\n      distance[0][j]=j;\n    }\n    for(uint i=1; i<=length1; i++){\n      for(uint j=1; j<=length2; j++){\n        uint aux = 1;\n        if (str1[i-1] == str2[j-1]){\n          aux = 0;\n        }\n        distance[i][j]= minimum(distance[i-1][j] + 1, distance[i][j-1] + 1, distance[i-1][j-1] + aux);\n      }\n    }\n\n    return (distance[length1][length2]);\n  }\n\n  function minimum(uint a, uint b, uint c) public pure returns (uint){\n    uint smallest;\n    if (a <= b && a <= c) {\n      smallest = a;\n    } else if (b <= c && b <= a) {\n      smallest = b;\n    } else {\n      smallest = c;\n    }\n\n    return (smallest);\n  }\n\n  function max(uint a, uint b) public pure returns (uint){\n    uint resul;\n\n    if(b > a){\n      resul = b;\n    } else {\n      resul = a;\n    }\n\n    return (resul);\n  }\n}\n",
  "sourcePath": "/home/pedro/TFG/challenge/contracts/Challenge.sol",
  "compiler": {
    "name": "solc",
    "version": "0.5.16+commit.9c3226ce.Emscripten.clang"
  },
  "schemaVersion": "3.3.4",
  "updatedAt": "2021-06-10T06:31:31.454Z",
  "networkType": "ethereum",
  "devdoc": {
    "methods": {}
  },
  "userdoc": {
    "methods": {}
  }
}