{
  "contractName": "Challenge",
  "abi": [
    {
      "inputs": [],
      "payable": false,
      "stateMutability": "nonpayable",
      "type": "constructor"
    },
    {
      "anonymous": false,
      "inputs": [
        {
          "indexed": false,
          "internalType": "string",
          "name": "_winner",
          "type": "string"
        }
      ],
      "name": "Winner",
      "type": "event"
    },
    {
      "constant": true,
      "inputs": [],
      "name": "admin",
      "outputs": [
        {
          "internalType": "address payable",
          "name": "",
          "type": "address"
        }
      ],
      "payable": false,
      "stateMutability": "view",
      "type": "function"
    },
    {
      "constant": true,
      "inputs": [
        {
          "internalType": "string",
          "name": "",
          "type": "string"
        }
      ],
      "name": "contracts",
      "outputs": [
        {
          "internalType": "address",
          "name": "",
          "type": "address"
        }
      ],
      "payable": false,
      "stateMutability": "view",
      "type": "function"
    },
    {
      "constant": true,
      "inputs": [
        {
          "internalType": "address",
          "name": "",
          "type": "address"
        }
      ],
      "name": "users",
      "outputs": [
        {
          "internalType": "uint256",
          "name": "balance",
          "type": "uint256"
        },
        {
          "internalType": "address",
          "name": "userAddress",
          "type": "address"
        }
      ],
      "payable": false,
      "stateMutability": "view",
      "type": "function"
    },
    {
      "constant": true,
      "inputs": [
        {
          "internalType": "address",
          "name": "_userAddress",
          "type": "address"
        }
      ],
      "name": "getUser",
      "outputs": [
        {
          "internalType": "uint256",
          "name": "",
          "type": "uint256"
        },
        {
          "internalType": "address",
          "name": "",
          "type": "address"
        }
      ],
      "payable": false,
      "stateMutability": "view",
      "type": "function"
    },
    {
      "constant": true,
      "inputs": [
        {
          "internalType": "address",
          "name": "_userAddress",
          "type": "address"
        }
      ],
      "name": "getBalance",
      "outputs": [
        {
          "internalType": "uint256",
          "name": "",
          "type": "uint256"
        }
      ],
      "payable": false,
      "stateMutability": "view",
      "type": "function"
    },
    {
      "constant": true,
      "inputs": [],
      "name": "getBalanceContract",
      "outputs": [
        {
          "internalType": "uint256",
          "name": "",
          "type": "uint256"
        }
      ],
      "payable": false,
      "stateMutability": "view",
      "type": "function"
    },
    {
      "constant": false,
      "inputs": [
        {
          "internalType": "address payable",
          "name": "_newAdmin",
          "type": "address"
        }
      ],
      "name": "setAdmin",
      "outputs": [],
      "payable": false,
      "stateMutability": "nonpayable",
      "type": "function"
    },
    {
      "constant": false,
      "inputs": [],
      "name": "depositAdmin",
      "outputs": [],
      "payable": true,
      "stateMutability": "payable",
      "type": "function"
    },
    {
      "constant": false,
      "inputs": [
        {
          "internalType": "uint256",
          "name": "_amount",
          "type": "uint256"
        }
      ],
      "name": "withdrawAdmin",
      "outputs": [],
      "payable": true,
      "stateMutability": "payable",
      "type": "function"
    },
    {
      "constant": false,
      "inputs": [],
      "name": "deposit",
      "outputs": [],
      "payable": true,
      "stateMutability": "payable",
      "type": "function"
    },
    {
      "constant": false,
      "inputs": [
        {
          "internalType": "uint256",
          "name": "_amount",
          "type": "uint256"
        }
      ],
      "name": "withdraw",
      "outputs": [],
      "payable": false,
      "stateMutability": "nonpayable",
      "type": "function"
    },
    {
      "constant": false,
      "inputs": [
        {
          "internalType": "address",
          "name": "_pl1",
          "type": "address"
        },
        {
          "internalType": "address",
          "name": "_pl2",
          "type": "address"
        },
        {
          "internalType": "uint256",
          "name": "_bet",
          "type": "uint256"
        },
        {
          "internalType": "uint256",
          "name": "_resul",
          "type": "uint256"
        }
      ],
      "name": "game",
      "outputs": [],
      "payable": false,
      "stateMutability": "nonpayable",
      "type": "function"
    },
    {
      "constant": false,
      "inputs": [
        {
          "internalType": "string",
          "name": "_contractName",
          "type": "string"
        },
        {
          "internalType": "address",
          "name": "_contractAddress",
          "type": "address"
        }
      ],
      "name": "setContract",
      "outputs": [],
      "payable": false,
      "stateMutability": "nonpayable",
      "type": "function"
    },
    {
      "constant": false,
      "inputs": [
        {
          "internalType": "string",
          "name": "_contractName",
          "type": "string"
        }
      ],
      "name": "getContractAddr",
      "outputs": [
        {
          "internalType": "address",
          "name": "",
          "type": "address"
        }
      ],
      "payable": false,
      "stateMutability": "nonpayable",
      "type": "function"
    },
    {
      "constant": false,
      "inputs": [
        {
          "internalType": "string",
          "name": "_str1",
          "type": "string"
        },
        {
          "internalType": "string",
          "name": "_str2",
          "type": "string"
        },
        {
          "internalType": "string",
          "name": "_contractName",
          "type": "string"
        }
      ],
      "name": "obtainLevDistance",
      "outputs": [
        {
          "internalType": "uint256",
          "name": "",
          "type": "uint256"
        }
      ],
      "payable": true,
      "stateMutability": "payable",
      "type": "function"
    },
    {
      "constant": false,
      "inputs": [
        {
          "internalType": "address",
          "name": "_pl1",
          "type": "address"
        },
        {
          "internalType": "address",
          "name": "_pl2",
          "type": "address"
        },
        {
          "internalType": "uint256",
          "name": "_bet",
          "type": "uint256"
        },
        {
          "internalType": "string",
          "name": "_pl1Resul",
          "type": "string"
        },
        {
          "internalType": "string",
          "name": "_pl2Resul",
          "type": "string"
        },
        {
          "internalType": "string",
          "name": "_resul",
          "type": "string"
        },
        {
          "internalType": "string",
          "name": "_contractName",
          "type": "string"
        }
      ],
      "name": "gameLev",
      "outputs": [],
      "payable": false,
      "stateMutability": "nonpayable",
      "type": "function"
    }
  ],
  "bytecode": "0x608060405234801561001057600080fd5b50336000806101000a81548173ffffffffffffffffffffffffffffffffffffffff021916908373ffffffffffffffffffffffffffffffffffffffff160217905550612030806100606000396000f3fe6080604052600436106100f35760003560e01c80638c5b83851161008a578063d4c1223911610059578063d4c122391461086d578063d77836ce14610b44578063f851a44014610b72578063f8b2cb4f14610bc9576100f3565b80638c5b8385146104c6578063a87430ba146105ce578063b1211c5d14610666578063d0e30db014610863576100f3565b80636f77926b116100c65780636f77926b146102cb578063704b6c021461036357806371042857146103b45780638b0b9885146103be576100f3565b80632e1a7d4d146100f85780633f0ed0df1461013357806353f9194d1461021b57806366bd78fd146102a0575b600080fd5b34801561010457600080fd5b506101316004803603602081101561011b57600080fd5b8101908080359060200190929190505050610c2e565b005b34801561013f57600080fd5b506102196004803603604081101561015657600080fd5b810190808035906020019064010000000081111561017357600080fd5b82018360208201111561018557600080fd5b803590602001918460018302840111640100000000831117156101a757600080fd5b91908080601f016020809104026020016040519081016040528093929190818152602001838380828437600081840152601f19601f820116905080830192505050505050509192919290803573ffffffffffffffffffffffffffffffffffffffff169060200190929190505050610cd2565b005b34801561022757600080fd5b5061029e6004803603608081101561023e57600080fd5b81019080803573ffffffffffffffffffffffffffffffffffffffff169060200190929190803573ffffffffffffffffffffffffffffffffffffffff1690602001909291908035906020019092919080359060200190929190505050610e23565b005b3480156102ac57600080fd5b506102b561110b565b6040518082815260200191505060405180910390f35b3480156102d757600080fd5b5061031a600480360360208110156102ee57600080fd5b81019080803573ffffffffffffffffffffffffffffffffffffffff1690602001909291905050506111b8565b604051808381526020018273ffffffffffffffffffffffffffffffffffffffff1673ffffffffffffffffffffffffffffffffffffffff1681526020019250505060405180910390f35b34801561036f57600080fd5b506103b26004803603602081101561038657600080fd5b81019080803573ffffffffffffffffffffffffffffffffffffffff16906020019092919050505061126a565b005b6103bc611352565b005b3480156103ca57600080fd5b50610484600480360360208110156103e157600080fd5b81019080803590602001906401000000008111156103fe57600080fd5b82018360208201111561041057600080fd5b8035906020019184600183028401116401000000008311171561043257600080fd5b91908080601f016020809104026020016040519081016040528093929190818152602001838380828437600081840152601f19601f8201169050808301925050505050505091929192905050506113f9565b604051808273ffffffffffffffffffffffffffffffffffffffff1673ffffffffffffffffffffffffffffffffffffffff16815260200191505060405180910390f35b3480156104d257600080fd5b5061058c600480360360208110156104e957600080fd5b810190808035906020019064010000000081111561050657600080fd5b82018360208201111561051857600080fd5b8035906020019184600183028401116401000000008311171561053a57600080fd5b91908080601f016020809104026020016040519081016040528093929190818152602001838380828437600081840152601f19601f820116905080830192505050505050509192919290505050611531565b604051808273ffffffffffffffffffffffffffffffffffffffff1673ffffffffffffffffffffffffffffffffffffffff16815260200191505060405180910390f35b3480156105da57600080fd5b5061061d600480360360208110156105f157600080fd5b81019080803573ffffffffffffffffffffffffffffffffffffffff16906020019092919050505061157a565b604051808381526020018273ffffffffffffffffffffffffffffffffffffffff1673ffffffffffffffffffffffffffffffffffffffff1681526020019250505060405180910390f35b61084d6004803603606081101561067c57600080fd5b810190808035906020019064010000000081111561069957600080fd5b8201836020820111156106ab57600080fd5b803590602001918460018302840111640100000000831117156106cd57600080fd5b91908080601f016020809104026020016040519081016040528093929190818152602001838380828437600081840152601f19601f8201169050808301925050505050505091929192908035906020019064010000000081111561073057600080fd5b82018360208201111561074257600080fd5b8035906020019184600183028401116401000000008311171561076457600080fd5b91908080601f016020809104026020016040519081016040528093929190818152602001838380828437600081840152601f19601f820116905080830192505050505050509192919290803590602001906401000000008111156107c757600080fd5b8201836020820111156107d957600080fd5b803590602001918460018302840111640100000000831117156107fb57600080fd5b91908080601f016020809104026020016040519081016040528093929190818152602001838380828437600081840152601f19601f8201169050808301925050505050505091929192905050506115be565b6040518082815260200191505060405180910390f35b61086b611792565b005b34801561087957600080fd5b50610b42600480360360e081101561089057600080fd5b81019080803573ffffffffffffffffffffffffffffffffffffffff169060200190929190803573ffffffffffffffffffffffffffffffffffffffff16906020019092919080359060200190929190803590602001906401000000008111156108f757600080fd5b82018360208201111561090957600080fd5b8035906020019184600183028401116401000000008311171561092b57600080fd5b91908080601f016020809104026020016040519081016040528093929190818152602001838380828437600081840152601f19601f8201169050808301925050505050505091929192908035906020019064010000000081111561098e57600080fd5b8201836020820111156109a057600080fd5b803590602001918460018302840111640100000000831117156109c257600080fd5b91908080601f016020809104026020016040519081016040528093929190818152602001838380828437600081840152601f19601f82011690508083019250505050505050919291929080359060200190640100000000811115610a2557600080fd5b820183602082011115610a3757600080fd5b80359060200191846001830284011164010000000083111715610a5957600080fd5b91908080601f016020809104026020016040519081016040528093929190818152602001838380828437600081840152601f19601f82011690508083019250505050505050919291929080359060200190640100000000811115610abc57600080fd5b820183602082011115610ace57600080fd5b80359060200191846001830284011164010000000083111715610af057600080fd5b91908080601f016020809104026020016040519081016040528093929190818152602001838380828437600081840152601f19601f82011690508083019250505050505050919291929050505061193b565b005b610b7060048036036020811015610b5a57600080fd5b8101908080359060200190929190505050611c0c565b005b348015610b7e57600080fd5b50610b87611d75565b604051808273ffffffffffffffffffffffffffffffffffffffff1673ffffffffffffffffffffffffffffffffffffffff16815260200191505060405180910390f35b348015610bd557600080fd5b50610c1860048036036020811015610bec57600080fd5b81019080803573ffffffffffffffffffffffffffffffffffffffff169060200190929190505050611d9a565b6040518082815260200191505060405180910390f35b610c383382611de6565b3373ffffffffffffffffffffffffffffffffffffffff166108fc829081150290604051600060405180830381858888f19350505050158015610c7e573d6000803e3d6000fd5b5080600260003373ffffffffffffffffffffffffffffffffffffffff1673ffffffffffffffffffffffffffffffffffffffff1681526020019081526020016000206000016000828254039250508190555050565b6000809054906101000a900473ffffffffffffffffffffffffffffffffffffffff1673ffffffffffffffffffffffffffffffffffffffff163373ffffffffffffffffffffffffffffffffffffffff1614610d77576040517f08c379a0000000000000000000000000000000000000000000000000000000008152600401808060200182810382526021815260200180611fdb6021913960400191505060405180910390fd5b806001836040518082805190602001908083835b60208310610dae5780518252602082019150602081019050602083039250610d8b565b6001836020036101000a038019825116818451168082178552505050505050905001915050908152602001604051809103902060006101000a81548173ffffffffffffffffffffffffffffffffffffffff021916908373ffffffffffffffffffffffffffffffffffffffff1602179055505050565b6000809054906101000a900473ffffffffffffffffffffffffffffffffffffffff1673ffffffffffffffffffffffffffffffffffffffff163373ffffffffffffffffffffffffffffffffffffffff1614610ec8576040517f08c379a0000000000000000000000000000000000000000000000000000000008152600401808060200182810382526021815260200180611fdb6021913960400191505060405180910390fd5b610ed28483611de6565b610edc8383611de6565b600060028281610ee857fe5b061415610ffc5781600260008673ffffffffffffffffffffffffffffffffffffffff1673ffffffffffffffffffffffffffffffffffffffff1681526020019081526020016000206000016000828254019250508190555081600260008573ffffffffffffffffffffffffffffffffffffffff1673ffffffffffffffffffffffffffffffffffffffff168152602001908152602001600020600001600082825403925050819055507f1e1f22c88be4eb57512afdedf796b878457b4d104150bb48d3614b166a0415b86040518080602001828103825260088152602001807f506c61796572203100000000000000000000000000000000000000000000000081525060200191505060405180910390a1611105565b81600260008573ffffffffffffffffffffffffffffffffffffffff1673ffffffffffffffffffffffffffffffffffffffff1681526020019081526020016000206000016000828254019250508190555081600260008673ffffffffffffffffffffffffffffffffffffffff1673ffffffffffffffffffffffffffffffffffffffff168152602001908152602001600020600001600082825403925050819055507f1e1f22c88be4eb57512afdedf796b878457b4d104150bb48d3614b166a0415b86040518080602001828103825260088152602001807f506c61796572203200000000000000000000000000000000000000000000000081525060200191505060405180910390a15b50505050565b60008060009054906101000a900473ffffffffffffffffffffffffffffffffffffffff1673ffffffffffffffffffffffffffffffffffffffff163373ffffffffffffffffffffffffffffffffffffffff16146111b2576040517f08c379a0000000000000000000000000000000000000000000000000000000008152600401808060200182810382526021815260200180611fdb6021913960400191505060405180910390fd5b47905090565b600080600260008473ffffffffffffffffffffffffffffffffffffffff1673ffffffffffffffffffffffffffffffffffffffff16815260200190815260200160002060000154600260008573ffffffffffffffffffffffffffffffffffffffff1673ffffffffffffffffffffffffffffffffffffffff16815260200190815260200160002060010160009054906101000a900473ffffffffffffffffffffffffffffffffffffffff1691509150915091565b6000809054906101000a900473ffffffffffffffffffffffffffffffffffffffff1673ffffffffffffffffffffffffffffffffffffffff163373ffffffffffffffffffffffffffffffffffffffff161461130f576040517f08c379a0000000000000000000000000000000000000000000000000000000008152600401808060200182810382526021815260200180611fdb6021913960400191505060405180910390fd5b806000806101000a81548173ffffffffffffffffffffffffffffffffffffffff021916908373ffffffffffffffffffffffffffffffffffffffff16021790555050565b6000809054906101000a900473ffffffffffffffffffffffffffffffffffffffff1673ffffffffffffffffffffffffffffffffffffffff163373ffffffffffffffffffffffffffffffffffffffff16146113f7576040517f08c379a0000000000000000000000000000000000000000000000000000000008152600401808060200182810382526021815260200180611fdb6021913960400191505060405180910390fd5b565b60008060009054906101000a900473ffffffffffffffffffffffffffffffffffffffff1673ffffffffffffffffffffffffffffffffffffffff163373ffffffffffffffffffffffffffffffffffffffff16146114a0576040517f08c379a0000000000000000000000000000000000000000000000000000000008152600401808060200182810382526021815260200180611fdb6021913960400191505060405180910390fd5b6001826040518082805190602001908083835b602083106114d657805182526020820191506020810190506020830392506114b3565b6001836020036101000a038019825116818451168082178552505050505050905001915050908152602001604051809103902060009054906101000a900473ffffffffffffffffffffffffffffffffffffffff169050919050565b6001818051602081018201805184825260208301602085012081835280955050505050506000915054906101000a900473ffffffffffffffffffffffffffffffffffffffff1681565b60026020528060005260406000206000915090508060000154908060010160009054906101000a900473ffffffffffffffffffffffffffffffffffffffff16905082565b600080600160405180807f6c657644697374616e6365000000000000000000000000000000000000000000815250600b019050908152602001604051809103902060009054906101000a900473ffffffffffffffffffffffffffffffffffffffff16905060008173ffffffffffffffffffffffffffffffffffffffff1663df7450e487876040518363ffffffff1660e01b8152600401808060200180602001838103835285818151815260200191508051906020019080838360005b8381101561169557808201518184015260208101905061167a565b50505050905090810190601f1680156116c25780820380516001836020036101000a031916815260200191505b50838103825284818151815260200191508051906020019080838360005b838110156116fb5780820151818401526020810190506116e0565b50505050905090810190601f1680156117285780820380516001836020036101000a031916815260200191505b50945050505050602060405180830381600087803b15801561174957600080fd5b505af115801561175d573d6000803e3d6000fd5b505050506040513d602081101561177357600080fd5b8101908080519060200190929190505050905080925050509392505050565b600073ffffffffffffffffffffffffffffffffffffffff16600260003373ffffffffffffffffffffffffffffffffffffffff1673ffffffffffffffffffffffffffffffffffffffff16815260200190815260200160002060010160009054906101000a900473ffffffffffffffffffffffffffffffffffffffff1673ffffffffffffffffffffffffffffffffffffffff1614156118e9576040518060400160405280600081526020013373ffffffffffffffffffffffffffffffffffffffff16815250600260003373ffffffffffffffffffffffffffffffffffffffff1673ffffffffffffffffffffffffffffffffffffffff1681526020019081526020016000206000820151816000015560208201518160010160006101000a81548173ffffffffffffffffffffffffffffffffffffffff021916908373ffffffffffffffffffffffffffffffffffffffff1602179055509050505b34600260003373ffffffffffffffffffffffffffffffffffffffff1673ffffffffffffffffffffffffffffffffffffffff16815260200190815260200160002060000160008282540192505081905550565b6119458786611de6565b61194f8686611de6565b600061195c8584846115be565b9050600061196b8585856115be565b905080821015611a825786600260008b73ffffffffffffffffffffffffffffffffffffffff1673ffffffffffffffffffffffffffffffffffffffff1681526020019081526020016000206000016000828254019250508190555086600260008a73ffffffffffffffffffffffffffffffffffffffff1673ffffffffffffffffffffffffffffffffffffffff168152602001908152602001600020600001600082825403925050819055507f1e1f22c88be4eb57512afdedf796b878457b4d104150bb48d3614b166a0415b86040518080602001828103825260158152602001807f4c657644697374616e63653a20506c617965722031000000000000000000000081525060200191505060405180910390a1611c01565b80821115611b975786600260008a73ffffffffffffffffffffffffffffffffffffffff1673ffffffffffffffffffffffffffffffffffffffff1681526020019081526020016000206000016000828254019250508190555086600260008b73ffffffffffffffffffffffffffffffffffffffff1673ffffffffffffffffffffffffffffffffffffffff168152602001908152602001600020600001600082825403925050819055507f1e1f22c88be4eb57512afdedf796b878457b4d104150bb48d3614b166a0415b86040518080602001828103825260158152602001807f4c657644697374616e63653a20506c617965722032000000000000000000000081525060200191505060405180910390a1611c00565b7f1e1f22c88be4eb57512afdedf796b878457b4d104150bb48d3614b166a0415b86040518080602001828103825260118152602001807f4c657644697374616e63653a204472617700000000000000000000000000000081525060200191505060405180910390a15b5b505050505050505050565b6000809054906101000a900473ffffffffffffffffffffffffffffffffffffffff1673ffffffffffffffffffffffffffffffffffffffff163373ffffffffffffffffffffffffffffffffffffffff1614611cb1576040517f08c379a0000000000000000000000000000000000000000000000000000000008152600401808060200182810382526021815260200180611fdb6021913960400191505060405180910390fd5b80471015611d0a576040517f08c379a0000000000000000000000000000000000000000000000000000000008152600401808060200182810382526025815260200180611fb66025913960400191505060405180910390fd5b6000809054906101000a900473ffffffffffffffffffffffffffffffffffffffff1673ffffffffffffffffffffffffffffffffffffffff166108fc829081150290604051600060405180830381858888f19350505050158015611d71573d6000803e3d6000fd5b5050565b6000809054906101000a900473ffffffffffffffffffffffffffffffffffffffff1681565b6000600260008373ffffffffffffffffffffffffffffffffffffffff1673ffffffffffffffffffffffffffffffffffffffff168152602001908152602001600020600001549050919050565b600073ffffffffffffffffffffffffffffffffffffffff16600260008473ffffffffffffffffffffffffffffffffffffffff1673ffffffffffffffffffffffffffffffffffffffff16815260200190815260200160002060010160009054906101000a900473ffffffffffffffffffffffffffffffffffffffff1673ffffffffffffffffffffffffffffffffffffffff161415611eeb576040517f08c379a00000000000000000000000000000000000000000000000000000000081526004018080602001828103825260188152602001807f546865207573657220646f6573206e6f7420657869737473000000000000000081525060200191505060405180910390fd5b80600260008473ffffffffffffffffffffffffffffffffffffffff1673ffffffffffffffffffffffffffffffffffffffff168152602001908152602001600020600001541015611f86576040517f08c379a000000000000000000000000000000000000000000000000000000000815260040180806020018281038252602b815260200180611f8b602b913960400191505060405180910390fd5b505056fe546865207573657220646f6573206e6f742068617665207468652072657175657374656420616d6f756e745468652072657175657374656420616d6f756e74206973206e6f7420617661696c61626c654f6e6c792061646d696e2063616e2063616c6c20746869732066756e6374696f6ea265627a7a72315820b6035a48dff2f8cf62abf7a5c8fc303feb91afb093d32bb96a42e97ee5fecc7c64736f6c63430005100032",
  "source": "pragma solidity ^0.5.0;\n\n/* = = = = = = = INTERFACES = = = = = = = = = = */\ncontract LevDistanceInterface{\n  function levDistance(string memory _str1, string memory _str2) public payable returns(uint);\n}\n\ncontract Challenge {\n\n  /* = = = = = = TO DO = = = = = = = */\n  /*\n    * Learn how to optimize gas costs\n    * See how to \"froze\" the money while betting\n    * Calculate the levenshtein distance\n      - Make it work for any string length\n    * Transform this into a modular architecture\n    * GUI\n  */\n\n  /* = = = = = = = VARIABLES & CONSTRUCTOR = = = = = = =*/\n  //State variables -> Permanently saved in the contract\n  address payable public admin;\n  mapping(string => address) public contracts;\n  mapping(address => User) public users;\n\n  struct User {\n        uint balance;        // Current amount of ETH of the user in our platform\n        address userAddress; // Address of the user\n  }\n\n  constructor () public{\n    admin = msg.sender;\n  }\n\n  modifier onlyAdmin {\n    require(msg.sender == admin, \"Only admin can call this function\");\n        _;\n  }\n\n/* = = = = = = = FUNCTIONS = = = = = = = */\n// - - - - Getters - - - -\nfunction getUser(address _userAddress) public view returns(uint, address){\n  return (users[_userAddress].balance, users[_userAddress].userAddress);\n}\n\nfunction getBalance(address _userAddress) public view returns(uint){\n  return (users[_userAddress].balance);\n}\n\nfunction getBalanceContract() public view onlyAdmin returns(uint){\n  return address(this).balance;\n}\n\n// - - - - - - - - - -\n\n// - - - - Future Modifications - - - -\nfunction setAdmin(address payable _newAdmin) public onlyAdmin {\n  admin = _newAdmin;\n}\n// - - - - - - - - - -\n\n// - - - - Events - - - -\nevent Winner(string _winner);\n\n// - - - - Core - - - -\n  function checkUser(address _userAddress, uint _amount) private view{\n    require(users[_userAddress].userAddress != address(0), \"The user does not exists\");\n    require(users[_userAddress].balance >= _amount, \"The user does not have the requested amount\");\n  }\n\n  // Deposit and Withdraw for Admin\n  function depositAdmin() public payable onlyAdmin{}\n\n  function withdrawAdmin(uint _amount) public payable onlyAdmin{\n    require(address(this).balance >= _amount, \"The requested amount is not available\");\n    admin.transfer(_amount);\n  }\n\n  //Deposit and Withdraw for Users\n  function deposit() public payable{\n    // Create user if it does not exists\n    if (users[msg.sender].userAddress == address(0)){\n      users[msg.sender] = User(0, msg.sender);\n    }\n\n    users[msg.sender].balance += msg.value;\n  }\n\n  function withdraw(uint _amount) public {\n    checkUser(msg.sender, _amount);\n\n    msg.sender.transfer(_amount);\n    users[msg.sender].balance -= _amount;\n  }\n\n// - - - - - - Games - - - - - -\n  function game(address _pl1, address _pl2, uint _bet, uint _resul) public onlyAdmin{\n    checkUser(_pl1, _bet);\n    checkUser(_pl2, _bet);\n\n    if ((_resul % 2) == 0){\n      users[_pl1].balance += _bet;\n      users[_pl2].balance -= _bet;\n      emit Winner(\"Player 1\");\n    }\n    else{\n      users[_pl2].balance += _bet;\n      users[_pl1].balance -= _bet;\n      emit Winner(\"Player 2\");\n    }\n  }\n\n  //= = = = = = INTERACTIONS WITH OTHER CONTRACTS = = = = = = =\n  function setContract(string memory _contractName, address _contractAddress) public onlyAdmin{\n    contracts[_contractName] = _contractAddress;\n  }\n\n  function getContractAddr(string memory _contractName) public onlyAdmin returns(address){\n    return contracts[_contractName];\n  }\n\n  //- - - - - LevDistance - - - - -\n  function obtainLevDistance(string memory _str1, string memory _str2, string memory _contractName) public payable returns(uint){\n    LevDistanceInterface LevDistanceContract = LevDistanceInterface(contracts[\"levDistance\"]);\n    uint score = LevDistanceContract.levDistance(_str1, _str2);\n\n    return score;\n  }\n\n  function gameLev(address _pl1, address _pl2, uint _bet, string memory _pl1Resul, string memory _pl2Resul, string memory _resul, string memory _contractName) public{\n\n    checkUser(_pl1, _bet);\n    checkUser(_pl2, _bet);\n\n    uint pl1Score = obtainLevDistance(_pl1Resul, _resul, _contractName);\n    uint pl2Score = obtainLevDistance(_pl2Resul, _resul, _contractName);\n\n    if (pl1Score < pl2Score){\n      users[_pl1].balance += _bet;\n      users[_pl2].balance -= _bet;\n      emit Winner(\"LevDistance: Player 1\");\n    }\n    else if (pl1Score > pl2Score){\n      users[_pl2].balance += _bet;\n      users[_pl1].balance -= _bet;\n      emit Winner(\"LevDistance: Player 2\");\n    }\n    else{\n      emit Winner(\"LevDistance: Draw\");\n    }\n  }\n}\n",
  "sourcePath": "/home/pedro/TFG/contest/contracts/Challenge.sol",
  "compiler": {
    "name": "solc",
    "version": "0.5.16+commit.9c3226ce.Emscripten.clang"
  },
  "schemaVersion": "3.3.4",
  "updatedAt": "2021-07-09T16:29:57.509Z",
  "devdoc": {
    "methods": {}
  },
  "userdoc": {
    "methods": {}
  }
}