{
  "contractName": "Challenge",
  "abi": [
    {
      "inputs": [],
      "payable": false,
      "stateMutability": "nonpayable",
      "type": "constructor"
    },
    {
      "anonymous": false,
      "inputs": [
        {
          "indexed": false,
          "internalType": "string",
          "name": "_winner",
          "type": "string"
        }
      ],
      "name": "Winner",
      "type": "event"
    },
    {
      "anonymous": false,
      "inputs": [],
      "name": "Winner1",
      "type": "event"
    },
    {
      "anonymous": false,
      "inputs": [],
      "name": "Winner2",
      "type": "event"
    },
    {
      "constant": true,
      "inputs": [],
      "name": "admin",
      "outputs": [
        {
          "internalType": "address payable",
          "name": "",
          "type": "address"
        }
      ],
      "payable": false,
      "stateMutability": "view",
      "type": "function"
    },
    {
      "constant": true,
      "inputs": [
        {
          "internalType": "address",
          "name": "",
          "type": "address"
        }
      ],
      "name": "users",
      "outputs": [
        {
          "internalType": "uint256",
          "name": "balance",
          "type": "uint256"
        },
        {
          "internalType": "address",
          "name": "userAddress",
          "type": "address"
        }
      ],
      "payable": false,
      "stateMutability": "view",
      "type": "function"
    },
    {
      "constant": true,
      "inputs": [
        {
          "internalType": "address",
          "name": "_userAddress",
          "type": "address"
        }
      ],
      "name": "getUser",
      "outputs": [
        {
          "internalType": "uint256",
          "name": "",
          "type": "uint256"
        },
        {
          "internalType": "address",
          "name": "",
          "type": "address"
        }
      ],
      "payable": false,
      "stateMutability": "view",
      "type": "function"
    },
    {
      "constant": true,
      "inputs": [
        {
          "internalType": "address",
          "name": "_userAddress",
          "type": "address"
        }
      ],
      "name": "getBalance",
      "outputs": [
        {
          "internalType": "uint256",
          "name": "",
          "type": "uint256"
        }
      ],
      "payable": false,
      "stateMutability": "view",
      "type": "function"
    },
    {
      "constant": true,
      "inputs": [],
      "name": "getBalanceContract",
      "outputs": [
        {
          "internalType": "uint256",
          "name": "",
          "type": "uint256"
        }
      ],
      "payable": false,
      "stateMutability": "view",
      "type": "function"
    },
    {
      "constant": false,
      "inputs": [
        {
          "internalType": "address payable",
          "name": "_newAdmin",
          "type": "address"
        }
      ],
      "name": "setAdmin",
      "outputs": [],
      "payable": false,
      "stateMutability": "nonpayable",
      "type": "function"
    },
    {
      "constant": false,
      "inputs": [],
      "name": "depositAdmin",
      "outputs": [],
      "payable": true,
      "stateMutability": "payable",
      "type": "function"
    },
    {
      "constant": false,
      "inputs": [
        {
          "internalType": "uint256",
          "name": "_amount",
          "type": "uint256"
        }
      ],
      "name": "withdrawAdmin",
      "outputs": [],
      "payable": true,
      "stateMutability": "payable",
      "type": "function"
    },
    {
      "constant": false,
      "inputs": [],
      "name": "deposit",
      "outputs": [],
      "payable": true,
      "stateMutability": "payable",
      "type": "function"
    },
    {
      "constant": false,
      "inputs": [
        {
          "internalType": "uint256",
          "name": "_amount",
          "type": "uint256"
        }
      ],
      "name": "withdraw",
      "outputs": [],
      "payable": false,
      "stateMutability": "nonpayable",
      "type": "function"
    },
    {
      "constant": false,
      "inputs": [
        {
          "internalType": "address",
          "name": "_pl1",
          "type": "address"
        },
        {
          "internalType": "address",
          "name": "_pl2",
          "type": "address"
        },
        {
          "internalType": "uint256",
          "name": "_bet",
          "type": "uint256"
        },
        {
          "internalType": "uint256",
          "name": "_resul",
          "type": "uint256"
        }
      ],
      "name": "game",
      "outputs": [],
      "payable": false,
      "stateMutability": "nonpayable",
      "type": "function"
    }
  ],
  "bytecode": "0x608060405234801561001057600080fd5b50336000806101000a81548173ffffffffffffffffffffffffffffffffffffffff021916908373ffffffffffffffffffffffffffffffffffffffff160217905550611096806100606000396000f3fe60806040526004361061009c5760003560e01c806371042857116100645780637104285714610275578063a87430ba1461027f578063d0e30db014610317578063d77836ce14610321578063f851a4401461034f578063f8b2cb4f146103a65761009c565b80632e1a7d4d146100a157806353f9194d146100dc57806366bd78fd146101615780636f77926b1461018c578063704b6c0214610224575b600080fd5b3480156100ad57600080fd5b506100da600480360360208110156100c457600080fd5b810190808035906020019092919050505061040b565b005b3480156100e857600080fd5b5061015f600480360360808110156100ff57600080fd5b81019080803573ffffffffffffffffffffffffffffffffffffffff169060200190929190803573ffffffffffffffffffffffffffffffffffffffff16906020019092919080359060200190929190803590602001909291905050506104af565b005b34801561016d57600080fd5b50610176610797565b6040518082815260200191505060405180910390f35b34801561019857600080fd5b506101db600480360360208110156101af57600080fd5b81019080803573ffffffffffffffffffffffffffffffffffffffff169060200190929190505050610844565b604051808381526020018273ffffffffffffffffffffffffffffffffffffffff1673ffffffffffffffffffffffffffffffffffffffff1681526020019250505060405180910390f35b34801561023057600080fd5b506102736004803603602081101561024757600080fd5b81019080803573ffffffffffffffffffffffffffffffffffffffff1690602001909291905050506108f6565b005b61027d6109de565b005b34801561028b57600080fd5b506102ce600480360360208110156102a257600080fd5b81019080803573ffffffffffffffffffffffffffffffffffffffff169060200190929190505050610a85565b604051808381526020018273ffffffffffffffffffffffffffffffffffffffff1673ffffffffffffffffffffffffffffffffffffffff1681526020019250505060405180910390f35b61031f610ac9565b005b61034d6004803603602081101561033757600080fd5b8101908080359060200190929190505050610c72565b005b34801561035b57600080fd5b50610364610ddb565b604051808273ffffffffffffffffffffffffffffffffffffffff1673ffffffffffffffffffffffffffffffffffffffff16815260200191505060405180910390f35b3480156103b257600080fd5b506103f5600480360360208110156103c957600080fd5b81019080803573ffffffffffffffffffffffffffffffffffffffff169060200190929190505050610e00565b6040518082815260200191505060405180910390f35b6104153382610e4c565b3373ffffffffffffffffffffffffffffffffffffffff166108fc829081150290604051600060405180830381858888f1935050505015801561045b573d6000803e3d6000fd5b5080600160003373ffffffffffffffffffffffffffffffffffffffff1673ffffffffffffffffffffffffffffffffffffffff1681526020019081526020016000206000016000828254039250508190555050565b6000809054906101000a900473ffffffffffffffffffffffffffffffffffffffff1673ffffffffffffffffffffffffffffffffffffffff163373ffffffffffffffffffffffffffffffffffffffff1614610554576040517f08c379a00000000000000000000000000000000000000000000000000000000081526004018080602001828103825260218152602001806110416021913960400191505060405180910390fd5b61055e8483610e4c565b6105688383610e4c565b60006002828161057457fe5b0614156106885781600160008673ffffffffffffffffffffffffffffffffffffffff1673ffffffffffffffffffffffffffffffffffffffff1681526020019081526020016000206000016000828254019250508190555081600160008573ffffffffffffffffffffffffffffffffffffffff1673ffffffffffffffffffffffffffffffffffffffff168152602001908152602001600020600001600082825403925050819055507f1e1f22c88be4eb57512afdedf796b878457b4d104150bb48d3614b166a0415b86040518080602001828103825260088152602001807f506c61796572203100000000000000000000000000000000000000000000000081525060200191505060405180910390a1610791565b81600160008573ffffffffffffffffffffffffffffffffffffffff1673ffffffffffffffffffffffffffffffffffffffff1681526020019081526020016000206000016000828254019250508190555081600160008673ffffffffffffffffffffffffffffffffffffffff1673ffffffffffffffffffffffffffffffffffffffff168152602001908152602001600020600001600082825403925050819055507f1e1f22c88be4eb57512afdedf796b878457b4d104150bb48d3614b166a0415b86040518080602001828103825260088152602001807f506c61796572203200000000000000000000000000000000000000000000000081525060200191505060405180910390a15b50505050565b60008060009054906101000a900473ffffffffffffffffffffffffffffffffffffffff1673ffffffffffffffffffffffffffffffffffffffff163373ffffffffffffffffffffffffffffffffffffffff161461083e576040517f08c379a00000000000000000000000000000000000000000000000000000000081526004018080602001828103825260218152602001806110416021913960400191505060405180910390fd5b47905090565b600080600160008473ffffffffffffffffffffffffffffffffffffffff1673ffffffffffffffffffffffffffffffffffffffff16815260200190815260200160002060000154600160008573ffffffffffffffffffffffffffffffffffffffff1673ffffffffffffffffffffffffffffffffffffffff16815260200190815260200160002060010160009054906101000a900473ffffffffffffffffffffffffffffffffffffffff1691509150915091565b6000809054906101000a900473ffffffffffffffffffffffffffffffffffffffff1673ffffffffffffffffffffffffffffffffffffffff163373ffffffffffffffffffffffffffffffffffffffff161461099b576040517f08c379a00000000000000000000000000000000000000000000000000000000081526004018080602001828103825260218152602001806110416021913960400191505060405180910390fd5b806000806101000a81548173ffffffffffffffffffffffffffffffffffffffff021916908373ffffffffffffffffffffffffffffffffffffffff16021790555050565b6000809054906101000a900473ffffffffffffffffffffffffffffffffffffffff1673ffffffffffffffffffffffffffffffffffffffff163373ffffffffffffffffffffffffffffffffffffffff1614610a83576040517f08c379a00000000000000000000000000000000000000000000000000000000081526004018080602001828103825260218152602001806110416021913960400191505060405180910390fd5b565b60016020528060005260406000206000915090508060000154908060010160009054906101000a900473ffffffffffffffffffffffffffffffffffffffff16905082565b600073ffffffffffffffffffffffffffffffffffffffff16600160003373ffffffffffffffffffffffffffffffffffffffff1673ffffffffffffffffffffffffffffffffffffffff16815260200190815260200160002060010160009054906101000a900473ffffffffffffffffffffffffffffffffffffffff1673ffffffffffffffffffffffffffffffffffffffff161415610c20576040518060400160405280600081526020013373ffffffffffffffffffffffffffffffffffffffff16815250600160003373ffffffffffffffffffffffffffffffffffffffff1673ffffffffffffffffffffffffffffffffffffffff1681526020019081526020016000206000820151816000015560208201518160010160006101000a81548173ffffffffffffffffffffffffffffffffffffffff021916908373ffffffffffffffffffffffffffffffffffffffff1602179055509050505b34600160003373ffffffffffffffffffffffffffffffffffffffff1673ffffffffffffffffffffffffffffffffffffffff16815260200190815260200160002060000160008282540192505081905550565b6000809054906101000a900473ffffffffffffffffffffffffffffffffffffffff1673ffffffffffffffffffffffffffffffffffffffff163373ffffffffffffffffffffffffffffffffffffffff1614610d17576040517f08c379a00000000000000000000000000000000000000000000000000000000081526004018080602001828103825260218152602001806110416021913960400191505060405180910390fd5b80471015610d70576040517f08c379a000000000000000000000000000000000000000000000000000000000815260040180806020018281038252602581526020018061101c6025913960400191505060405180910390fd5b6000809054906101000a900473ffffffffffffffffffffffffffffffffffffffff1673ffffffffffffffffffffffffffffffffffffffff166108fc829081150290604051600060405180830381858888f19350505050158015610dd7573d6000803e3d6000fd5b5050565b6000809054906101000a900473ffffffffffffffffffffffffffffffffffffffff1681565b6000600160008373ffffffffffffffffffffffffffffffffffffffff1673ffffffffffffffffffffffffffffffffffffffff168152602001908152602001600020600001549050919050565b600073ffffffffffffffffffffffffffffffffffffffff16600160008473ffffffffffffffffffffffffffffffffffffffff1673ffffffffffffffffffffffffffffffffffffffff16815260200190815260200160002060010160009054906101000a900473ffffffffffffffffffffffffffffffffffffffff1673ffffffffffffffffffffffffffffffffffffffff161415610f51576040517f08c379a00000000000000000000000000000000000000000000000000000000081526004018080602001828103825260188152602001807f546865207573657220646f6573206e6f7420657869737473000000000000000081525060200191505060405180910390fd5b80600160008473ffffffffffffffffffffffffffffffffffffffff1673ffffffffffffffffffffffffffffffffffffffff168152602001908152602001600020600001541015610fec576040517f08c379a000000000000000000000000000000000000000000000000000000000815260040180806020018281038252602b815260200180610ff1602b913960400191505060405180910390fd5b505056fe546865207573657220646f6573206e6f742068617665207468652072657175657374656420616d6f756e745468652072657175657374656420616d6f756e74206973206e6f7420617661696c61626c654f6e6c792061646d696e2063616e2063616c6c20746869732066756e6374696f6ea265627a7a72315820f001208356812f20ef282d36f821a35198075dc70446f8157825b32c2da6da8264736f6c63430005100032",
  "source": "pragma solidity ^0.5.0;\n\ncontract Challenge {\n\n  /* = = = = = = TO DO = = = = = = = */\n  /*\n    - Learn how to optimize gas costs\n    - Modify functions to avoid unnecesary calls to admin account\n      - Also create a withdraw to admin account\n  */\n  /* = = = = = = = VARIABLES & CONSTRUCTOR = = = = = = =*/\n  //State variables -> Permanently saved in the contract\n  address payable public admin;\n  mapping(address => User) public users;\n\n  struct User {\n        uint balance;        // Current amount of ETH of the user in our platform\n        address userAddress; // Address of the user\n  }\n\n  constructor () public{\n    admin = msg.sender;\n  }\n\n  modifier onlyAdmin {\n    require(msg.sender == admin, \"Only admin can call this function\");\n        _;\n  }\n\n/* = = = = = = = FUNCTIONS = = = = = = = */\n// - - - - Getters - - - -\nfunction getUser(address _userAddress) public view returns(uint, address){\n  return (users[_userAddress].balance, users[_userAddress].userAddress);\n}\n\nfunction getBalance(address _userAddress) public view returns(uint){\n  return (users[_userAddress].balance);\n}\n\nfunction getBalanceContract() public view onlyAdmin returns(uint){\n  return address(this).balance;\n}\n\n// function getUsersCount() public view returns(uint) {\n//   return users.length;\n// }\n\n// - - - - - - - - - -\n\n// - - - - Future Modifications - - - -\nfunction setAdmin(address payable _newAdmin) public onlyAdmin {\n  admin = _newAdmin;\n}\n// - - - - - - - - - -\n\n// - - - - Events - - - -\nevent Winner(string _winner); // Not able to obtain info inside a string\nevent Winner1();\nevent Winner2();\n\n// - - - - Core - - - -\n  function checkUser(address _userAddress, uint _amount) private{\n    require(users[_userAddress].userAddress != address(0), \"The user does not exists\");\n    require(users[_userAddress].balance >= _amount, \"The user does not have the requested amount\");\n  }\n\n  // Deposit and Withdraw for Admin\n  function depositAdmin() public payable onlyAdmin{}\n\n  function withdrawAdmin(uint _amount) public payable onlyAdmin{\n    require(address(this).balance >= _amount, \"The requested amount is not available\");\n    admin.transfer(_amount);\n  }\n\n  //Deposit and Withdraw for Users\n  function deposit() public payable{\n    // Create user if it does not exists\n    if (users[msg.sender].userAddress == address(0)){\n      users[msg.sender] = User(0, msg.sender);\n    }\n\n    users[msg.sender].balance += msg.value;\n  }\n\n  function withdraw(uint _amount) public {\n    checkUser(msg.sender, _amount);\n\n    msg.sender.transfer(_amount);\n    users[msg.sender].balance -= _amount;\n  }\n\n\n  function game(address _pl1, address _pl2, uint _bet, uint _resul) public onlyAdmin{\n    checkUser(_pl1, _bet);\n    checkUser(_pl2, _bet);\n\n    if ((_resul % 2) == 0){\n      users[_pl1].balance += _bet;\n      users[_pl2].balance -= _bet;\n      emit Winner(\"Player 1\");\n      //emit Winner1();\n    }\n    else{\n      users[_pl2].balance += _bet;\n      users[_pl1].balance -= _bet;\n      emit Winner(\"Player 2\");\n      //emit Winner2();\n    }\n  }\n\n// - - - - - - - - - -\n\n}\n",
  "sourcePath": "/home/pedro/TFG/challenge/contracts/Challenge.sol",
  "compiler": {
    "name": "solc",
    "version": "0.5.16+commit.9c3226ce.Emscripten.clang"
  },
  "schemaVersion": "3.3.4",
  "updatedAt": "2021-04-25T11:44:35.435Z",
  "networkType": "ethereum",
  "devdoc": {
    "methods": {}
  },
  "userdoc": {
    "methods": {}
  }
}