{
  "contractName": "DogsOrCats",
  "abi": [
    {
      "inputs": [],
      "payable": false,
      "stateMutability": "nonpayable",
      "type": "constructor"
    },
    {
      "anonymous": false,
      "inputs": [
        {
          "indexed": false,
          "internalType": "string",
          "name": "_notif",
          "type": "string"
        },
        {
          "indexed": false,
          "internalType": "address",
          "name": "_sender",
          "type": "address"
        }
      ],
      "name": "Notification",
      "type": "event"
    },
    {
      "constant": false,
      "inputs": [
        {
          "internalType": "address",
          "name": "_newAdmin",
          "type": "address"
        }
      ],
      "name": "setAdmin",
      "outputs": [],
      "payable": false,
      "stateMutability": "nonpayable",
      "type": "function"
    },
    {
      "constant": true,
      "inputs": [],
      "name": "getSolution",
      "outputs": [
        {
          "internalType": "uint256[]",
          "name": "",
          "type": "uint256[]"
        }
      ],
      "payable": false,
      "stateMutability": "view",
      "type": "function"
    },
    {
      "constant": true,
      "inputs": [],
      "name": "getWinners",
      "outputs": [
        {
          "internalType": "address payable[]",
          "name": "",
          "type": "address[]"
        }
      ],
      "payable": false,
      "stateMutability": "view",
      "type": "function"
    },
    {
      "constant": true,
      "inputs": [],
      "name": "getAdmin",
      "outputs": [
        {
          "internalType": "address",
          "name": "",
          "type": "address"
        }
      ],
      "payable": false,
      "stateMutability": "view",
      "type": "function"
    },
    {
      "constant": true,
      "inputs": [],
      "name": "getPrize",
      "outputs": [
        {
          "internalType": "uint256",
          "name": "",
          "type": "uint256"
        }
      ],
      "payable": false,
      "stateMutability": "view",
      "type": "function"
    },
    {
      "constant": true,
      "inputs": [],
      "name": "getContesters",
      "outputs": [
        {
          "internalType": "address payable[]",
          "name": "",
          "type": "address[]"
        }
      ],
      "payable": false,
      "stateMutability": "view",
      "type": "function"
    },
    {
      "constant": true,
      "inputs": [],
      "name": "getPrizeHasBeenSent",
      "outputs": [
        {
          "internalType": "bool",
          "name": "",
          "type": "bool"
        }
      ],
      "payable": false,
      "stateMutability": "view",
      "type": "function"
    },
    {
      "constant": true,
      "inputs": [],
      "name": "getStatus",
      "outputs": [
        {
          "internalType": "bool",
          "name": "",
          "type": "bool"
        }
      ],
      "payable": false,
      "stateMutability": "view",
      "type": "function"
    },
    {
      "constant": true,
      "inputs": [],
      "name": "getName",
      "outputs": [
        {
          "internalType": "string",
          "name": "",
          "type": "string"
        }
      ],
      "payable": false,
      "stateMutability": "view",
      "type": "function"
    },
    {
      "constant": false,
      "inputs": [
        {
          "internalType": "uint256[]",
          "name": "_solution",
          "type": "uint256[]"
        }
      ],
      "name": "createContest",
      "outputs": [],
      "payable": true,
      "stateMutability": "payable",
      "type": "function"
    },
    {
      "constant": false,
      "inputs": [],
      "name": "calculateWinners",
      "outputs": [],
      "payable": false,
      "stateMutability": "nonpayable",
      "type": "function"
    },
    {
      "constant": false,
      "inputs": [
        {
          "internalType": "address",
          "name": "_winner",
          "type": "address"
        }
      ],
      "name": "expelWinner",
      "outputs": [],
      "payable": false,
      "stateMutability": "nonpayable",
      "type": "function"
    },
    {
      "constant": false,
      "inputs": [],
      "name": "sendPrizeToWinners",
      "outputs": [],
      "payable": true,
      "stateMutability": "payable",
      "type": "function"
    },
    {
      "constant": false,
      "inputs": [],
      "name": "resetContest",
      "outputs": [],
      "payable": false,
      "stateMutability": "nonpayable",
      "type": "function"
    },
    {
      "constant": false,
      "inputs": [
        {
          "internalType": "uint256[]",
          "name": "_resul",
          "type": "uint256[]"
        }
      ],
      "name": "contest",
      "outputs": [],
      "payable": false,
      "stateMutability": "nonpayable",
      "type": "function"
    }
  ],
  "bytecode": "0x60806040523480156200001157600080fd5b5033600160006101000a81548173ffffffffffffffffffffffffffffffffffffffff021916908373ffffffffffffffffffffffffffffffffffffffff16021790555060006004819055506000600560006101000a81548160ff0219169083151502179055506000600560016101000a81548160ff0219169083151502179055506040518060400160405280601481526020017f43617473206f7220446f677320436f6e7465737400000000000000000000000081525060069080519060200190620000de929190620000e5565b5062000194565b828054600181600116156101000203166002900490600052602060002090601f016020900481019282601f106200012857805160ff191683800117855562000159565b8280016001018555821562000159579182015b82811115620001585782518255916020019190600101906200013b565b5b5090506200016891906200016c565b5090565b6200019191905b808211156200018d57600081600090555060010162000173565b5090565b90565b61216280620001a46000396000f3fe6080604052600436106100e85760003560e01c806350592adf1161008a578063c34f6b0d11610059578063c34f6b0d1461047a578063cb65905c146104a5578063df15c37e1461055d578063fe0563b9146105c9576100e8565b806350592adf146102fa5780636e9960c314610366578063704b6c02146103bd5780638db8aa7a1461040e576100e8565b8063279f2417116100c6578063279f2417146101ab578063404f874f146102705780634aaa7a8f1461027a5780634e69d560146102cb576100e8565b8063011bc2e1146100ed57806312a4d5b61461010457806317d7de7c1461011b575b600080fd5b3480156100f957600080fd5b506101026105f8565b005b34801561011057600080fd5b50610119610a5e565b005b34801561012757600080fd5b50610130610c58565b6040518080602001828103825283818151815260200191508051906020019080838360005b83811015610170578082015181840152602081019050610155565b50505050905090810190601f16801561019d5780820380516001836020036101000a031916815260200191505b509250505060405180910390f35b3480156101b757600080fd5b5061026e600480360360208110156101ce57600080fd5b81019080803590602001906401000000008111156101eb57600080fd5b8201836020820111156101fd57600080fd5b8035906020019184602083028401116401000000008311171561021f57600080fd5b919080806020026020016040519081016040528093929190818152602001838360200280828437600081840152601f19601f820116905080830192505050505050509192919290505050610cfa565b005b61027861103f565b005b34801561028657600080fd5b506102c96004803603602081101561029d57600080fd5b81019080803573ffffffffffffffffffffffffffffffffffffffff16906020019092919050505061133b565b005b3480156102d757600080fd5b506102e06116ee565b604051808215151515815260200191505060405180910390f35b34801561030657600080fd5b5061030f611705565b6040518080602001828103825283818151815260200191508051906020019060200280838360005b83811015610352578082015181840152602081019050610337565b505050509050019250505060405180910390f35b34801561037257600080fd5b5061037b611803565b604051808273ffffffffffffffffffffffffffffffffffffffff1673ffffffffffffffffffffffffffffffffffffffff16815260200191505060405180910390f35b3480156103c957600080fd5b5061040c600480360360208110156103e057600080fd5b81019080803573ffffffffffffffffffffffffffffffffffffffff16906020019092919050505061182d565b005b34801561041a57600080fd5b50610423611996565b6040518080602001828103825283818151815260200191508051906020019060200280838360005b8381101561046657808201518184015260208101905061044b565b505050509050019250505060405180910390f35b34801561048657600080fd5b5061048f611a24565b6040518082815260200191505060405180910390f35b61055b600480360360208110156104bb57600080fd5b81019080803590602001906401000000008111156104d857600080fd5b8201836020820111156104ea57600080fd5b8035906020019184602083028401116401000000008311171561050c57600080fd5b919080806020026020016040519081016040528093929190818152602001838360200280828437600081840152601f19601f820116905080830192505050505050509192919290505050611a2e565b005b34801561056957600080fd5b50610572611c6b565b6040518080602001828103825283818151815260200191508051906020019060200280838360005b838110156105b557808201518184015260208101905061059a565b505050509050019250505060405180910390f35b3480156105d557600080fd5b506105de611cf9565b604051808215151515815260200191505060405180910390f35b600160009054906101000a900473ffffffffffffffffffffffffffffffffffffffff1673ffffffffffffffffffffffffffffffffffffffff163373ffffffffffffffffffffffffffffffffffffffff161461069e576040517f08c379a000000000000000000000000000000000000000000000000000000000815260040180806020018281038252602181526020018061209f6021913960400191505060405180910390fd5b600160038054905010156106fd576040517f08c379a0000000000000000000000000000000000000000000000000000000008152600401808060200182810382526023815260200180611f6c6023913960400191505060405180910390fd5b6002600061070b9190611e2a565b600060076000600360008154811061071f57fe5b9060005260206000200160009054906101000a900473ffffffffffffffffffffffffffffffffffffffff1673ffffffffffffffffffffffffffffffffffffffff1673ffffffffffffffffffffffffffffffffffffffff1681526020019081526020016000205490506000600190505b6003805490508110156108a0578160076000600384815481106107ad57fe5b9060005260206000200160009054906101000a900473ffffffffffffffffffffffffffffffffffffffff1673ffffffffffffffffffffffffffffffffffffffff1673ffffffffffffffffffffffffffffffffffffffff16815260200190815260200160002054101561089357600760006003838154811061082a57fe5b9060005260206000200160009054906101000a900473ffffffffffffffffffffffffffffffffffffffff1673ffffffffffffffffffffffffffffffffffffffff1673ffffffffffffffffffffffffffffffffffffffff1681526020019081526020016000205491505b808060010191505061078e565b600090505b6003805490508110156109db578160076000600384815481106108c457fe5b9060005260206000200160009054906101000a900473ffffffffffffffffffffffffffffffffffffffff1673ffffffffffffffffffffffffffffffffffffffff1673ffffffffffffffffffffffffffffffffffffffff1681526020019081526020016000205414156109ce5760026003828154811061093f57fe5b9060005260206000200160009054906101000a900473ffffffffffffffffffffffffffffffffffffffff1690806001815401808255809150509060018203906000526020600020016000909192909190916101000a81548173ffffffffffffffffffffffffffffffffffffffff021916908373ffffffffffffffffffffffffffffffffffffffff160217905550505b80806001019150506108a5565b7f4d1919bd0df5ca6d4c1d352a1025604f2c4574dfbd41bdca5e526ade3062e8973360405180806020018373ffffffffffffffffffffffffffffffffffffffff1673ffffffffffffffffffffffffffffffffffffffff1681526020018281038252602f815260200180612031602f91396040019250505060405180910390a15050565b600160009054906101000a900473ffffffffffffffffffffffffffffffffffffffff1673ffffffffffffffffffffffffffffffffffffffff163373ffffffffffffffffffffffffffffffffffffffff1614610b04576040517f08c379a000000000000000000000000000000000000000000000000000000000815260040180806020018281038252602181526020018061209f6021913960400191505060405180910390fd5b60011515600560019054906101000a900460ff16151514610b70576040517f08c379a000000000000000000000000000000000000000000000000000000000815260040180806020018281038252603f815260200180612060603f913960400191505060405180910390fd5b600080610b7d9190611e4b565b600060048190555060026000610b939190611e2a565b60036000610ba19190611e2a565b6000600560006101000a81548160ff0219169083151502179055506000600560016101000a81548160ff0219169083151502179055507f4d1919bd0df5ca6d4c1d352a1025604f2c4574dfbd41bdca5e526ade3062e8973360405180806020018373ffffffffffffffffffffffffffffffffffffffff1673ffffffffffffffffffffffffffffffffffffffff16815260200182810382526024815260200180611fc1602491396040019250505060405180910390a1565b606060068054600181600116156101000203166002900480601f016020809104026020016040519081016040528092919081815260200182805460018160011615610100020316600290048015610cf05780601f10610cc557610100808354040283529160200191610cf0565b820191906000526020600020905b815481529060010190602001808311610cd357829003601f168201915b5050505050905090565b600160009054906101000a900473ffffffffffffffffffffffffffffffffffffffff1673ffffffffffffffffffffffffffffffffffffffff163373ffffffffffffffffffffffffffffffffffffffff161415610da1576040517f08c379a0000000000000000000000000000000000000000000000000000000008152600401808060200182810382526026815260200180611fe56026913960400191505060405180910390fd5b600060028054905014610dff576040517f08c379a0000000000000000000000000000000000000000000000000000000008152600401808060200182810382526032815260200180611f8f6032913960400191505060405180910390fd5b600080549050815114610e5d576040517f08c379a000000000000000000000000000000000000000000000000000000000815260040180806020018281038252602181526020018061210d6021913960400191505060405180910390fd5b600560009054906101000a900460ff16610edf576040517f08c379a00000000000000000000000000000000000000000000000000000000081526004018080602001828103825260198152602001807f54686520636f6e74657374206973206e6f74206163746976650000000000000081525060200191505060405180910390fd5b610ee881611d10565b600760003373ffffffffffffffffffffffffffffffffffffffff1673ffffffffffffffffffffffffffffffffffffffff16815260200190815260200160002081905550610f3433611d80565b15610fa05760033390806001815401808255809150509060018203906000526020600020016000909192909190916101000a81548173ffffffffffffffffffffffffffffffffffffffff021916908373ffffffffffffffffffffffffffffffffffffffff160217905550505b7f4d1919bd0df5ca6d4c1d352a1025604f2c4574dfbd41bdca5e526ade3062e8973360405180806020018373ffffffffffffffffffffffffffffffffffffffff1673ffffffffffffffffffffffffffffffffffffffff1681526020018281038252601b8152602001807f596f757220736f6c7574696f6e20686173206265656e2073656e7400000000008152506020019250505060405180910390a150565b600160009054906101000a900473ffffffffffffffffffffffffffffffffffffffff1673ffffffffffffffffffffffffffffffffffffffff163373ffffffffffffffffffffffffffffffffffffffff16146110e5576040517f08c379a000000000000000000000000000000000000000000000000000000000815260040180806020018281038252602181526020018061209f6021913960400191505060405180910390fd5b60016002805490501015611161576040517f08c379a00000000000000000000000000000000000000000000000000000000081526004018080602001828103825260208152602001807f57652073686f756c642068617665206174206c6561737420312077696e6e657281525060200191505060405180910390fd5b60001515600560019054906101000a900460ff161515146111ea576040517f08c379a000000000000000000000000000000000000000000000000000000000815260040180806020018281038252601f8152602001807f546865207072697a652068617320616c7265616479206265656e2073656e740081525060200191505060405180910390fd5b6000600280549050600454816111fc57fe5b04905060008090505b60028054905081101561129d576002818154811061121f57fe5b9060005260206000200160009054906101000a900473ffffffffffffffffffffffffffffffffffffffff1673ffffffffffffffffffffffffffffffffffffffff166108fc839081150290604051600060405180830381858888f1935050505015801561128f573d6000803e3d6000fd5b508080600101915050611205565b6001600560016101000a81548160ff0219169083151502179055507f4d1919bd0df5ca6d4c1d352a1025604f2c4574dfbd41bdca5e526ade3062e8973360405180806020018373ffffffffffffffffffffffffffffffffffffffff1673ffffffffffffffffffffffffffffffffffffffff16815260200182810382526027815260200180611f45602791396040019250505060405180910390a15050565b600160009054906101000a900473ffffffffffffffffffffffffffffffffffffffff1673ffffffffffffffffffffffffffffffffffffffff163373ffffffffffffffffffffffffffffffffffffffff16146113e1576040517f08c379a000000000000000000000000000000000000000000000000000000000815260040180806020018281038252602181526020018061209f6021913960400191505060405180910390fd5b6001600280549050101561145d576040517f08c379a00000000000000000000000000000000000000000000000000000000081526004018080602001828103825260208152602001807f57652073686f756c642068617665206174206c6561737420312077696e6e657281525060200191505060405180910390fd5b60001515600560019054906101000a900460ff161515146114c9576040517f08c379a00000000000000000000000000000000000000000000000000000000081526004018080602001828103825260298152602001806120e46029913960400191505060405180910390fd5b60008060019050600091505b600280549050821080156114e65750805b156116e9578273ffffffffffffffffffffffffffffffffffffffff166002838154811061150f57fe5b9060005260206000200160009054906101000a900473ffffffffffffffffffffffffffffffffffffffff1673ffffffffffffffffffffffffffffffffffffffff1614156116dc576002828154811061156357fe5b9060005260206000200160006101000a81549073ffffffffffffffffffffffffffffffffffffffff02191690556002600160028054905003815481106115a557fe5b9060005260206000200160009054906101000a900473ffffffffffffffffffffffffffffffffffffffff16600283815481106115dd57fe5b9060005260206000200160006101000a81548173ffffffffffffffffffffffffffffffffffffffff021916908373ffffffffffffffffffffffffffffffffffffffff160217905550600280548091906001900361163a9190611e6c565b50600090507f4d1919bd0df5ca6d4c1d352a1025604f2c4574dfbd41bdca5e526ade3062e8973360405180806020018373ffffffffffffffffffffffffffffffffffffffff1673ffffffffffffffffffffffffffffffffffffffff1681526020018281038252601c8152602001807f5468652077696e6e657220686173206265656e20657870656c6c6564000000008152506020019250505060405180910390a15b81806001019250506114d5565b505050565b6000600560009054906101000a900460ff16905090565b6060600160009054906101000a900473ffffffffffffffffffffffffffffffffffffffff1673ffffffffffffffffffffffffffffffffffffffff163373ffffffffffffffffffffffffffffffffffffffff16146117ad576040517f08c379a000000000000000000000000000000000000000000000000000000000815260040180806020018281038252602181526020018061209f6021913960400191505060405180910390fd5b60008054806020026020016040519081016040528092919081815260200182805480156117f957602002820191906000526020600020905b8154815260200190600101908083116117e5575b5050505050905090565b6000600160009054906101000a900473ffffffffffffffffffffffffffffffffffffffff16905090565b600160009054906101000a900473ffffffffffffffffffffffffffffffffffffffff1673ffffffffffffffffffffffffffffffffffffffff163373ffffffffffffffffffffffffffffffffffffffff16146118d3576040517f08c379a000000000000000000000000000000000000000000000000000000000815260040180806020018281038252602181526020018061209f6021913960400191505060405180910390fd5b80600160006101000a81548173ffffffffffffffffffffffffffffffffffffffff021916908373ffffffffffffffffffffffffffffffffffffffff1602179055507f4d1919bd0df5ca6d4c1d352a1025604f2c4574dfbd41bdca5e526ade3062e8973360405180806020018373ffffffffffffffffffffffffffffffffffffffff1673ffffffffffffffffffffffffffffffffffffffff168152602001828103825260248152602001806120c0602491396040019250505060405180910390a150565b60606003805480602002602001604051908101604052809291908181526020018280548015611a1a57602002820191906000526020600020905b8160009054906101000a900473ffffffffffffffffffffffffffffffffffffffff1673ffffffffffffffffffffffffffffffffffffffff16815260200190600101908083116119d0575b5050505050905090565b6000600454905090565b600160009054906101000a900473ffffffffffffffffffffffffffffffffffffffff1673ffffffffffffffffffffffffffffffffffffffff163373ffffffffffffffffffffffffffffffffffffffff1614611ad4576040517f08c379a000000000000000000000000000000000000000000000000000000000815260040180806020018281038252602181526020018061209f6021913960400191505060405180910390fd5b60003411611b4a576040517f08c379a00000000000000000000000000000000000000000000000000000000081526004018080602001828103825260128152602001807f5072697a652063616e206e6f742062652030000000000000000000000000000081525060200191505060405180910390fd5b600560009054906101000a900460ff1615611bb0576040517f08c379a000000000000000000000000000000000000000000000000000000000815260040180806020018281038252603a815260200180611f0b603a913960400191505060405180910390fd5b8060009080519060200190611bc6929190611e98565b506001600560006101000a81548160ff021916908315150217905550346004819055507f4d1919bd0df5ca6d4c1d352a1025604f2c4574dfbd41bdca5e526ade3062e8973360405180806020018373ffffffffffffffffffffffffffffffffffffffff1673ffffffffffffffffffffffffffffffffffffffff1681526020018281038252602681526020018061200b602691396040019250505060405180910390a150565b60606002805480602002602001604051908101604052809291908181526020018280548015611cef57602002820191906000526020600020905b8160009054906101000a900473ffffffffffffffffffffffffffffffffffffffff1673ffffffffffffffffffffffffffffffffffffffff1681526020019060010190808311611ca5575b5050505050905090565b6000600560019054906101000a900460ff16905090565b6000806000905060008080549050905060008090505b81811015611d755760008181548110611d3b57fe5b9060005260206000200154858281518110611d5257fe5b602002602001015114611d685782806001019350505b8080600101915050611d26565b508192505050919050565b6000806001905060008090505b60038054905081108015611d9e5750815b15611e20573373ffffffffffffffffffffffffffffffffffffffff1660038281548110611dc757fe5b9060005260206000200160009054906101000a900473ffffffffffffffffffffffffffffffffffffffff1673ffffffffffffffffffffffffffffffffffffffff161415611e1357600091505b8080600101915050611d8d565b5080915050919050565b5080546000825590600052602060002090810190611e489190611ee5565b50565b5080546000825590600052602060002090810190611e699190611ee5565b50565b815481835581811115611e9357818360005260206000209182019101611e929190611ee5565b5b505050565b828054828255906000526020600020908101928215611ed4579160200282015b82811115611ed3578251825591602001919060010190611eb8565b5b509050611ee19190611ee5565b5090565b611f0791905b80821115611f03576000816000905550600101611eeb565b5090565b9056fe596f752063616e206e6f7420637265617465206120636f6e74657374207768696c6520746865726520697320616e206f6e676f696e67206f6e65546865207072697a6520686173206265656e2073656e7420746f207468652077696e6e65722f7357652073686f756c642068617665206174206c65617374203120636f6e746573746572436f6e7465737420706572696f64206973206f7665722e2057696e6e6572732068617665206265656e2073656c656374656454686520636f6e7465737420686173206265656e20726573657420636f72726563746c7941646d696e206973206e6f7420616c6c6f77656420746f206265206120636f6e74657374657254686520636f6e7465737420686173206265656e206372656174656420636f72726563746c795468652077696e6e65722f73206861732f68617665206265656e2063616c63756c6174656420636f72726563746c79596f752063616e206e6f742072657365742074686520636f6e7465737420776974686f75742073656e64696e67207072697a6520746f2077696e6e65722f734f6e6c792061646d696e2063616e2063616c6c20746869732066756e6374696f6e5468652061646d696e20686173206265656e206368616e67656420636f72726563746c79546f6f206c6174652c20746865207072697a652068617320616c7265616479206265656e2073656e745468652064617461736574206c656e677468206973206e6f7420636f7272656374a265627a7a72315820111d88237233b3c993f3ef974695b7f014937c3386f9d82ed25797bb9ad2ce7364736f6c63430005100032",
  "source": "pragma solidity ^0.5.0;\n\ncontract DogsOrCats {\n\n  /* = = = = = = = VARIABLES & CONSTRUCTOR = = = = = = =*/\n  uint[] private solution;                    // Correct answer of the contest\n  address private admin;                      // Address of the contract Owner\n  address payable[] private winners;          // List of the winners of the contest\n  address payable[] private contesters;       // List of the contesters\n  uint private prize;                         // Prize amount (in Wei)\n  bool private status;                        // The contest is Active or Inactive\n  bool private prizeHasBeenSent;              // To check if the prize has been sent to winners\n  string private name;                        // Contest name\n  mapping(address => uint256) private users;  // All users of all contests\n\n  constructor () public{\n    admin = msg.sender;\n    prize = 0;\n    status = false;\n    prizeHasBeenSent = false;\n    name = \"Cats or Dogs Contest\";\n  }\n\n  modifier onlyAdmin {\n    require(msg.sender == admin, \"Only admin can call this function\");\n        _;\n  }\n\n  // - - - - Event - - - -\n  event Notification(string _notif, address _sender);\n\n/* = = = = = = = FUNCTIONS = = = = = = = */\n// - - - - Getters & Setters - - - -\nfunction setAdmin(address _newAdmin) public onlyAdmin{\n  admin = _newAdmin;\n  emit Notification(\"The admin has been changed correctly\", msg.sender);\n}\n\n\nfunction getSolution() public view onlyAdmin returns(uint[] memory){\n  return solution;\n}\nfunction getWinners() public view returns(address payable[] memory){\n  return winners;\n}\nfunction getAdmin() public view returns(address){\n  return admin;\n}\nfunction getPrize() public view returns(uint){\n  return prize;\n}\nfunction getContesters() public view returns(address payable[] memory){\n  return contesters;\n}\nfunction getPrizeHasBeenSent() public view returns(bool){\n  return prizeHasBeenSent;\n}\nfunction getStatus() public view returns(bool){\n  return status;\n}\nfunction getName() public view returns(string memory){\n  return name;\n}\n\n// - - - - - Admin - - - - -\n\n  function createContest(uint[] memory _solution) public payable onlyAdmin{\n    require(msg.value > 0, \"Prize can not be 0\");\n    require(!status, \"You can not create a contest while there is an ongoing one\");\n\n    solution = _solution;\n    status = true;\n    prize = msg.value;\n\n    emit Notification(\"The contest has been created correctly\", msg.sender);\n  }\n\n  function calculateWinners() public onlyAdmin{\n    require(contesters.length >= 1, \"We should have at least 1 contester\");\n\n    delete winners;\n    uint min = users[contesters[0]];\n    uint256 i;\n\n    // Obtain the minimum score\n    for(i = 1; i < contesters.length; i++){\n        if(users[contesters[i]] < min) {\n            min = users[contesters[i]];\n        }\n    }\n\n    // Obtain all contesters with minimum score\n    for(i = 0; i < contesters.length; i++){\n      if(users[contesters[i]] == min) {\n          winners.push(contesters[i]);\n      }\n    }\n\n    emit Notification(\"The winner/s has/have been calculated correctly\", msg.sender);\n  }\n\n  // If the contester cheated, it can be expelled\n  function expelWinner(address _winner) public onlyAdmin{\n    require(winners.length >= 1, \"We should have at least 1 winner\");\n    require(prizeHasBeenSent == false, \"Too late, the prize has already been sent\");\n\n    uint i;\n    bool flag = true;\n\n    for(i = 0; (i < winners.length) && flag; i++){\n      if(winners[i] == _winner) {\n        delete winners[i];\n        winners[i] = winners[winners.length - 1];\n        winners.length--;\n        flag = false;\n        emit Notification(\"The winner has been expelled\", msg.sender);\n      }\n    }\n  }\n\n  function sendPrizeToWinners() public payable onlyAdmin{\n    require(winners.length >= 1, \"We should have at least 1 winner\");\n    require(prizeHasBeenSent == false, \"The prize has already been sent\");\n\n    uint prizePerWinner = prize/winners.length;\n    uint i;\n\n    for(i = 0; i < winners.length; i++){\n      winners[i].transfer(prizePerWinner);\n    }\n\n    prizeHasBeenSent = true;\n    emit Notification(\"The prize has been sent to the winner/s\", msg.sender);\n  }\n\n  function resetContest() public onlyAdmin{\n    require(prizeHasBeenSent == true, \"You can not reset the contest without sending prize to winner/s\");\n\n    delete solution;\n    prize = 0;\n    delete winners;\n    delete contesters;\n    status = false;\n    prizeHasBeenSent = false;\n\n    emit Notification(\"The contest has been reset correctly\", msg.sender);\n  }\n\n\n// - - - - Contesters - - - -\n  function contest(uint[] memory _resul) public{\n    require(msg.sender != admin, \"Admin is not allowed to be a contester\");\n    require(winners.length == 0, \"Contest period is over. Winners have been selected\");\n    require(_resul.length == solution.length, \"The dataset length is not correct\");\n    require(status, \"The contest is not active\");\n\n    users[msg.sender] = obtainScore(_resul);\n    if(isFirstAttempt(msg.sender)){\n      contesters.push(msg.sender);\n    }\n\n    emit Notification(\"Your solution has been sent\", msg.sender);\n  }\n\n  // The lower the score, the better\n  function obtainScore(uint[] memory _resul) private view returns(uint256){\n    uint score = 0;\n    uint length = solution.length;\n\n    for(uint i=0; i<length; i++){\n      if (_resul[i] != solution[i]){\n        score++;\n      }\n    }\n\n    return score;\n  }\n\n  function isFirstAttempt(address) private view returns(bool){\n    bool resul = true;\n\n    for(uint i=0; i<contesters.length && resul; i++){\n      if(contesters[i] == msg.sender){\n        resul = false;\n      }\n    }\n\n    return resul;\n  }\n\n}\n",
  "sourcePath": "/home/pedro/TFG/contest/contracts/DogsOrCats.sol",
  "compiler": {
    "name": "solc",
    "version": "0.5.16+commit.9c3226ce.Emscripten.clang"
  },
  "schemaVersion": "3.3.4",
  "updatedAt": "2021-07-09T17:28:29.446Z",
  "networkType": "ethereum",
  "devdoc": {
    "methods": {}
  },
  "userdoc": {
    "methods": {}
  }
}