{
  "contractName": "DogsOrCats",
  "abi": [
    {
      "inputs": [],
      "payable": false,
      "stateMutability": "nonpayable",
      "type": "constructor"
    },
    {
      "anonymous": false,
      "inputs": [
        {
          "indexed": false,
          "internalType": "string",
          "name": "_notif",
          "type": "string"
        },
        {
          "indexed": false,
          "internalType": "address",
          "name": "_sender",
          "type": "address"
        }
      ],
      "name": "Notification",
      "type": "event"
    },
    {
      "constant": false,
      "inputs": [
        {
          "internalType": "address",
          "name": "_newAdmin",
          "type": "address"
        }
      ],
      "name": "setAdmin",
      "outputs": [],
      "payable": false,
      "stateMutability": "nonpayable",
      "type": "function"
    },
    {
      "constant": false,
      "inputs": [
        {
          "internalType": "string",
          "name": "_name",
          "type": "string"
        }
      ],
      "name": "setName",
      "outputs": [],
      "payable": false,
      "stateMutability": "nonpayable",
      "type": "function"
    },
    {
      "constant": true,
      "inputs": [],
      "name": "getWinners",
      "outputs": [
        {
          "internalType": "address payable[]",
          "name": "",
          "type": "address[]"
        }
      ],
      "payable": false,
      "stateMutability": "view",
      "type": "function"
    },
    {
      "constant": true,
      "inputs": [],
      "name": "getSolution",
      "outputs": [
        {
          "internalType": "uint256[]",
          "name": "",
          "type": "uint256[]"
        }
      ],
      "payable": false,
      "stateMutability": "view",
      "type": "function"
    },
    {
      "constant": true,
      "inputs": [],
      "name": "getAdmin",
      "outputs": [
        {
          "internalType": "address",
          "name": "",
          "type": "address"
        }
      ],
      "payable": false,
      "stateMutability": "view",
      "type": "function"
    },
    {
      "constant": true,
      "inputs": [],
      "name": "getPrize",
      "outputs": [
        {
          "internalType": "uint256",
          "name": "",
          "type": "uint256"
        }
      ],
      "payable": false,
      "stateMutability": "view",
      "type": "function"
    },
    {
      "constant": true,
      "inputs": [],
      "name": "getContesters",
      "outputs": [
        {
          "internalType": "address payable[]",
          "name": "",
          "type": "address[]"
        }
      ],
      "payable": false,
      "stateMutability": "view",
      "type": "function"
    },
    {
      "constant": true,
      "inputs": [],
      "name": "getPrizeHasBeenSent",
      "outputs": [
        {
          "internalType": "bool",
          "name": "",
          "type": "bool"
        }
      ],
      "payable": false,
      "stateMutability": "view",
      "type": "function"
    },
    {
      "constant": true,
      "inputs": [],
      "name": "getStatus",
      "outputs": [
        {
          "internalType": "bool",
          "name": "",
          "type": "bool"
        }
      ],
      "payable": false,
      "stateMutability": "view",
      "type": "function"
    },
    {
      "constant": true,
      "inputs": [],
      "name": "getName",
      "outputs": [
        {
          "internalType": "string",
          "name": "",
          "type": "string"
        }
      ],
      "payable": false,
      "stateMutability": "view",
      "type": "function"
    },
    {
      "constant": false,
      "inputs": [
        {
          "internalType": "uint256[]",
          "name": "_solution",
          "type": "uint256[]"
        }
      ],
      "name": "createContest",
      "outputs": [],
      "payable": true,
      "stateMutability": "payable",
      "type": "function"
    },
    {
      "constant": false,
      "inputs": [],
      "name": "calculateWinners",
      "outputs": [],
      "payable": false,
      "stateMutability": "nonpayable",
      "type": "function"
    },
    {
      "constant": false,
      "inputs": [],
      "name": "sendPrizeToWinners",
      "outputs": [],
      "payable": true,
      "stateMutability": "payable",
      "type": "function"
    },
    {
      "constant": false,
      "inputs": [],
      "name": "resetContest",
      "outputs": [],
      "payable": false,
      "stateMutability": "nonpayable",
      "type": "function"
    },
    {
      "constant": false,
      "inputs": [
        {
          "internalType": "uint256[]",
          "name": "_resul",
          "type": "uint256[]"
        }
      ],
      "name": "contest",
      "outputs": [],
      "payable": false,
      "stateMutability": "nonpayable",
      "type": "function"
    }
  ],
  "bytecode": "0x60806040523480156200001157600080fd5b5033600160006101000a81548173ffffffffffffffffffffffffffffffffffffffff021916908373ffffffffffffffffffffffffffffffffffffffff16021790555060006004819055506000600560006101000a81548160ff0219169083151502179055506000600560016101000a81548160ff0219169083151502179055506040518060400160405280601481526020017f43617473206f7220446f677320436f6e7465737400000000000000000000000081525060069080519060200190620000de929190620000e5565b5062000194565b828054600181600116156101000203166002900490600052602060002090601f016020900481019282601f106200012857805160ff191683800117855562000159565b8280016001018555821562000159579182015b82811115620001585782518255916020019190600101906200013b565b5b5090506200016891906200016c565b5090565b6200019191905b808211156200018d57600081600090555060010162000173565b5090565b90565b611f0080620001a46000396000f3fe6080604052600436106100e85760003560e01c80636e9960c31161008a578063c47f002711610059578063c47f002714610454578063cb65905c1461051c578063df15c37e146105d4578063fe0563b914610640576100e8565b80636e9960c314610315578063704b6c021461036c5780638db8aa7a146103bd578063c34f6b0d14610429576100e8565b8063279f2417116100c6578063279f2417146101ab578063404f874f146102705780634e69d5601461027a57806350592adf146102a9576100e8565b8063011bc2e1146100ed57806312a4d5b61461010457806317d7de7c1461011b575b600080fd5b3480156100f957600080fd5b5061010261066f565b005b34801561011057600080fd5b50610119610ac7565b005b34801561012757600080fd5b50610130610ca6565b6040518080602001828103825283818151815260200191508051906020019080838360005b83811015610170578082015181840152602081019050610155565b50505050905090810190601f16801561019d5780820380516001836020036101000a031916815260200191505b509250505060405180910390f35b3480156101b757600080fd5b5061026e600480360360208110156101ce57600080fd5b81019080803590602001906401000000008111156101eb57600080fd5b8201836020820111156101fd57600080fd5b8035906020019184602083028401116401000000008311171561021f57600080fd5b919080806020026020016040519081016040528093929190818152602001838360200280828437600081840152601f19601f820116905080830192505050505050509192919290505050610d48565b005b61027861102f565b005b34801561028657600080fd5b5061028f61132b565b604051808215151515815260200191505060405180910390f35b3480156102b557600080fd5b506102be611342565b6040518080602001828103825283818151815260200191508051906020019060200280838360005b838110156103015780820151818401526020810190506102e6565b505050509050019250505060405180910390f35b34801561032157600080fd5b5061032a611440565b604051808273ffffffffffffffffffffffffffffffffffffffff1673ffffffffffffffffffffffffffffffffffffffff16815260200191505060405180910390f35b34801561037857600080fd5b506103bb6004803603602081101561038f57600080fd5b81019080803573ffffffffffffffffffffffffffffffffffffffff16906020019092919050505061146a565b005b3480156103c957600080fd5b506103d26115d3565b6040518080602001828103825283818151815260200191508051906020019060200280838360005b838110156104155780820151818401526020810190506103fa565b505050509050019250505060405180910390f35b34801561043557600080fd5b5061043e611661565b6040518082815260200191505060405180910390f35b34801561046057600080fd5b5061051a6004803603602081101561047757600080fd5b810190808035906020019064010000000081111561049457600080fd5b8201836020820111156104a657600080fd5b803590602001918460018302840111640100000000831117156104c857600080fd5b91908080601f016020809104026020016040519081016040528093929190818152602001838380828437600081840152601f19601f82011690508083019250505050505050919291929050505061166b565b005b6105d26004803603602081101561053257600080fd5b810190808035906020019064010000000081111561054f57600080fd5b82018360208201111561056157600080fd5b8035906020019184602083028401116401000000008311171561058357600080fd5b919080806020026020016040519081016040528093929190818152602001838360200280828437600081840152601f19601f8201169050808301925050505050505091929192905050506117aa565b005b3480156105e057600080fd5b506105e9611981565b6040518080602001828103825283818151815260200191508051906020019060200280838360005b8381101561062c578082015181840152602081019050610611565b505050509050019250505060405180910390f35b34801561064c57600080fd5b50610655611ab5565b604051808215151515815260200191505060405180910390f35b600160009054906101000a900473ffffffffffffffffffffffffffffffffffffffff1673ffffffffffffffffffffffffffffffffffffffff163373ffffffffffffffffffffffffffffffffffffffff1614610715576040517f08c379a0000000000000000000000000000000000000000000000000000000008152600401808060200182810382526021815260200180611e666021913960400191505060405180910390fd5b60016003805490501015610774576040517f08c379a0000000000000000000000000000000000000000000000000000000008152600401808060200182810382526023815260200180611d656023913960400191505060405180910390fd5b600060076000600360008154811061078857fe5b9060005260206000200160009054906101000a900473ffffffffffffffffffffffffffffffffffffffff1673ffffffffffffffffffffffffffffffffffffffff1673ffffffffffffffffffffffffffffffffffffffff1681526020019081526020016000205490506000600190505b6003805490508110156109095781600760006003848154811061081657fe5b9060005260206000200160009054906101000a900473ffffffffffffffffffffffffffffffffffffffff1673ffffffffffffffffffffffffffffffffffffffff1673ffffffffffffffffffffffffffffffffffffffff1681526020019081526020016000205410156108fc57600760006003838154811061089357fe5b9060005260206000200160009054906101000a900473ffffffffffffffffffffffffffffffffffffffff1673ffffffffffffffffffffffffffffffffffffffff1673ffffffffffffffffffffffffffffffffffffffff1681526020019081526020016000205491505b80806001019150506107f7565b600090505b600380549050811015610a445781600760006003848154811061092d57fe5b9060005260206000200160009054906101000a900473ffffffffffffffffffffffffffffffffffffffff1673ffffffffffffffffffffffffffffffffffffffff1673ffffffffffffffffffffffffffffffffffffffff168152602001908152602001600020541415610a37576002600382815481106109a857fe5b9060005260206000200160009054906101000a900473ffffffffffffffffffffffffffffffffffffffff1690806001815401808255809150509060018203906000526020600020016000909192909190916101000a81548173ffffffffffffffffffffffffffffffffffffffff021916908373ffffffffffffffffffffffffffffffffffffffff160217905550505b808060010191505061090e565b7f4d1919bd0df5ca6d4c1d352a1025604f2c4574dfbd41bdca5e526ade3062e8973360405180806020018373ffffffffffffffffffffffffffffffffffffffff1673ffffffffffffffffffffffffffffffffffffffff1681526020018281038252602f815260200180611df8602f91396040019250505060405180910390a15050565b600160009054906101000a900473ffffffffffffffffffffffffffffffffffffffff1673ffffffffffffffffffffffffffffffffffffffff163373ffffffffffffffffffffffffffffffffffffffff1614610b6d576040517f08c379a0000000000000000000000000000000000000000000000000000000008152600401808060200182810382526021815260200180611e666021913960400191505060405180910390fd5b60011515600560019054906101000a900460ff16151514610bd9576040517f08c379a000000000000000000000000000000000000000000000000000000000815260040180806020018281038252603f815260200180611e27603f913960400191505060405180910390fd5b600080610be69190611be6565b600060048190555060026000610bfc9190611c07565b60036000610c0a9190611c07565b6000600560006101000a81548160ff0219169083151502179055507f4d1919bd0df5ca6d4c1d352a1025604f2c4574dfbd41bdca5e526ade3062e8973360405180806020018373ffffffffffffffffffffffffffffffffffffffff1673ffffffffffffffffffffffffffffffffffffffff16815260200182810382526024815260200180611d88602491396040019250505060405180910390a1565b606060068054600181600116156101000203166002900480601f016020809104026020016040519081016040528092919081815260200182805460018160011615610100020316600290048015610d3e5780601f10610d1357610100808354040283529160200191610d3e565b820191906000526020600020905b815481529060010190602001808311610d2157829003601f168201915b5050505050905090565b600160009054906101000a900473ffffffffffffffffffffffffffffffffffffffff1673ffffffffffffffffffffffffffffffffffffffff163373ffffffffffffffffffffffffffffffffffffffff161415610def576040517f08c379a0000000000000000000000000000000000000000000000000000000008152600401808060200182810382526026815260200180611dac6026913960400191505060405180910390fd5b600080549050815114610e4d576040517f08c379a0000000000000000000000000000000000000000000000000000000008152600401808060200182810382526021815260200180611eab6021913960400191505060405180910390fd5b600560009054906101000a900460ff16610ecf576040517f08c379a00000000000000000000000000000000000000000000000000000000081526004018080602001828103825260198152602001807f54686520636f6e74657374206973206e6f74206163746976650000000000000081525060200191505060405180910390fd5b610ed881611acc565b600760003373ffffffffffffffffffffffffffffffffffffffff1673ffffffffffffffffffffffffffffffffffffffff16815260200190815260200160002081905550610f2433611b3c565b15610f905760033390806001815401808255809150509060018203906000526020600020016000909192909190916101000a81548173ffffffffffffffffffffffffffffffffffffffff021916908373ffffffffffffffffffffffffffffffffffffffff160217905550505b7f4d1919bd0df5ca6d4c1d352a1025604f2c4574dfbd41bdca5e526ade3062e8973360405180806020018373ffffffffffffffffffffffffffffffffffffffff1673ffffffffffffffffffffffffffffffffffffffff1681526020018281038252601b8152602001807f596f757220736f6c7574696f6e20686173206265656e2073656e7400000000008152506020019250505060405180910390a150565b600160009054906101000a900473ffffffffffffffffffffffffffffffffffffffff1673ffffffffffffffffffffffffffffffffffffffff163373ffffffffffffffffffffffffffffffffffffffff16146110d5576040517f08c379a0000000000000000000000000000000000000000000000000000000008152600401808060200182810382526021815260200180611e666021913960400191505060405180910390fd5b60016002805490501015611151576040517f08c379a00000000000000000000000000000000000000000000000000000000081526004018080602001828103825260208152602001807f57652073686f756c642068617665206174206c6561737420312077696e6e657281525060200191505060405180910390fd5b60001515600560019054906101000a900460ff161515146111da576040517f08c379a000000000000000000000000000000000000000000000000000000000815260040180806020018281038252601f8152602001807f546865207072697a652068617320616c7265616479206265656e2073656e740081525060200191505060405180910390fd5b6000600280549050600454816111ec57fe5b04905060008090505b60028054905081101561128d576002818154811061120f57fe5b9060005260206000200160009054906101000a900473ffffffffffffffffffffffffffffffffffffffff1673ffffffffffffffffffffffffffffffffffffffff166108fc839081150290604051600060405180830381858888f1935050505015801561127f573d6000803e3d6000fd5b5080806001019150506111f5565b6001600560016101000a81548160ff0219169083151502179055507f4d1919bd0df5ca6d4c1d352a1025604f2c4574dfbd41bdca5e526ade3062e8973360405180806020018373ffffffffffffffffffffffffffffffffffffffff1673ffffffffffffffffffffffffffffffffffffffff16815260200182810382526027815260200180611d3e602791396040019250505060405180910390a15050565b6000600560009054906101000a900460ff16905090565b6060600160009054906101000a900473ffffffffffffffffffffffffffffffffffffffff1673ffffffffffffffffffffffffffffffffffffffff163373ffffffffffffffffffffffffffffffffffffffff16146113ea576040517f08c379a0000000000000000000000000000000000000000000000000000000008152600401808060200182810382526021815260200180611e666021913960400191505060405180910390fd5b600080548060200260200160405190810160405280929190818152602001828054801561143657602002820191906000526020600020905b815481526020019060010190808311611422575b5050505050905090565b6000600160009054906101000a900473ffffffffffffffffffffffffffffffffffffffff16905090565b600160009054906101000a900473ffffffffffffffffffffffffffffffffffffffff1673ffffffffffffffffffffffffffffffffffffffff163373ffffffffffffffffffffffffffffffffffffffff1614611510576040517f08c379a0000000000000000000000000000000000000000000000000000000008152600401808060200182810382526021815260200180611e666021913960400191505060405180910390fd5b80600160006101000a81548173ffffffffffffffffffffffffffffffffffffffff021916908373ffffffffffffffffffffffffffffffffffffffff1602179055507f4d1919bd0df5ca6d4c1d352a1025604f2c4574dfbd41bdca5e526ade3062e8973360405180806020018373ffffffffffffffffffffffffffffffffffffffff1673ffffffffffffffffffffffffffffffffffffffff16815260200182810382526024815260200180611e87602491396040019250505060405180910390a150565b6060600380548060200260200160405190810160405280929190818152602001828054801561165757602002820191906000526020600020905b8160009054906101000a900473ffffffffffffffffffffffffffffffffffffffff1673ffffffffffffffffffffffffffffffffffffffff168152602001906001019080831161160d575b5050505050905090565b6000600454905090565b600160009054906101000a900473ffffffffffffffffffffffffffffffffffffffff1673ffffffffffffffffffffffffffffffffffffffff163373ffffffffffffffffffffffffffffffffffffffff1614611711576040517f08c379a0000000000000000000000000000000000000000000000000000000008152600401808060200182810382526021815260200180611e666021913960400191505060405180910390fd5b8060069080519060200190611727929190611c28565b507f4d1919bd0df5ca6d4c1d352a1025604f2c4574dfbd41bdca5e526ade3062e8973360405180806020018373ffffffffffffffffffffffffffffffffffffffff1673ffffffffffffffffffffffffffffffffffffffff16815260200182810382526023815260200180611d1b602391396040019250505060405180910390a150565b600160009054906101000a900473ffffffffffffffffffffffffffffffffffffffff1673ffffffffffffffffffffffffffffffffffffffff163373ffffffffffffffffffffffffffffffffffffffff1614611850576040517f08c379a0000000000000000000000000000000000000000000000000000000008152600401808060200182810382526021815260200180611e666021913960400191505060405180910390fd5b600034116118c6576040517f08c379a00000000000000000000000000000000000000000000000000000000081526004018080602001828103825260128152602001807f5072697a652063616e206e6f742062652030000000000000000000000000000081525060200191505060405180910390fd5b80600090805190602001906118dc929190611ca8565b506001600560006101000a81548160ff021916908315150217905550346004819055507f4d1919bd0df5ca6d4c1d352a1025604f2c4574dfbd41bdca5e526ade3062e8973360405180806020018373ffffffffffffffffffffffffffffffffffffffff1673ffffffffffffffffffffffffffffffffffffffff16815260200182810382526026815260200180611dd2602691396040019250505060405180910390a150565b6060600160009054906101000a900473ffffffffffffffffffffffffffffffffffffffff1673ffffffffffffffffffffffffffffffffffffffff163373ffffffffffffffffffffffffffffffffffffffff1614611a29576040517f08c379a0000000000000000000000000000000000000000000000000000000008152600401808060200182810382526021815260200180611e666021913960400191505060405180910390fd5b6002805480602002602001604051908101604052809291908181526020018280548015611aab57602002820191906000526020600020905b8160009054906101000a900473ffffffffffffffffffffffffffffffffffffffff1673ffffffffffffffffffffffffffffffffffffffff1681526020019060010190808311611a61575b5050505050905090565b6000600560019054906101000a900460ff16905090565b6000806000905060008080549050905060008090505b81811015611b315760008181548110611af757fe5b9060005260206000200154858281518110611b0e57fe5b602002602001015114611b245782806001019350505b8080600101915050611ae2565b508192505050919050565b6000806001905060008090505b60038054905081108015611b5a5750815b15611bdc573373ffffffffffffffffffffffffffffffffffffffff1660038281548110611b8357fe5b9060005260206000200160009054906101000a900473ffffffffffffffffffffffffffffffffffffffff1673ffffffffffffffffffffffffffffffffffffffff161415611bcf57600091505b8080600101915050611b49565b5080915050919050565b5080546000825590600052602060002090810190611c049190611cf5565b50565b5080546000825590600052602060002090810190611c259190611cf5565b50565b828054600181600116156101000203166002900490600052602060002090601f016020900481019282601f10611c6957805160ff1916838001178555611c97565b82800160010185558215611c97579182015b82811115611c96578251825591602001919060010190611c7b565b5b509050611ca49190611cf5565b5090565b828054828255906000526020600020908101928215611ce4579160200282015b82811115611ce3578251825591602001919060010190611cc8565b5b509050611cf19190611cf5565b5090565b611d1791905b80821115611d13576000816000905550600101611cfb565b5090565b9056fe546865206e616d6520686173206265656e206368616e67656420636f72726563746c79546865207072697a6520686173206265656e2073656e7420746f207468652077696e6e65722f7357652073686f756c642068617665206174206c65617374203120636f6e74657374657254686520636f6e7465737420686173206265656e20726573657420636f72726563746c7941646d696e206973206e6f7420616c6c6f77656420746f206265206120636f6e74657374657254686520636f6e7465737420686173206265656e206372656174656420636f72726563746c795468652077696e6e65722f73206861732f68617665206265656e2063616c63756c6174656420636f72726563746c79596f752063616e206e6f742072657365742074686520636f6e7465737420776974686f75742073656e64696e67207072697a6520746f2077696e6e65722f734f6e6c792061646d696e2063616e2063616c6c20746869732066756e6374696f6e5468652061646d696e20686173206265656e206368616e67656420636f72726563746c795468652064617461736574206c656e677468206973206e6f7420636f7272656374a265627a7a72315820a5bb4f0d7534b4e674764b2eb9e9e3c4fbe3424a4e0a405e057fa877cdd4516f64736f6c63430005100032",
  "source": "pragma solidity ^0.5.0;\n\ncontract DogsOrCats {\n\n  /* = = = = = = = VARIABLES & CONSTRUCTOR = = = = = = =*/\n  //State variables -> Permanently saved in the contract\n  uint[] private solution;\n  address private admin;\n  address payable[] private winners;\n  address payable[] private contesters;\n  uint private prize;\n  bool private status;\n  bool private prizeHasBeenSent;\n  string private name;\n  mapping(address => uint256) private users;\n\n  constructor () public{\n    admin = msg.sender;\n    prize = 0;\n    status = false;\n    prizeHasBeenSent = false;\n    name = \"Cats or Dogs Contest\";\n  }\n\n  modifier onlyAdmin {\n    require(msg.sender == admin, \"Only admin can call this function\");\n        _;\n  }\n\n  // - - - - Event - - - -\n  event Notification(string _notif, address _sender);\n/* = = = = = = = FUNCTIONS = = = = = = = */\n// - - - - Getters & Setters - - - -\nfunction setAdmin(address _newAdmin) public onlyAdmin{\n  admin = _newAdmin;\n  emit Notification(\"The admin has been changed correctly\", msg.sender);\n}\nfunction setName(string memory _name) public onlyAdmin{\n  name = _name;\n  emit Notification(\"The name has been changed correctly\", msg.sender);\n}\n\nfunction getWinners() public view onlyAdmin returns(address payable[] memory){\n  return winners;\n}\nfunction getSolution() public view onlyAdmin returns(uint[] memory){\n  return solution;\n}\nfunction getAdmin() public view returns(address){\n  return admin;\n}\nfunction getPrize() public view returns(uint){\n  return prize;\n}\nfunction getContesters() public view returns(address payable[] memory){\n  return contesters;\n}\nfunction getPrizeHasBeenSent() public view returns(bool){\n  return prizeHasBeenSent;\n}\nfunction getStatus() public view returns(bool){\n  return status;\n}\nfunction getName() public view returns(string memory){\n  return name;\n}\n\n// - - - - - Admin - - - - -\n\n  function createContest(uint[] memory _solution) public payable onlyAdmin{\n    require(msg.value > 0, \"Prize can not be 0\");\n\n    solution = _solution;\n    status = true;\n    prize = msg.value;\n\n    emit Notification(\"The contest has been created correctly\", msg.sender);\n  }\n\n  function calculateWinners() public onlyAdmin{\n    require(contesters.length >= 1, \"We should have at least 1 contester\");\n\n    uint min = users[contesters[0]];\n    uint256 i;\n\n    // Obtain the minimum score\n    for(i = 1; i < contesters.length; i++){\n        if(users[contesters[i]] < min) {\n            min = users[contesters[i]];\n        }\n    }\n\n    // Obtain all contesters with minimum score\n    for(i = 0; i < contesters.length; i++){\n      if(users[contesters[i]] == min) {\n          winners.push(contesters[i]);\n      }\n    }\n\n    emit Notification(\"The winner/s has/have been calculated correctly\", msg.sender);\n  }\n\n  function sendPrizeToWinners() public payable onlyAdmin{\n    require(winners.length >= 1, \"We should have at least 1 winner\");\n    require(prizeHasBeenSent == false, \"The prize has already been sent\");\n\n    uint prizePerWinner = prize/winners.length;\n    uint i;\n\n    for(i = 0; i < winners.length; i++){\n      winners[i].transfer(prizePerWinner);\n    }\n\n    prizeHasBeenSent = true;\n    emit Notification(\"The prize has been sent to the winner/s\", msg.sender);\n  }\n\n  // - - - - - - - Reset Contest - - - - - - - -\n  function resetContest() public onlyAdmin{\n    require(prizeHasBeenSent == true, \"You can not reset the contest without sending prize to winner/s\");\n\n    delete solution;\n    prize = 0;\n    delete winners;\n    delete contesters;\n    status = false;\n\n    emit Notification(\"The contest has been reset correctly\", msg.sender);\n  }\n\n\n// - - - - Participants - - - -\n  function contest(uint[] memory _resul) public{\n    require(msg.sender != admin, \"Admin is not allowed to be a contester\");\n    require(_resul.length == solution.length, \"The dataset length is not correct\");\n    require(status, \"The contest is not active\");\n\n    users[msg.sender] = obtainScore(_resul);\n    if(isFirstAttempt(msg.sender)){\n      contesters.push(msg.sender);\n    }\n\n    emit Notification(\"Your solution has been sent\", msg.sender);\n  }\n\n  function obtainScore(uint[] memory _resul) private view returns(uint256){\n\n    uint score = 0;\n    uint length = solution.length;\n\n    for(uint i=0; i<length; i++){\n      if (_resul[i] != solution[i]){\n        score++;\n      }\n    }\n\n    return score;\n  }\n\n  function isFirstAttempt(address) private view returns(bool){\n    bool resul = true;\n\n    for(uint i=0; i<contesters.length && resul; i++){\n      if(contesters[i] == msg.sender){\n        resul = false;\n      }\n    }\n\n    return resul;\n  }\n\n}\n",
  "sourcePath": "/home/pedro/TFG/challenge/contracts/DogsOrCats.sol",
  "compiler": {
    "name": "solc",
    "version": "0.5.16+commit.9c3226ce.Emscripten.clang"
  },
  "schemaVersion": "3.3.4",
  "updatedAt": "2021-07-03T20:19:00.207Z",
  "networkType": "ethereum",
  "devdoc": {
    "methods": {}
  },
  "userdoc": {
    "methods": {}
  }
}