{
  "contractName": "DogsOrCats",
  "abi": [
    {
      "inputs": [],
      "payable": false,
      "stateMutability": "nonpayable",
      "type": "constructor"
    },
    {
      "anonymous": false,
      "inputs": [
        {
          "indexed": false,
          "internalType": "string",
          "name": "_notif",
          "type": "string"
        }
      ],
      "name": "Notification",
      "type": "event"
    },
    {
      "constant": true,
      "inputs": [],
      "name": "name",
      "outputs": [
        {
          "internalType": "string",
          "name": "",
          "type": "string"
        }
      ],
      "payable": false,
      "stateMutability": "view",
      "type": "function"
    },
    {
      "constant": true,
      "inputs": [],
      "name": "prize",
      "outputs": [
        {
          "internalType": "uint256",
          "name": "",
          "type": "uint256"
        }
      ],
      "payable": false,
      "stateMutability": "view",
      "type": "function"
    },
    {
      "constant": true,
      "inputs": [],
      "name": "prizeHasBeenSent",
      "outputs": [
        {
          "internalType": "bool",
          "name": "",
          "type": "bool"
        }
      ],
      "payable": false,
      "stateMutability": "view",
      "type": "function"
    },
    {
      "constant": true,
      "inputs": [],
      "name": "status",
      "outputs": [
        {
          "internalType": "bool",
          "name": "",
          "type": "bool"
        }
      ],
      "payable": false,
      "stateMutability": "view",
      "type": "function"
    },
    {
      "constant": true,
      "inputs": [
        {
          "internalType": "address",
          "name": "",
          "type": "address"
        }
      ],
      "name": "users",
      "outputs": [
        {
          "internalType": "uint256",
          "name": "",
          "type": "uint256"
        }
      ],
      "payable": false,
      "stateMutability": "view",
      "type": "function"
    },
    {
      "constant": false,
      "inputs": [
        {
          "internalType": "address",
          "name": "_newAdmin",
          "type": "address"
        }
      ],
      "name": "setAdmin",
      "outputs": [],
      "payable": false,
      "stateMutability": "nonpayable",
      "type": "function"
    },
    {
      "constant": false,
      "inputs": [
        {
          "internalType": "string",
          "name": "_name",
          "type": "string"
        }
      ],
      "name": "setName",
      "outputs": [],
      "payable": false,
      "stateMutability": "nonpayable",
      "type": "function"
    },
    {
      "constant": true,
      "inputs": [],
      "name": "getAdmin",
      "outputs": [
        {
          "internalType": "address",
          "name": "",
          "type": "address"
        }
      ],
      "payable": false,
      "stateMutability": "view",
      "type": "function"
    },
    {
      "constant": true,
      "inputs": [],
      "name": "getSolution",
      "outputs": [
        {
          "internalType": "uint256[]",
          "name": "",
          "type": "uint256[]"
        }
      ],
      "payable": false,
      "stateMutability": "view",
      "type": "function"
    },
    {
      "constant": true,
      "inputs": [],
      "name": "getPrize",
      "outputs": [
        {
          "internalType": "uint256",
          "name": "",
          "type": "uint256"
        }
      ],
      "payable": false,
      "stateMutability": "view",
      "type": "function"
    },
    {
      "constant": true,
      "inputs": [],
      "name": "getWinners",
      "outputs": [
        {
          "internalType": "address payable[]",
          "name": "",
          "type": "address[]"
        }
      ],
      "payable": false,
      "stateMutability": "view",
      "type": "function"
    },
    {
      "constant": true,
      "inputs": [],
      "name": "getStatus",
      "outputs": [
        {
          "internalType": "bool",
          "name": "",
          "type": "bool"
        }
      ],
      "payable": false,
      "stateMutability": "view",
      "type": "function"
    },
    {
      "constant": true,
      "inputs": [],
      "name": "getName",
      "outputs": [
        {
          "internalType": "string",
          "name": "",
          "type": "string"
        }
      ],
      "payable": false,
      "stateMutability": "view",
      "type": "function"
    },
    {
      "constant": false,
      "inputs": [
        {
          "internalType": "uint256[]",
          "name": "_solution",
          "type": "uint256[]"
        }
      ],
      "name": "createContest",
      "outputs": [],
      "payable": true,
      "stateMutability": "payable",
      "type": "function"
    },
    {
      "constant": false,
      "inputs": [],
      "name": "calculateWinners",
      "outputs": [],
      "payable": false,
      "stateMutability": "nonpayable",
      "type": "function"
    },
    {
      "constant": false,
      "inputs": [],
      "name": "sendPrizeToWinners",
      "outputs": [],
      "payable": true,
      "stateMutability": "payable",
      "type": "function"
    },
    {
      "constant": false,
      "inputs": [],
      "name": "resetContest",
      "outputs": [],
      "payable": false,
      "stateMutability": "nonpayable",
      "type": "function"
    },
    {
      "constant": false,
      "inputs": [
        {
          "internalType": "uint256[]",
          "name": "_resul",
          "type": "uint256[]"
        }
      ],
      "name": "contest",
      "outputs": [],
      "payable": false,
      "stateMutability": "nonpayable",
      "type": "function"
    }
  ],
  "bytecode": "0x60806040523480156200001157600080fd5b5033600160006101000a81548173ffffffffffffffffffffffffffffffffffffffff021916908373ffffffffffffffffffffffffffffffffffffffff16021790555060006004819055506000600560006101000a81548160ff0219169083151502179055506000600560016101000a81548160ff0219169083151502179055506040518060400160405280601481526020017f43617473206f7220446f677320436f6e7465737400000000000000000000000081525060069080519060200190620000de929190620000e5565b5062000194565b828054600181600116156101000203166002900490600052602060002090601f016020900481019282601f106200012857805160ff191683800117855562000159565b8280016001018555821562000159579182015b82811115620001585782518255916020019190600101906200013b565b5b5090506200016891906200016c565b5090565b6200019191905b808211156200018d57600081600090555060010162000173565b5090565b90565b611aff80620001a46000396000f3fe6080604052600436106101095760003560e01c80636e9960c311610095578063c34f6b0d11610064578063c34f6b0d14610531578063c47f00271461055c578063cb65905c14610624578063df15c37e146106dc578063e3ac5d261461074857610109565b80636e9960c3146103f5578063704b6c021461044c578063a87430ba1461049d578063bbad0e391461050257610109565b8063200d2ed2116100dc578063200d2ed21461025c578063279f24171461028b578063404f874f146103505780634e69d5601461035a57806350592adf1461038957610109565b8063011bc2e11461010e57806306fdde031461012557806312a4d5b6146101b557806317d7de7c146101cc575b600080fd5b34801561011a57600080fd5b50610123610773565b005b34801561013157600080fd5b5061013a610b97565b6040518080602001828103825283818151815260200191508051906020019080838360005b8381101561017a57808201518184015260208101905061015f565b50505050905090810190601f1680156101a75780820380516001836020036101000a031916815260200191505b509250505060405180910390f35b3480156101c157600080fd5b506101ca610c35565b005b3480156101d857600080fd5b506101e1610de0565b6040518080602001828103825283818151815260200191508051906020019080838360005b83811015610221578082015181840152602081019050610206565b50505050905090810190601f16801561024e5780820380516001836020036101000a031916815260200191505b509250505060405180910390f35b34801561026857600080fd5b50610271610e82565b604051808215151515815260200191505060405180910390f35b34801561029757600080fd5b5061034e600480360360208110156102ae57600080fd5b81019080803590602001906401000000008111156102cb57600080fd5b8201836020820111156102dd57600080fd5b803590602001918460208302840111640100000000831117156102ff57600080fd5b919080806020026020016040519081016040528093929190818152602001838360200280828437600081840152601f19601f820116905080830192505050505050509192919290505050610e95565b005b610358610fa8565b005b34801561036657600080fd5b5061036f6111e7565b604051808215151515815260200191505060405180910390f35b34801561039557600080fd5b5061039e6111fe565b6040518080602001828103825283818151815260200191508051906020019060200280838360005b838110156103e15780820151818401526020810190506103c6565b505050509050019250505060405180910390f35b34801561040157600080fd5b5061040a6112fc565b604051808273ffffffffffffffffffffffffffffffffffffffff1673ffffffffffffffffffffffffffffffffffffffff16815260200191505060405180910390f35b34801561045857600080fd5b5061049b6004803603602081101561046f57600080fd5b81019080803573ffffffffffffffffffffffffffffffffffffffff169060200190929190505050611326565b005b3480156104a957600080fd5b506104ec600480360360208110156104c057600080fd5b81019080803573ffffffffffffffffffffffffffffffffffffffff169060200190929190505050611410565b6040518082815260200191505060405180910390f35b34801561050e57600080fd5b50610517611428565b604051808215151515815260200191505060405180910390f35b34801561053d57600080fd5b5061054661143b565b6040518082815260200191505060405180910390f35b34801561056857600080fd5b506106226004803603602081101561057f57600080fd5b810190808035906020019064010000000081111561059c57600080fd5b8201836020820111156105ae57600080fd5b803590602001918460018302840111640100000000831117156105d057600080fd5b91908080601f016020809104026020016040519081016040528093929190818152602001838380828437600081840152601f19601f820116905080830192505050505050509192919290505050611445565b005b6106da6004803603602081101561063a57600080fd5b810190808035906020019064010000000081111561065757600080fd5b82018360208201111561066957600080fd5b8035906020019184602083028401116401000000008311171561068b57600080fd5b919080806020026020016040519081016040528093929190818152602001838360200280828437600081840152601f19601f820116905080830192505050505050509192919290505050611505565b005b3480156106e857600080fd5b506106f16116a8565b6040518080602001828103825283818151815260200191508051906020019060200280838360005b83811015610734578082015181840152602081019050610719565b505050509050019250505060405180910390f35b34801561075457600080fd5b5061075d6117dc565b6040518082815260200191505060405180910390f35b600160009054906101000a900473ffffffffffffffffffffffffffffffffffffffff1673ffffffffffffffffffffffffffffffffffffffff163373ffffffffffffffffffffffffffffffffffffffff1614610819576040517f08c379a0000000000000000000000000000000000000000000000000000000008152600401808060200182810382526021815260200180611a896021913960400191505060405180910390fd5b60016003805490501015610878576040517f08c379a00000000000000000000000000000000000000000000000000000000081526004018080602001828103825260238152602001806119ae6023913960400191505060405180910390fd5b600060076000600360008154811061088c57fe5b9060005260206000200160009054906101000a900473ffffffffffffffffffffffffffffffffffffffff1673ffffffffffffffffffffffffffffffffffffffff1673ffffffffffffffffffffffffffffffffffffffff1681526020019081526020016000205490506000600190505b600380549050811015610a0d5781600760006003848154811061091a57fe5b9060005260206000200160009054906101000a900473ffffffffffffffffffffffffffffffffffffffff1673ffffffffffffffffffffffffffffffffffffffff1673ffffffffffffffffffffffffffffffffffffffff168152602001908152602001600020541015610a0057600760006003838154811061099757fe5b9060005260206000200160009054906101000a900473ffffffffffffffffffffffffffffffffffffffff1673ffffffffffffffffffffffffffffffffffffffff1673ffffffffffffffffffffffffffffffffffffffff1681526020019081526020016000205491505b80806001019150506108fb565b600090505b600380549050811015610b4857816007600060038481548110610a3157fe5b9060005260206000200160009054906101000a900473ffffffffffffffffffffffffffffffffffffffff1673ffffffffffffffffffffffffffffffffffffffff1673ffffffffffffffffffffffffffffffffffffffff168152602001908152602001600020541415610b3b57600260038281548110610aac57fe5b9060005260206000200160009054906101000a900473ffffffffffffffffffffffffffffffffffffffff1690806001815401808255809150509060018203906000526020600020016000909192909190916101000a81548173ffffffffffffffffffffffffffffffffffffffff021916908373ffffffffffffffffffffffffffffffffffffffff160217905550505b8080600101915050610a12565b7f7d1ff22c1a82f0d8fc4f45d2aec63e679ecb08700b30f7e90ae3721d13b1f6bd60405180806020018281038252602f815260200180611a1b602f913960400191505060405180910390a15050565b60068054600181600116156101000203166002900480601f016020809104026020016040519081016040528092919081815260200182805460018160011615610100020316600290048015610c2d5780601f10610c0257610100808354040283529160200191610c2d565b820191906000526020600020905b815481529060010190602001808311610c1057829003601f168201915b505050505081565b600160009054906101000a900473ffffffffffffffffffffffffffffffffffffffff1673ffffffffffffffffffffffffffffffffffffffff163373ffffffffffffffffffffffffffffffffffffffff1614610cdb576040517f08c379a0000000000000000000000000000000000000000000000000000000008152600401808060200182810382526021815260200180611a896021913960400191505060405180910390fd5b60011515600560019054906101000a900460ff16151514610d47576040517f08c379a000000000000000000000000000000000000000000000000000000000815260040180806020018281038252603f815260200180611a4a603f913960400191505060405180910390fd5b600080610d549190611852565b600060048190555060026000610d6a9190611873565b60036000610d789190611873565b6000600560006101000a81548160ff0219169083151502179055507f7d1ff22c1a82f0d8fc4f45d2aec63e679ecb08700b30f7e90ae3721d13b1f6bd6040518080602001828103825260248152602001806119d16024913960400191505060405180910390a1565b606060068054600181600116156101000203166002900480601f016020809104026020016040519081016040528092919081815260200182805460018160011615610100020316600290048015610e785780601f10610e4d57610100808354040283529160200191610e78565b820191906000526020600020905b815481529060010190602001808311610e5b57829003601f168201915b5050505050905090565b600560009054906101000a900460ff1681565b600080549050815114610ef3576040517f08c379a0000000000000000000000000000000000000000000000000000000008152600401808060200182810382526021815260200180611aaa6021913960400191505060405180910390fd5b610efc816117e2565b600760003373ffffffffffffffffffffffffffffffffffffffff1673ffffffffffffffffffffffffffffffffffffffff1681526020019081526020016000208190555060033390806001815401808255809150509060018203906000526020600020016000909192909190916101000a81548173ffffffffffffffffffffffffffffffffffffffff021916908373ffffffffffffffffffffffffffffffffffffffff1602179055505050565b600160009054906101000a900473ffffffffffffffffffffffffffffffffffffffff1673ffffffffffffffffffffffffffffffffffffffff163373ffffffffffffffffffffffffffffffffffffffff161461104e576040517f08c379a0000000000000000000000000000000000000000000000000000000008152600401808060200182810382526021815260200180611a896021913960400191505060405180910390fd5b600160028054905010156110ca576040517f08c379a00000000000000000000000000000000000000000000000000000000081526004018080602001828103825260208152602001807f57652073686f756c642068617665206174206c6561737420312077696e6e657281525060200191505060405180910390fd5b6000600280549050600454816110dc57fe5b04905060008090505b60028054905081101561117d57600281815481106110ff57fe5b9060005260206000200160009054906101000a900473ffffffffffffffffffffffffffffffffffffffff1673ffffffffffffffffffffffffffffffffffffffff166108fc839081150290604051600060405180830381858888f1935050505015801561116f573d6000803e3d6000fd5b5080806001019150506110e5565b6001600560016101000a81548160ff0219169083151502179055507f7d1ff22c1a82f0d8fc4f45d2aec63e679ecb08700b30f7e90ae3721d13b1f6bd6040518080602001828103825260278152602001806119876027913960400191505060405180910390a15050565b6000600560009054906101000a900460ff16905090565b6060600160009054906101000a900473ffffffffffffffffffffffffffffffffffffffff1673ffffffffffffffffffffffffffffffffffffffff163373ffffffffffffffffffffffffffffffffffffffff16146112a6576040517f08c379a0000000000000000000000000000000000000000000000000000000008152600401808060200182810382526021815260200180611a896021913960400191505060405180910390fd5b60008054806020026020016040519081016040528092919081815260200182805480156112f257602002820191906000526020600020905b8154815260200190600101908083116112de575b5050505050905090565b6000600160009054906101000a900473ffffffffffffffffffffffffffffffffffffffff16905090565b600160009054906101000a900473ffffffffffffffffffffffffffffffffffffffff1673ffffffffffffffffffffffffffffffffffffffff163373ffffffffffffffffffffffffffffffffffffffff16146113cc576040517f08c379a0000000000000000000000000000000000000000000000000000000008152600401808060200182810382526021815260200180611a896021913960400191505060405180910390fd5b80600160006101000a81548173ffffffffffffffffffffffffffffffffffffffff021916908373ffffffffffffffffffffffffffffffffffffffff16021790555050565b60076020528060005260406000206000915090505481565b600560019054906101000a900460ff1681565b6000600454905090565b600160009054906101000a900473ffffffffffffffffffffffffffffffffffffffff1673ffffffffffffffffffffffffffffffffffffffff163373ffffffffffffffffffffffffffffffffffffffff16146114eb576040517f08c379a0000000000000000000000000000000000000000000000000000000008152600401808060200182810382526021815260200180611a896021913960400191505060405180910390fd5b8060069080519060200190611501929190611894565b5050565b600160009054906101000a900473ffffffffffffffffffffffffffffffffffffffff1673ffffffffffffffffffffffffffffffffffffffff163373ffffffffffffffffffffffffffffffffffffffff16146115ab576040517f08c379a0000000000000000000000000000000000000000000000000000000008152600401808060200182810382526021815260200180611a896021913960400191505060405180910390fd5b60003411611621576040517f08c379a00000000000000000000000000000000000000000000000000000000081526004018080602001828103825260128152602001807f5072697a652063616e206e6f742062652030000000000000000000000000000081525060200191505060405180910390fd5b8060009080519060200190611637929190611914565b506001600560006101000a81548160ff021916908315150217905550346004819055507f7d1ff22c1a82f0d8fc4f45d2aec63e679ecb08700b30f7e90ae3721d13b1f6bd6040518080602001828103825260268152602001806119f56026913960400191505060405180910390a150565b6060600160009054906101000a900473ffffffffffffffffffffffffffffffffffffffff1673ffffffffffffffffffffffffffffffffffffffff163373ffffffffffffffffffffffffffffffffffffffff1614611750576040517f08c379a0000000000000000000000000000000000000000000000000000000008152600401808060200182810382526021815260200180611a896021913960400191505060405180910390fd5b60028054806020026020016040519081016040528092919081815260200182805480156117d257602002820191906000526020600020905b8160009054906101000a900473ffffffffffffffffffffffffffffffffffffffff1673ffffffffffffffffffffffffffffffffffffffff1681526020019060010190808311611788575b5050505050905090565b60045481565b6000806000905060008080549050905060008090505b81811015611847576000818154811061180d57fe5b906000526020600020015485828151811061182457fe5b60200260200101511461183a5782806001019350505b80806001019150506117f8565b508192505050919050565b50805460008255906000526020600020908101906118709190611961565b50565b50805460008255906000526020600020908101906118919190611961565b50565b828054600181600116156101000203166002900490600052602060002090601f016020900481019282601f106118d557805160ff1916838001178555611903565b82800160010185558215611903579182015b828111156119025782518255916020019190600101906118e7565b5b5090506119109190611961565b5090565b828054828255906000526020600020908101928215611950579160200282015b8281111561194f578251825591602001919060010190611934565b5b50905061195d9190611961565b5090565b61198391905b8082111561197f576000816000905550600101611967565b5090565b9056fe546865207072697a6520686173206265656e2073656e7420746f207468652077696e6e65722f7357652073686f756c642068617665206174206c65617374203120636f6e74657374657254686520636f6e7465737420686173206265656e20726573657420636f72726563746c7954686520636f6e7465737420686173206265656e206372656174656420636f72726563746c795468652077696e6e65722f73206861732f68617665206265656e2063616c63756c6174656420636f72726563746c79596f752063616e206e6f742072657365742074686520636f6e7465737420776974686f75742073656e64696e67207072697a6520746f2077696e6e65722f734f6e6c792061646d696e2063616e2063616c6c20746869732066756e6374696f6e5468652064617461736574206c656e677468206973206e6f7420636f7272656374a265627a7a723158205ded9252a2edb6bdebd1ccaf704fa55fe0833d2e8a5d1c9f7a50bd2da4dc65d464736f6c63430005100032",
  "source": "pragma solidity ^0.5.0;\n\ncontract DogsOrCats {\n\n  /* = = = = = = = VARIABLES & CONSTRUCTOR = = = = = = =*/\n  //State variables -> Permanently saved in the contract\n  uint[] private solution;\n  address private admin;\n  address payable[] private winners;\n  address payable[] private contesters;\n  uint public prize;\n  bool public status;\n  bool public prizeHasBeenSent;\n  string public name;\n  mapping(address => uint256) public users;\n\n  constructor () public{\n    admin = msg.sender;\n    prize = 0;\n    status = false;\n    prizeHasBeenSent = false;\n    name = \"Cats or Dogs Contest\";\n  }\n\n  modifier onlyAdmin {\n    require(msg.sender == admin, \"Only admin can call this function\");\n        _;\n  }\n\n/* = = = = = = = FUNCTIONS = = = = = = = */\n// - - - - Getters & Setters - - - -\nfunction setAdmin(address _newAdmin) public onlyAdmin{\n  admin = _newAdmin;\n}\nfunction setName(string memory _name) public onlyAdmin{\n  name = _name;\n}\n// function setSolution(string memory _solution) private{\n//   solution = _solution;\n// }\n// function setPrize() private payable onlyAdmin{\n//   require(msg.value > 0, \"Prize can not be 0\");\n//   prize = msg.value;\n// }\n// function setStatus(bool _status) private{\n//   status = _status;\n// }\n\n\nfunction getAdmin() public view returns(address){\n  return admin;\n}\nfunction getSolution() public view onlyAdmin returns(uint[] memory){\n  return solution;\n}\nfunction getPrize() public view returns(uint){\n  return prize;\n}\nfunction getWinners() public view onlyAdmin returns(address payable[] memory){\n  return winners;\n}\nfunction getStatus() public view returns(bool){\n  return status;\n}\nfunction getName() public view returns(string memory){\n  return name;\n}\n\n// - - - - - - - - - - - - - - - - -\n\n// - - - - Events - - - -\nevent Notification(string _notif);\n\n// - - - - - Admin - - - - -\n\n  function createContest(uint[] memory _solution) public payable onlyAdmin{\n    require(msg.value > 0, \"Prize can not be 0\");\n\n    solution = _solution;\n    status = true;\n    prize = msg.value;\n\n    emit Notification(\"The contest has been created correctly\");\n  }\n\n  function calculateWinners() public onlyAdmin{\n    require(contesters.length >= 1, \"We should have at least 1 contester\");\n\n    uint min = users[contesters[0]];\n    uint256 i;\n\n    // Obtain the minimum score\n    for(i = 1; i < contesters.length; i++){\n        if(users[contesters[i]] < min) {\n            min = users[contesters[i]];\n        }\n    }\n\n    // Obtain all contesters with minimum score\n    for(i = 0; i < contesters.length; i++){\n      if(users[contesters[i]] == min) {\n          winners.push(contesters[i]);\n      }\n    }\n\n    emit Notification(\"The winner/s has/have been calculated correctly\");\n  }\n\n  function sendPrizeToWinners() public payable onlyAdmin{\n    require(winners.length >= 1, \"We should have at least 1 winner\");\n\n    uint prizePerWinner = prize/winners.length;\n    uint i;\n\n    for(i = 0; i < winners.length; i++){\n      winners[i].transfer(prizePerWinner);\n    }\n\n    prizeHasBeenSent = true;\n    emit Notification(\"The prize has been sent to the winner/s\");\n  }\n\n  // - - - - - - - Reset Contest - - - - - - - -\n  function resetContest() public onlyAdmin{\n    require(prizeHasBeenSent == true, \"You can not reset the contest without sending prize to winner/s\");\n\n    delete solution;\n    prize = 0;\n    delete winners;\n    delete contesters;\n    status = false;\n\n    emit Notification(\"The contest has been reset correctly\");\n  }\n\n\n// - - - - Participants - - - -\n  function contest(uint[] memory _resul) public{\n    require(_resul.length == solution.length, \"The dataset length is not correct\");\n    users[msg.sender] = obtainScore(_resul);\n    contesters.push(msg.sender);\n  }\n\n  function obtainScore(uint[] memory _resul) private view returns(uint256){\n\n    uint score = 0;\n    uint length = solution.length;\n\n    for(uint i=0; i<length; i++){\n      if (_resul[i] != solution[i]){\n        score++;\n      }\n    }\n\n    return score;\n  }\n\n}\n",
  "sourcePath": "/home/pedro/TFG/challenge/contracts/DogsOrCats.sol",
  "compiler": {
    "name": "solc",
    "version": "0.5.16+commit.9c3226ce.Emscripten.clang"
  },
  "schemaVersion": "3.3.4",
  "updatedAt": "2021-06-29T22:29:11.776Z",
  "networkType": "ethereum",
  "devdoc": {
    "methods": {}
  },
  "userdoc": {
    "methods": {}
  }
}