{
  "contractName": "LevDistance",
  "abi": [
    {
      "inputs": [],
      "payable": false,
      "stateMutability": "nonpayable",
      "type": "constructor"
    },
    {
      "anonymous": false,
      "inputs": [
        {
          "indexed": false,
          "internalType": "string",
          "name": "_winner",
          "type": "string"
        }
      ],
      "name": "Winner",
      "type": "event"
    },
    {
      "constant": true,
      "inputs": [
        {
          "internalType": "address",
          "name": "",
          "type": "address"
        }
      ],
      "name": "users",
      "outputs": [
        {
          "internalType": "uint256",
          "name": "",
          "type": "uint256"
        }
      ],
      "payable": false,
      "stateMutability": "view",
      "type": "function"
    },
    {
      "constant": false,
      "inputs": [
        {
          "internalType": "address",
          "name": "_newAdmin",
          "type": "address"
        }
      ],
      "name": "setAdmin",
      "outputs": [],
      "payable": false,
      "stateMutability": "nonpayable",
      "type": "function"
    },
    {
      "constant": false,
      "inputs": [
        {
          "internalType": "string",
          "name": "_solution",
          "type": "string"
        }
      ],
      "name": "setSolution",
      "outputs": [],
      "payable": false,
      "stateMutability": "nonpayable",
      "type": "function"
    },
    {
      "constant": false,
      "inputs": [],
      "name": "setPrize",
      "outputs": [],
      "payable": true,
      "stateMutability": "payable",
      "type": "function"
    },
    {
      "constant": true,
      "inputs": [],
      "name": "getAdmin",
      "outputs": [
        {
          "internalType": "address",
          "name": "",
          "type": "address"
        }
      ],
      "payable": false,
      "stateMutability": "view",
      "type": "function"
    },
    {
      "constant": true,
      "inputs": [],
      "name": "getSolution",
      "outputs": [
        {
          "internalType": "string",
          "name": "",
          "type": "string"
        }
      ],
      "payable": false,
      "stateMutability": "view",
      "type": "function"
    },
    {
      "constant": true,
      "inputs": [],
      "name": "getPrize",
      "outputs": [
        {
          "internalType": "uint256",
          "name": "",
          "type": "uint256"
        }
      ],
      "payable": false,
      "stateMutability": "view",
      "type": "function"
    },
    {
      "constant": true,
      "inputs": [],
      "name": "getWinners",
      "outputs": [
        {
          "internalType": "address payable[]",
          "name": "",
          "type": "address[]"
        }
      ],
      "payable": false,
      "stateMutability": "view",
      "type": "function"
    },
    {
      "constant": false,
      "inputs": [
        {
          "internalType": "string",
          "name": "_resul",
          "type": "string"
        }
      ],
      "name": "contest",
      "outputs": [],
      "payable": false,
      "stateMutability": "nonpayable",
      "type": "function"
    },
    {
      "constant": false,
      "inputs": [],
      "name": "calculateWinners",
      "outputs": [],
      "payable": false,
      "stateMutability": "nonpayable",
      "type": "function"
    },
    {
      "constant": false,
      "inputs": [],
      "name": "sendPrizeToWinners",
      "outputs": [],
      "payable": true,
      "stateMutability": "payable",
      "type": "function"
    },
    {
      "constant": false,
      "inputs": [],
      "name": "resetContest",
      "outputs": [],
      "payable": false,
      "stateMutability": "nonpayable",
      "type": "function"
    }
  ],
  "bytecode": "0x608060405234801561001057600080fd5b5033600160006101000a81548173ffffffffffffffffffffffffffffffffffffffff021916908373ffffffffffffffffffffffffffffffffffffffff160217905550600060048190555061170a806100696000396000f3fe6080604052600436106100a75760003560e01c8063704b6c0211610064578063704b6c02146102935780639f3042f4146102e4578063a15c4228146102ee578063a87430ba146103b6578063c34f6b0d1461041b578063df15c37e14610446576100a7565b8063011bc2e1146100ac57806312a4d5b6146100c3578063404f874f146100da57806350592adf146100e457806358aeeee6146101745780636e9960c31461023c575b600080fd5b3480156100b857600080fd5b506100c16104b2565b005b3480156100cf57600080fd5b506100d861088b565b005b6100e261097d565b005b3480156100f057600080fd5b506100f9610bbe565b6040518080602001828103825283818151815260200191508051906020019080838360005b8381101561013957808201518184015260208101905061011e565b50505050905090810190601f1680156101665780820380516001836020036101000a031916815260200191505b509250505060405180910390f35b34801561018057600080fd5b5061023a6004803603602081101561019757600080fd5b81019080803590602001906401000000008111156101b457600080fd5b8201836020820111156101c657600080fd5b803590602001918460018302840111640100000000831117156101e857600080fd5b91908080601f016020809104026020016040519081016040528093929190818152602001838380828437600081840152601f19601f820116905080830192505050505050509192919290505050610d06565b005b34801561024857600080fd5b50610251610e56565b604051808273ffffffffffffffffffffffffffffffffffffffff1673ffffffffffffffffffffffffffffffffffffffff16815260200191505060405180910390f35b34801561029f57600080fd5b506102e2600480360360208110156102b657600080fd5b81019080803573ffffffffffffffffffffffffffffffffffffffff169060200190929190505050610e80565b005b6102ec610f6a565b005b3480156102fa57600080fd5b506103b46004803603602081101561031157600080fd5b810190808035906020019064010000000081111561032e57600080fd5b82018360208201111561034057600080fd5b8035906020019184600183028401116401000000008311171561036257600080fd5b91908080601f016020809104026020016040519081016040528093929190818152602001838380828437600081840152601f19601f82011690508083019250505050505050919291929050505061108f565b005b3480156103c257600080fd5b50610405600480360360208110156103d957600080fd5b81019080803573ffffffffffffffffffffffffffffffffffffffff16906020019092919050505061114f565b6040518082815260200191505060405180910390f35b34801561042757600080fd5b50610430611167565b6040518082815260200191505060405180910390f35b34801561045257600080fd5b5061045b611171565b6040518080602001828103825283818151815260200191508051906020019060200280838360005b8381101561049e578082015181840152602081019050610483565b505050509050019250505060405180910390f35b600160009054906101000a900473ffffffffffffffffffffffffffffffffffffffff1673ffffffffffffffffffffffffffffffffffffffff163373ffffffffffffffffffffffffffffffffffffffff1614610558576040517f08c379a00000000000000000000000000000000000000000000000000000000081526004018080602001828103825260218152602001806116b56021913960400191505060405180910390fd5b600160038054905010156105b7576040517f08c379a00000000000000000000000000000000000000000000000000000000081526004018080602001828103825260238152602001806116926023913960400191505060405180910390fd5b60006005600060036000815481106105cb57fe5b9060005260206000200160009054906101000a900473ffffffffffffffffffffffffffffffffffffffff1673ffffffffffffffffffffffffffffffffffffffff1673ffffffffffffffffffffffffffffffffffffffff1681526020019081526020016000205490506000600190505b60038054905081101561074c5781600560006003848154811061065957fe5b9060005260206000200160009054906101000a900473ffffffffffffffffffffffffffffffffffffffff1673ffffffffffffffffffffffffffffffffffffffff1673ffffffffffffffffffffffffffffffffffffffff16815260200190815260200160002054101561073f5760056000600383815481106106d657fe5b9060005260206000200160009054906101000a900473ffffffffffffffffffffffffffffffffffffffff1673ffffffffffffffffffffffffffffffffffffffff1673ffffffffffffffffffffffffffffffffffffffff1681526020019081526020016000205491505b808060010191505061063a565b600090505b6003805490508110156108875781600560006003848154811061077057fe5b9060005260206000200160009054906101000a900473ffffffffffffffffffffffffffffffffffffffff1673ffffffffffffffffffffffffffffffffffffffff1673ffffffffffffffffffffffffffffffffffffffff16815260200190815260200160002054141561087a576002600382815481106107eb57fe5b9060005260206000200160009054906101000a900473ffffffffffffffffffffffffffffffffffffffff1690806001815401808255809150509060018203906000526020600020016000909192909190916101000a81548173ffffffffffffffffffffffffffffffffffffffff021916908373ffffffffffffffffffffffffffffffffffffffff160217905550505b8080600101915050610751565b5050565b600160009054906101000a900473ffffffffffffffffffffffffffffffffffffffff1673ffffffffffffffffffffffffffffffffffffffff163373ffffffffffffffffffffffffffffffffffffffff1614610931576040517f08c379a00000000000000000000000000000000000000000000000000000000081526004018080602001828103825260218152602001806116b56021913960400191505060405180910390fd5b60405180602001604052806000815250600090805190602001906109569291906115a8565b5060006004819055506002600061096d9190611628565b6003600061097b9190611628565b565b600160009054906101000a900473ffffffffffffffffffffffffffffffffffffffff1673ffffffffffffffffffffffffffffffffffffffff163373ffffffffffffffffffffffffffffffffffffffff1614610a23576040517f08c379a00000000000000000000000000000000000000000000000000000000081526004018080602001828103825260218152602001806116b56021913960400191505060405180910390fd5b60016002805490501015610a9f576040517f08c379a00000000000000000000000000000000000000000000000000000000081526004018080602001828103825260208152602001807f57652073686f756c642068617665206174206c6561737420312077696e6e657281525060200191505060405180910390fd5b600060028054905060045481610ab157fe5b04905060008090505b600280549050811015610b525760028181548110610ad457fe5b9060005260206000200160009054906101000a900473ffffffffffffffffffffffffffffffffffffffff1673ffffffffffffffffffffffffffffffffffffffff166108fc839081150290604051600060405180830381858888f19350505050158015610b44573d6000803e3d6000fd5b508080600101915050610aba565b7f1e1f22c88be4eb57512afdedf796b878457b4d104150bb48d3614b166a0415b86040518080602001828103825260178152602001807f46696e69736865642073656e64696e67207072697a657300000000000000000081525060200191505060405180910390a15050565b6060600160009054906101000a900473ffffffffffffffffffffffffffffffffffffffff1673ffffffffffffffffffffffffffffffffffffffff163373ffffffffffffffffffffffffffffffffffffffff1614610c66576040517f08c379a00000000000000000000000000000000000000000000000000000000081526004018080602001828103825260218152602001806116b56021913960400191505060405180910390fd5b60008054600181600116156101000203166002900480601f016020809104026020016040519081016040528092919081815260200182805460018160011615610100020316600290048015610cfc5780601f10610cd157610100808354040283529160200191610cfc565b820191906000526020600020905b815481529060010190602001808311610cdf57829003601f168201915b5050505050905090565b610daa8160008054600181600116156101000203166002900480601f016020809104026020016040519081016040528092919081815260200182805460018160011615610100020316600290048015610da05780601f10610d7557610100808354040283529160200191610da0565b820191906000526020600020905b815481529060010190602001808311610d8357829003601f168201915b50505050506112a5565b600560003373ffffffffffffffffffffffffffffffffffffffff1673ffffffffffffffffffffffffffffffffffffffff1681526020019081526020016000208190555060033390806001815401808255809150509060018203906000526020600020016000909192909190916101000a81548173ffffffffffffffffffffffffffffffffffffffff021916908373ffffffffffffffffffffffffffffffffffffffff1602179055505050565b6000600160009054906101000a900473ffffffffffffffffffffffffffffffffffffffff16905090565b600160009054906101000a900473ffffffffffffffffffffffffffffffffffffffff1673ffffffffffffffffffffffffffffffffffffffff163373ffffffffffffffffffffffffffffffffffffffff1614610f26576040517f08c379a00000000000000000000000000000000000000000000000000000000081526004018080602001828103825260218152602001806116b56021913960400191505060405180910390fd5b80600160006101000a81548173ffffffffffffffffffffffffffffffffffffffff021916908373ffffffffffffffffffffffffffffffffffffffff16021790555050565b600160009054906101000a900473ffffffffffffffffffffffffffffffffffffffff1673ffffffffffffffffffffffffffffffffffffffff163373ffffffffffffffffffffffffffffffffffffffff1614611010576040517f08c379a00000000000000000000000000000000000000000000000000000000081526004018080602001828103825260218152602001806116b56021913960400191505060405180910390fd5b60003411611086576040517f08c379a00000000000000000000000000000000000000000000000000000000081526004018080602001828103825260128152602001807f5072697a652063616e206e6f742062652030000000000000000000000000000081525060200191505060405180910390fd5b34600481905550565b600160009054906101000a900473ffffffffffffffffffffffffffffffffffffffff1673ffffffffffffffffffffffffffffffffffffffff163373ffffffffffffffffffffffffffffffffffffffff1614611135576040517f08c379a00000000000000000000000000000000000000000000000000000000081526004018080602001828103825260218152602001806116b56021913960400191505060405180910390fd5b806000908051906020019061114b9291906115a8565b5050565b60056020528060005260406000206000915090505481565b6000600454905090565b6060600160009054906101000a900473ffffffffffffffffffffffffffffffffffffffff1673ffffffffffffffffffffffffffffffffffffffff163373ffffffffffffffffffffffffffffffffffffffff1614611219576040517f08c379a00000000000000000000000000000000000000000000000000000000081526004018080602001828103825260218152602001806116b56021913960400191505060405180910390fd5b600280548060200260200160405190810160405280929190818152602001828054801561129b57602002820191906000526020600020905b8160009054906101000a900473ffffffffffffffffffffffffffffffffffffffff1673ffffffffffffffffffffffffffffffffffffffff1681526020019060010190808311611251575b5050505050905090565b60008083519050600083519050600060016112c0848461153a565b0190506060816040519080825280602002602001820160405280156112ff57816020015b6112ec611649565b8152602001906001900390816112e45790505b5090506060879050606087905060008090505b868111611350578084828151811061132657fe5b602002602001015160006014811061133a57fe5b6020020181815250508080600101915050611312565b5060008090505b85811161139557808460008151811061136c57fe5b6020026020010151826014811061137f57fe5b6020020181815250508080600101915050611357565b506000600190505b868111611507576000600190505b8681116114f9576000600190508360018303815181106113c757fe5b602001015160f81c60f81b7effffffffffffffffffffffffffffffffffffffffffffffffffffffffffffff191685600185038151811061140357fe5b602001015160f81c60f81b7effffffffffffffffffffffffffffffffffffffffffffffffffffffffffffff1916141561143b57600090505b6114c3600187600186038151811061144f57fe5b6020026020010151846014811061146257fe5b602002015101600188868151811061147657fe5b6020026020010151600186036014811061148c57fe5b602002015101838960018803815181106114a257fe5b602002602001015160018703601481106114b857fe5b60200201510161155b565b8684815181106114cf57fe5b602002602001015183601481106114e257fe5b6020020181815250505080806001019150506113ab565b50808060010191505061139d565b5082868151811061151457fe5b6020026020010151856014811061152757fe5b6020020151965050505050505092915050565b6000808383111561154d57829050611551565b8390505b8091505092915050565b60008083851115801561156e5750828511155b1561157b5784905061159d565b82841115801561158b5750848411155b156115985783905061159c565b8290505b5b809150509392505050565b828054600181600116156101000203166002900490600052602060002090601f016020900481019282601f106115e957805160ff1916838001178555611617565b82800160010185558215611617579182015b828111156116165782518255916020019190600101906115fb565b5b509050611624919061166c565b5090565b5080546000825590600052602060002090810190611646919061166c565b50565b604051806102800160405280601490602082028038833980820191505090505090565b61168e91905b8082111561168a576000816000905550600101611672565b5090565b9056fe57652073686f756c642068617665206174206c65617374203120636f6e7465737465724f6e6c792061646d696e2063616e2063616c6c20746869732066756e6374696f6ea265627a7a72315820dd8d07fdeb6c3cbb10ef8142df3ff52933bbac3abc40b0bd04b6e3b5f2457e2f64736f6c63430005100032",
  "source": "pragma solidity ^0.5.0;\n\ncontract LevDistance {\n\n  /* = = = = = = = VARIABLES & CONSTRUCTOR = = = = = = =*/\n  //State variables -> Permanently saved in the contract\n  string private solution;\n  address private admin;\n  address payable[] private winners;\n  address payable[] private contesters;\n  uint prize;\n  mapping(address => uint256) public users;\n\n  constructor () public{\n    admin = msg.sender;\n    prize = 0;\n  }\n\n  modifier onlyAdmin {\n    require(msg.sender == admin, \"Only admin can call this function\");\n        _;\n  }\n\n/* = = = = = = = FUNCTIONS = = = = = = = */\n// - - - - Getters & Setters - - - -\nfunction setAdmin(address _newAdmin) public onlyAdmin {\n  admin = _newAdmin;\n}\nfunction setSolution(string memory _solution) public onlyAdmin{\n  solution = _solution;\n}\nfunction setPrize() public payable onlyAdmin{\n  require(msg.value > 0, \"Prize can not be 0\");\n  prize = msg.value;\n}\n\nfunction getAdmin() public view returns(address){\n  return admin;\n}\nfunction getSolution() public view onlyAdmin returns(string memory){\n  return solution;\n}\nfunction getPrize() public view returns(uint){\n  return prize;\n}\nfunction getWinners() public view onlyAdmin returns(address payable[] memory){\n  return winners;\n}\n\n// - - - - - - - - - - - - - - - - -\n\n// - - - - Events - - - -\nevent Winner(string _winner);\n\n// - - - - - - - - - -\n\n// - - - - Participants - - - -\n  function contest(string memory _resul) public{\n    users[msg.sender] = levDistance(_resul, solution);\n    contesters.push(msg.sender);\n  }\n\n  function levDistance(string memory _str1, string memory _str2) private pure returns(uint256){\n    uint length1 = bytes(_str1).length;\n    uint length2 = bytes(_str2).length;\n    uint n = max(length1, length2) + 1;\n    uint[20][] memory distance = new uint[20][](n);\n    bytes memory str1 = bytes(_str1);\n    bytes memory str2 = bytes(_str2);\n\n    for(uint i=0; i<=length1; i++){\n      distance[i][0]=i;\n    }\n    for(uint j=0; j<=length2; j++){\n      distance[0][j]=j;\n    }\n    for(uint i=1; i<=length1; i++){\n      for(uint j=1; j<=length2; j++){\n        uint aux = 1;\n        if (str1[i-1] == str2[j-1]){\n          aux = 0;\n        }\n        distance[i][j]= minimum(distance[i-1][j] + 1, distance[i][j-1] + 1, distance[i-1][j-1] + aux);\n      }\n    }\n\n    return (uint256(distance[length1][length2]));\n  }\n\n  function minimum(uint a, uint b, uint c) private pure returns (uint){\n    uint smallest;\n    if (a <= b && a <= c) {\n      smallest = a;\n    } else if (b <= c && b <= a) {\n      smallest = b;\n    } else {\n      smallest = c;\n    }\n\n    return (smallest);\n  }\n\n  function max(uint a, uint b) private pure returns (uint){\n    uint resul;\n\n    if(b > a){\n      resul = b;\n    } else {\n      resul = a;\n    }\n\n    return (resul);\n  }\n\n// - - - - - - - Winner & prize - - - - - - - -\n  function calculateWinners() public onlyAdmin{\n    require(contesters.length >= 1, \"We should have at least 1 contester\");\n\n    uint min = users[contesters[0]];\n    uint256 i;\n\n    // Obtain the minimum score\n    for(i = 1; i < contesters.length; i++){\n        if(users[contesters[i]] < min) {\n            min = users[contesters[i]];\n        }\n    }\n\n    // Obtain all contesters with minimum score\n    for(i = 0; i < contesters.length; i++){\n      if(users[contesters[i]] == min) {\n          winners.push(contesters[i]);\n      }\n    }\n\n  }\n\n  function sendPrizeToWinners() public payable onlyAdmin{\n    require(winners.length >= 1, \"We should have at least 1 winner\");\n\n    uint prizePerWinner = prize/winners.length;\n    uint i;\n\n    for(i = 0; i < winners.length; i++){\n      winners[i].transfer(prizePerWinner);\n    }\n    emit Winner(\"Finished sending prizes\");\n  }\n\n  // - - - - - - - Reset Contest - - - - - - - -\n  function resetContest() public onlyAdmin{\n    solution = \"\";\n    prize = 0;\n    delete winners;\n    delete contesters;\n  }\n\n\n}\n",
  "sourcePath": "/home/pedro/TFG/challenge/contracts/LevDistance.sol",
  "compiler": {
    "name": "solc",
    "version": "0.5.16+commit.9c3226ce.Emscripten.clang"
  },
  "schemaVersion": "3.3.4",
  "updatedAt": "2021-06-24T11:14:01.039Z",
  "networkType": "ethereum",
  "devdoc": {
    "methods": {}
  },
  "userdoc": {
    "methods": {}
  }
}