{
  "contractName": "LevDistance",
  "abi": [
    {
      "inputs": [],
      "payable": false,
      "stateMutability": "nonpayable",
      "type": "constructor"
    },
    {
      "constant": true,
      "inputs": [],
      "name": "admin",
      "outputs": [
        {
          "internalType": "address payable",
          "name": "",
          "type": "address"
        }
      ],
      "payable": false,
      "stateMutability": "view",
      "type": "function"
    },
    {
      "constant": false,
      "inputs": [
        {
          "internalType": "address payable",
          "name": "_newAdmin",
          "type": "address"
        }
      ],
      "name": "setAdmin",
      "outputs": [],
      "payable": false,
      "stateMutability": "nonpayable",
      "type": "function"
    },
    {
      "constant": true,
      "inputs": [
        {
          "internalType": "string",
          "name": "_str1",
          "type": "string"
        },
        {
          "internalType": "string",
          "name": "_str2",
          "type": "string"
        }
      ],
      "name": "levDistance",
      "outputs": [
        {
          "internalType": "uint256",
          "name": "",
          "type": "uint256"
        }
      ],
      "payable": false,
      "stateMutability": "view",
      "type": "function"
    }
  ],
  "bytecode": "0x608060405234801561001057600080fd5b50336000806101000a81548173ffffffffffffffffffffffffffffffffffffffff021916908373ffffffffffffffffffffffffffffffffffffffff160217905550610769806100606000396000f3fe608060405234801561001057600080fd5b50600436106100415760003560e01c8063704b6c0214610046578063df7450e41461008a578063f851a440146101f0575b600080fd5b6100886004803603602081101561005c57600080fd5b81019080803573ffffffffffffffffffffffffffffffffffffffff16906020019092919050505061023a565b005b6101da600480360360408110156100a057600080fd5b81019080803590602001906401000000008111156100bd57600080fd5b8201836020820111156100cf57600080fd5b803590602001918460018302840111640100000000831117156100f157600080fd5b91908080601f016020809104026020016040519081016040528093929190818152602001838380828437600081840152601f19601f8201169050808301925050505050505091929192908035906020019064010000000081111561015457600080fd5b82018360208201111561016657600080fd5b8035906020019184600183028401116401000000008311171561018857600080fd5b91908080601f016020809104026020016040519081016040528093929190818152602001838380828437600081840152601f19601f820116905080830192505050505050509192919290505050610322565b6040518082815260200191505060405180910390f35b6101f861065d565b604051808273ffffffffffffffffffffffffffffffffffffffff1673ffffffffffffffffffffffffffffffffffffffff16815260200191505060405180910390f35b6000809054906101000a900473ffffffffffffffffffffffffffffffffffffffff1673ffffffffffffffffffffffffffffffffffffffff163373ffffffffffffffffffffffffffffffffffffffff16146102df576040517f08c379a00000000000000000000000000000000000000000000000000000000081526004018080602001828103825260218152602001806107146021913960400191505060405180910390fd5b806000806101000a81548173ffffffffffffffffffffffffffffffffffffffff021916908373ffffffffffffffffffffffffffffffffffffffff16021790555050565b60008060009054906101000a900473ffffffffffffffffffffffffffffffffffffffff1673ffffffffffffffffffffffffffffffffffffffff163373ffffffffffffffffffffffffffffffffffffffff16146103c9576040517f08c379a00000000000000000000000000000000000000000000000000000000081526004018080602001828103825260218152602001806107146021913960400191505060405180910390fd5b600083519050600083519050600060016103e38484610682565b01905060608160405190808252806020026020018201604052801561042257816020015b61040f6106f0565b8152602001906001900390816104075790505b5090506060879050606087905060008090505b868111610473578084828151811061044957fe5b60200260200101516000600a811061045d57fe5b6020020181815250508080600101915050610435565b5060008090505b8581116104b857808460008151811061048f57fe5b602002602001015182600a81106104a257fe5b602002018181525050808060010191505061047a565b506000600190505b86811161062a576000600190505b86811161061c576000600190508360018303815181106104ea57fe5b602001015160f81c60f81b7effffffffffffffffffffffffffffffffffffffffffffffffffffffffffffff191685600185038151811061052657fe5b602001015160f81c60f81b7effffffffffffffffffffffffffffffffffffffffffffffffffffffffffffff1916141561055e57600090505b6105e6600187600186038151811061057257fe5b602002602001015184600a811061058557fe5b602002015101600188868151811061059957fe5b602002602001015160018603600a81106105af57fe5b602002015101838960018803815181106105c557fe5b602002602001015160018703600a81106105db57fe5b6020020151016106a3565b8684815181106105f257fe5b602002602001015183600a811061060557fe5b6020020181815250505080806001019150506104ce565b5080806001019150506104c0565b5082868151811061063757fe5b602002602001015185600a811061064a57fe5b6020020151965050505050505092915050565b6000809054906101000a900473ffffffffffffffffffffffffffffffffffffffff1681565b6000808383111561069557829050610699565b8390505b8091505092915050565b6000808385111580156106b65750828511155b156106c3578490506106e5565b8284111580156106d35750848411155b156106e0578390506106e4565b8290505b5b809150509392505050565b604051806101400160405280600a9060208202803883398082019150509050509056fe4f6e6c792061646d696e2063616e2063616c6c20746869732066756e6374696f6ea265627a7a72315820fb0369dd5f028f1bc2bff0d7132e9294a4d1746066e06007fbb482dbd3ca609364736f6c63430005100032",
  "source": "pragma solidity ^0.5.0;\n\ncontract LevDistance {\n\n  /* = = = = = = = VARIABLES & CONSTRUCTOR = = = = = = =*/\n  //State variables -> Permanently saved in the contract\n  address payable public admin;\n\n  constructor () public{\n    admin = msg.sender;\n  }\n\n  modifier onlyAdmin {\n    require(msg.sender == admin, \"Only admin can call this function\");\n        _;\n  }\n\n/* = = = = = = = FUNCTIONS = = = = = = = */\n// - - - - Getters - - - -\n\n// - - - - - - - - - -\n\n// - - - - Future Modifications - - - -\nfunction setAdmin(address payable _newAdmin) public onlyAdmin {\n  admin = _newAdmin;\n}\n// - - - - - - - - - -\n\n// - - - - Events - - - -\n\n// - - - - Core - - - -\n\n  function levDistance(string memory _str1, string memory _str2) public view onlyAdmin returns(uint){\n    uint length1 = bytes(_str1).length;\n    uint length2 = bytes(_str2).length;\n    uint n = max(length1, length2) + 1;\n    uint[10][] memory distance = new uint[10][](n);\n    bytes memory str1 = bytes(_str1);\n    bytes memory str2 = bytes(_str2);\n\n    for(uint i=0; i<=length1; i++){\n      distance[i][0]=i;\n    }\n    for(uint j=0; j<=length2; j++){\n      distance[0][j]=j;\n    }\n    for(uint i=1; i<=length1; i++){\n      for(uint j=1; j<=length2; j++){\n        uint aux = 1;\n        if (str1[i-1] == str2[j-1]){\n          aux = 0;\n        }\n        distance[i][j]= minimum(distance[i-1][j] + 1, distance[i][j-1] + 1, distance[i-1][j-1] + aux);\n      }\n    }\n\n    return (distance[length1][length2]);\n  }\n\n  function minimum(uint a, uint b, uint c) private pure returns (uint){\n    uint smallest;\n    if (a <= b && a <= c) {\n      smallest = a;\n    } else if (b <= c && b <= a) {\n      smallest = b;\n    } else {\n      smallest = c;\n    }\n\n    return (smallest);\n  }\n\n  function max(uint a, uint b) private pure returns (uint){\n    uint resul;\n\n    if(b > a){\n      resul = b;\n    } else {\n      resul = a;\n    }\n\n    return (resul);\n  }\n}\n",
  "sourcePath": "/home/pedro/TFG/challenge/contracts/LevDistance.sol",
  "compiler": {
    "name": "solc",
    "version": "0.5.16+commit.9c3226ce.Emscripten.clang"
  },
  "schemaVersion": "3.3.4",
  "updatedAt": "2021-06-10T06:26:42.876Z",
  "devdoc": {
    "methods": {}
  },
  "userdoc": {
    "methods": {}
  }
}