{
  "contractName": "LevDistance",
  "abi": [
    {
      "inputs": [],
      "payable": false,
      "stateMutability": "nonpayable",
      "type": "constructor"
    },
    {
      "anonymous": false,
      "inputs": [
        {
          "indexed": false,
          "internalType": "string",
          "name": "_winner",
          "type": "string"
        }
      ],
      "name": "Winner",
      "type": "event"
    },
    {
      "constant": true,
      "inputs": [
        {
          "internalType": "address",
          "name": "",
          "type": "address"
        }
      ],
      "name": "users",
      "outputs": [
        {
          "internalType": "uint256",
          "name": "",
          "type": "uint256"
        }
      ],
      "payable": false,
      "stateMutability": "view",
      "type": "function"
    },
    {
      "constant": false,
      "inputs": [
        {
          "internalType": "address",
          "name": "_newAdmin",
          "type": "address"
        }
      ],
      "name": "setAdmin",
      "outputs": [],
      "payable": false,
      "stateMutability": "nonpayable",
      "type": "function"
    },
    {
      "constant": false,
      "inputs": [
        {
          "internalType": "string",
          "name": "_solution",
          "type": "string"
        }
      ],
      "name": "setSolution",
      "outputs": [],
      "payable": false,
      "stateMutability": "nonpayable",
      "type": "function"
    },
    {
      "constant": false,
      "inputs": [],
      "name": "getSolution",
      "outputs": [
        {
          "internalType": "string",
          "name": "",
          "type": "string"
        }
      ],
      "payable": false,
      "stateMutability": "nonpayable",
      "type": "function"
    },
    {
      "constant": false,
      "inputs": [
        {
          "internalType": "string",
          "name": "_resul",
          "type": "string"
        }
      ],
      "name": "contest",
      "outputs": [],
      "payable": false,
      "stateMutability": "nonpayable",
      "type": "function"
    },
    {
      "constant": false,
      "inputs": [],
      "name": "setWinner",
      "outputs": [],
      "payable": false,
      "stateMutability": "nonpayable",
      "type": "function"
    },
    {
      "constant": true,
      "inputs": [],
      "name": "getWinner",
      "outputs": [
        {
          "internalType": "address",
          "name": "",
          "type": "address"
        }
      ],
      "payable": false,
      "stateMutability": "view",
      "type": "function"
    }
  ],
  "bytecode": "0x608060405234801561001057600080fd5b5033600160006101000a81548173ffffffffffffffffffffffffffffffffffffffff021916908373ffffffffffffffffffffffffffffffffffffffff160217905550610fae806100616000396000f3fe608060405234801561001057600080fd5b506004361061007d5760003560e01c80638e7ea5b21161005b5780638e7ea5b214610204578063a15c42281461024e578063a87430ba14610309578063ed05084e146103615761007d565b806350592adf1461008257806358aeeee614610105578063704b6c02146101c0575b600080fd5b61008a61036b565b6040518080602001828103825283818151815260200191508051906020019080838360005b838110156100ca5780820151818401526020810190506100af565b50505050905090810190601f1680156100f75780820380516001836020036101000a031916815260200191505b509250505060405180910390f35b6101be6004803603602081101561011b57600080fd5b810190808035906020019064010000000081111561013857600080fd5b82018360208201111561014a57600080fd5b8035906020019184600183028401116401000000008311171561016c57600080fd5b91908080601f016020809104026020016040519081016040528093929190818152602001838380828437600081840152601f19601f8201169050808301925050505050505091929192905050506104b3565b005b610202600480360360208110156101d657600080fd5b81019080803573ffffffffffffffffffffffffffffffffffffffff169060200190929190505050610603565b005b61020c6106ed565b604051808273ffffffffffffffffffffffffffffffffffffffff1673ffffffffffffffffffffffffffffffffffffffff16815260200191505060405180910390f35b6103076004803603602081101561026457600080fd5b810190808035906020019064010000000081111561028157600080fd5b82018360208201111561029357600080fd5b803590602001918460018302840111640100000000831117156102b557600080fd5b91908080601f016020809104026020016040519081016040528093929190818152602001838380828437600081840152601f19601f8201169050808301925050505050505091929192905050506107bd565b005b61034b6004803603602081101561031f57600080fd5b81019080803573ffffffffffffffffffffffffffffffffffffffff16906020019092919050505061087d565b6040518082815260200191505060405180910390f35b610369610895565b005b6060600160009054906101000a900473ffffffffffffffffffffffffffffffffffffffff1673ffffffffffffffffffffffffffffffffffffffff163373ffffffffffffffffffffffffffffffffffffffff1614610413576040517f08c379a0000000000000000000000000000000000000000000000000000000008152600401808060200182810382526021815260200180610f596021913960400191505060405180910390fd5b60008054600181600116156101000203166002900480601f0160208091040260200160405190810160405280929190818152602001828054600181600116156101000203166002900480156104a95780601f1061047e576101008083540402835291602001916104a9565b820191906000526020600020905b81548152906001019060200180831161048c57829003601f168201915b5050505050905090565b6105578160008054600181600116156101000203166002900480601f01602080910402602001604051908101604052809291908181526020018280546001816001161561010002031660029004801561054d5780601f106105225761010080835404028352916020019161054d565b820191906000526020600020905b81548152906001019060200180831161053057829003601f168201915b5050505050610b8d565b600460003373ffffffffffffffffffffffffffffffffffffffff1673ffffffffffffffffffffffffffffffffffffffff1681526020019081526020016000208190555060033390806001815401808255809150509060018203906000526020600020016000909192909190916101000a81548173ffffffffffffffffffffffffffffffffffffffff021916908373ffffffffffffffffffffffffffffffffffffffff1602179055505050565b600160009054906101000a900473ffffffffffffffffffffffffffffffffffffffff1673ffffffffffffffffffffffffffffffffffffffff163373ffffffffffffffffffffffffffffffffffffffff16146106a9576040517f08c379a0000000000000000000000000000000000000000000000000000000008152600401808060200182810382526021815260200180610f596021913960400191505060405180910390fd5b80600160006101000a81548173ffffffffffffffffffffffffffffffffffffffff021916908373ffffffffffffffffffffffffffffffffffffffff16021790555050565b6000600160009054906101000a900473ffffffffffffffffffffffffffffffffffffffff1673ffffffffffffffffffffffffffffffffffffffff163373ffffffffffffffffffffffffffffffffffffffff1614610795576040517f08c379a0000000000000000000000000000000000000000000000000000000008152600401808060200182810382526021815260200180610f596021913960400191505060405180910390fd5b600260009054906101000a900473ffffffffffffffffffffffffffffffffffffffff16905090565b600160009054906101000a900473ffffffffffffffffffffffffffffffffffffffff1673ffffffffffffffffffffffffffffffffffffffff163373ffffffffffffffffffffffffffffffffffffffff1614610863576040517f08c379a0000000000000000000000000000000000000000000000000000000008152600401808060200182810382526021815260200180610f596021913960400191505060405180910390fd5b8060009080519060200190610879929190610e90565b5050565b60046020528060005260406000206000915090505481565b600160009054906101000a900473ffffffffffffffffffffffffffffffffffffffff1673ffffffffffffffffffffffffffffffffffffffff163373ffffffffffffffffffffffffffffffffffffffff161461093b576040517f08c379a0000000000000000000000000000000000000000000000000000000008152600401808060200182810382526021815260200180610f596021913960400191505060405180910390fd5b600060046000600360008154811061094f57fe5b9060005260206000200160009054906101000a900473ffffffffffffffffffffffffffffffffffffffff1673ffffffffffffffffffffffffffffffffffffffff1673ffffffffffffffffffffffffffffffffffffffff168152602001908152602001600020549050600060036000815481106109c757fe5b9060005260206000200160009054906101000a900473ffffffffffffffffffffffffffffffffffffffff1690506000600190505b600380549050811015610b4757826004600060038481548110610a1a57fe5b9060005260206000200160009054906101000a900473ffffffffffffffffffffffffffffffffffffffff1673ffffffffffffffffffffffffffffffffffffffff1673ffffffffffffffffffffffffffffffffffffffff168152602001908152602001600020541015610b3a576004600060038381548110610a9757fe5b9060005260206000200160009054906101000a900473ffffffffffffffffffffffffffffffffffffffff1673ffffffffffffffffffffffffffffffffffffffff1673ffffffffffffffffffffffffffffffffffffffff16815260200190815260200160002054925060038181548110610b0c57fe5b9060005260206000200160009054906101000a900473ffffffffffffffffffffffffffffffffffffffff1691505b80806001019150506109fb565b81600260006101000a81548173ffffffffffffffffffffffffffffffffffffffff021916908373ffffffffffffffffffffffffffffffffffffffff160217905550505050565b6000808351905060008351905060006001610ba88484610e22565b019050606081604051908082528060200260200182016040528015610be757816020015b610bd4610f10565b815260200190600190039081610bcc5790505b5090506060879050606087905060008090505b868111610c385780848281518110610c0e57fe5b6020026020010151600060148110610c2257fe5b6020020181815250508080600101915050610bfa565b5060008090505b858111610c7d578084600081518110610c5457fe5b60200260200101518260148110610c6757fe5b6020020181815250508080600101915050610c3f565b506000600190505b868111610def576000600190505b868111610de157600060019050836001830381518110610caf57fe5b602001015160f81c60f81b7effffffffffffffffffffffffffffffffffffffffffffffffffffffffffffff1916856001850381518110610ceb57fe5b602001015160f81c60f81b7effffffffffffffffffffffffffffffffffffffffffffffffffffffffffffff19161415610d2357600090505b610dab6001876001860381518110610d3757fe5b60200260200101518460148110610d4a57fe5b6020020151016001888681518110610d5e57fe5b60200260200101516001860360148110610d7457fe5b60200201510183896001880381518110610d8a57fe5b60200260200101516001870360148110610da057fe5b602002015101610e43565b868481518110610db757fe5b60200260200101518360148110610dca57fe5b602002018181525050508080600101915050610c93565b508080600101915050610c85565b50828681518110610dfc57fe5b60200260200101518560148110610e0f57fe5b6020020151965050505050505092915050565b60008083831115610e3557829050610e39565b8390505b8091505092915050565b600080838511158015610e565750828511155b15610e6357849050610e85565b828411158015610e735750848411155b15610e8057839050610e84565b8290505b5b809150509392505050565b828054600181600116156101000203166002900490600052602060002090601f016020900481019282601f10610ed157805160ff1916838001178555610eff565b82800160010185558215610eff579182015b82811115610efe578251825591602001919060010190610ee3565b5b509050610f0c9190610f33565b5090565b604051806102800160405280601490602082028038833980820191505090505090565b610f5591905b80821115610f51576000816000905550600101610f39565b5090565b9056fe4f6e6c792061646d696e2063616e2063616c6c20746869732066756e6374696f6ea265627a7a72315820e4d72758b8713c5e2a8db8f325a198b7886d670cde8c53c4ff33fba66f0ab9ef64736f6c63430005100032",
  "source": "pragma solidity ^0.5.0;\n\ncontract LevDistance {\n\n  /* = = = = = = = VARIABLES & CONSTRUCTOR = = = = = = =*/\n  //State variables -> Permanently saved in the contract\n  string private solution;\n  address private admin;\n  address private winner;\n  address[] private contesters;\n  mapping(address => uint256) public users;\n\n  constructor () public{\n    admin = msg.sender;\n  }\n\n  modifier onlyAdmin {\n    require(msg.sender == admin, \"Only admin can call this function\");\n        _;\n  }\n\n/* = = = = = = = FUNCTIONS = = = = = = = */\n// - - - - Getters & Setters - - - -\nfunction setAdmin(address _newAdmin) public onlyAdmin {\n  admin = _newAdmin;\n}\nfunction setSolution(string memory _solution) public onlyAdmin{\n  solution = _solution;\n}\n\nfunction getSolution() public onlyAdmin returns(string memory){\n  return solution;\n}\n\n// - - - - - - - - - - - - - - - - -\n\n// - - - - Events - - - -\nevent Winner(string _winner);\n\n// - - - - - - - - - -\n\n// - - - - Participants - - - -\n  function contest(string memory _resul) public{\n    users[msg.sender] = levDistance(_resul, solution);\n    contesters.push(msg.sender);\n  }\n\n  function levDistance(string memory _str1, string memory _str2) private pure returns(uint256){\n    uint length1 = bytes(_str1).length;\n    uint length2 = bytes(_str2).length;\n    uint n = max(length1, length2) + 1;\n    uint[20][] memory distance = new uint[20][](n);\n    bytes memory str1 = bytes(_str1);\n    bytes memory str2 = bytes(_str2);\n\n    for(uint i=0; i<=length1; i++){\n      distance[i][0]=i;\n    }\n    for(uint j=0; j<=length2; j++){\n      distance[0][j]=j;\n    }\n    for(uint i=1; i<=length1; i++){\n      for(uint j=1; j<=length2; j++){\n        uint aux = 1;\n        if (str1[i-1] == str2[j-1]){\n          aux = 0;\n        }\n        distance[i][j]= minimum(distance[i-1][j] + 1, distance[i][j-1] + 1, distance[i-1][j-1] + aux);\n      }\n    }\n\n    return (uint256(distance[length1][length2]));\n  }\n\n  function minimum(uint a, uint b, uint c) private pure returns (uint){\n    uint smallest;\n    if (a <= b && a <= c) {\n      smallest = a;\n    } else if (b <= c && b <= a) {\n      smallest = b;\n    } else {\n      smallest = c;\n    }\n\n    return (smallest);\n  }\n\n  function max(uint a, uint b) private pure returns (uint){\n    uint resul;\n\n    if(b > a){\n      resul = b;\n    } else {\n      resul = a;\n    }\n\n    return (resul);\n  }\n\n// - - - - - - - Winner & prize - - - - - - - -\n  function setWinner() public onlyAdmin{\n    uint min = users[contesters[0]];\n    address _winner = contesters[0];\n    uint256 i;\n\n    for(i = 1; i < contesters.length; i++){\n        if(users[contesters[i]] < min) {\n            min = users[contesters[i]];\n            _winner = contesters[i];\n        }\n    }\n\n    winner = _winner;\n  }\n\n  function getWinner() public view onlyAdmin returns(address){\n    return winner;\n  }\n}\n",
  "sourcePath": "/home/pedro/TFG/challenge/contracts/LevDistance.sol",
  "compiler": {
    "name": "solc",
    "version": "0.5.16+commit.9c3226ce.Emscripten.clang"
  },
  "schemaVersion": "3.3.4",
  "updatedAt": "2021-06-19T20:45:55.712Z",
  "networkType": "ethereum",
  "devdoc": {
    "methods": {}
  },
  "userdoc": {
    "methods": {}
  }
}