{
  "contractName": "LevDistance",
  "abi": [
    {
      "inputs": [],
      "payable": false,
      "stateMutability": "nonpayable",
      "type": "constructor"
    },
    {
      "constant": true,
      "inputs": [],
      "name": "admin",
      "outputs": [
        {
          "internalType": "address",
          "name": "",
          "type": "address"
        }
      ],
      "payable": false,
      "stateMutability": "view",
      "type": "function"
    },
    {
      "constant": false,
      "inputs": [
        {
          "internalType": "address",
          "name": "_newAdmin",
          "type": "address"
        }
      ],
      "name": "setAdmin",
      "outputs": [],
      "payable": false,
      "stateMutability": "nonpayable",
      "type": "function"
    },
    {
      "constant": false,
      "inputs": [
        {
          "internalType": "string",
          "name": "_str1",
          "type": "string"
        },
        {
          "internalType": "string",
          "name": "_str2",
          "type": "string"
        }
      ],
      "name": "levDistance",
      "outputs": [
        {
          "internalType": "uint256",
          "name": "",
          "type": "uint256"
        }
      ],
      "payable": true,
      "stateMutability": "payable",
      "type": "function"
    }
  ],
  "bytecode": "0x608060405234801561001057600080fd5b50336000806101000a81548173ffffffffffffffffffffffffffffffffffffffff021916908373ffffffffffffffffffffffffffffffffffffffff1602179055506106d0806100606000396000f3fe6080604052600436106100345760003560e01c8063704b6c0214610039578063df7450e41461008a578063f851a440146101f0575b600080fd5b34801561004557600080fd5b506100886004803603602081101561005c57600080fd5b81019080803573ffffffffffffffffffffffffffffffffffffffff169060200190929190505050610247565b005b6101da600480360360408110156100a057600080fd5b81019080803590602001906401000000008111156100bd57600080fd5b8201836020820111156100cf57600080fd5b803590602001918460018302840111640100000000831117156100f157600080fd5b91908080601f016020809104026020016040519081016040528093929190818152602001838380828437600081840152601f19601f8201169050808301925050505050505091929192908035906020019064010000000081111561015457600080fd5b82018360208201111561016657600080fd5b8035906020019184600183028401116401000000008311171561018857600080fd5b91908080601f016020809104026020016040519081016040528093929190818152602001838380828437600081840152601f19601f82011690508083019250505050505050919291929050505061032f565b6040518082815260200191505060405180910390f35b3480156101fc57600080fd5b506102056105c4565b604051808273ffffffffffffffffffffffffffffffffffffffff1673ffffffffffffffffffffffffffffffffffffffff16815260200191505060405180910390f35b6000809054906101000a900473ffffffffffffffffffffffffffffffffffffffff1673ffffffffffffffffffffffffffffffffffffffff163373ffffffffffffffffffffffffffffffffffffffff16146102ec576040517f08c379a000000000000000000000000000000000000000000000000000000000815260040180806020018281038252602181526020018061067b6021913960400191505060405180910390fd5b806000806101000a81548173ffffffffffffffffffffffffffffffffffffffff021916908373ffffffffffffffffffffffffffffffffffffffff16021790555050565b600080835190506000835190506000600161034a84846105e9565b01905060608160405190808252806020026020018201604052801561038957816020015b610376610657565b81526020019060019003908161036e5790505b5090506060879050606087905060008090505b8681116103da57808482815181106103b057fe5b60200260200101516000601481106103c457fe5b602002018181525050808060010191505061039c565b5060008090505b85811161041f5780846000815181106103f657fe5b6020026020010151826014811061040957fe5b60200201818152505080806001019150506103e1565b506000600190505b868111610591576000600190505b8681116105835760006001905083600183038151811061045157fe5b602001015160f81c60f81b7effffffffffffffffffffffffffffffffffffffffffffffffffffffffffffff191685600185038151811061048d57fe5b602001015160f81c60f81b7effffffffffffffffffffffffffffffffffffffffffffffffffffffffffffff191614156104c557600090505b61054d60018760018603815181106104d957fe5b602002602001015184601481106104ec57fe5b602002015101600188868151811061050057fe5b6020026020010151600186036014811061051657fe5b6020020151018389600188038151811061052c57fe5b6020026020010151600187036014811061054257fe5b60200201510161060a565b86848151811061055957fe5b6020026020010151836014811061056c57fe5b602002018181525050508080600101915050610435565b508080600101915050610427565b5082868151811061059e57fe5b602002602001015185601481106105b157fe5b6020020151965050505050505092915050565b6000809054906101000a900473ffffffffffffffffffffffffffffffffffffffff1681565b600080838311156105fc57829050610600565b8390505b8091505092915050565b60008083851115801561061d5750828511155b1561062a5784905061064c565b82841115801561063a5750848411155b156106475783905061064b565b8290505b5b809150509392505050565b60405180610280016040528060149060208202803883398082019150509050509056fe4f6e6c792061646d696e2063616e2063616c6c20746869732066756e6374696f6ea265627a7a72315820c5be6bc15cf0ddc6113581bcb0983fb3f1503b64655937e2f5fd702be042b9ea64736f6c63430005100032",
  "source": "pragma solidity ^0.5.0;\n\ncontract LevDistance {\n\n  /* = = = = = = = VARIABLES & CONSTRUCTOR = = = = = = =*/\n  //State variables -> Permanently saved in the contract\n  address public admin;\n\n  constructor () public{\n    admin = msg.sender;\n  }\n\n  modifier onlyAdmin {\n    require(msg.sender == admin, \"Only admin can call this function\");\n        _;\n  }\n\n/* = = = = = = = FUNCTIONS = = = = = = = */\n// - - - - Getters - - - -\n\n// - - - - - - - - - -\n\n// - - - - Future Modifications - - - -\nfunction setAdmin(address _newAdmin) public onlyAdmin {\n  admin = _newAdmin;\n}\n// - - - - - - - - - -\n\n// - - - - Events - - - -\n\n// - - - - Core - - - -\n\n  function levDistance(string memory _str1, string memory _str2) public payable returns(uint){\n    uint length1 = bytes(_str1).length;\n    uint length2 = bytes(_str2).length;\n    uint n = max(length1, length2) + 1;\n    uint[20][] memory distance = new uint[20][](n);\n    bytes memory str1 = bytes(_str1);\n    bytes memory str2 = bytes(_str2);\n\n    for(uint i=0; i<=length1; i++){\n      distance[i][0]=i;\n    }\n    for(uint j=0; j<=length2; j++){\n      distance[0][j]=j;\n    }\n    for(uint i=1; i<=length1; i++){\n      for(uint j=1; j<=length2; j++){\n        uint aux = 1;\n        if (str1[i-1] == str2[j-1]){\n          aux = 0;\n        }\n        distance[i][j]= minimum(distance[i-1][j] + 1, distance[i][j-1] + 1, distance[i-1][j-1] + aux);\n      }\n    }\n\n    return (distance[length1][length2]);\n    // uint a = 1;\n    // return a;\n  }\n\n  function minimum(uint a, uint b, uint c) private pure returns (uint){\n    uint smallest;\n    if (a <= b && a <= c) {\n      smallest = a;\n    } else if (b <= c && b <= a) {\n      smallest = b;\n    } else {\n      smallest = c;\n    }\n\n    return (smallest);\n  }\n\n  function max(uint a, uint b) private pure returns (uint){\n    uint resul;\n\n    if(b > a){\n      resul = b;\n    } else {\n      resul = a;\n    }\n\n    return (resul);\n  }\n}\n",
  "sourcePath": "/home/pedro/TFG/challenge/contracts/LevDistance.sol",
  "compiler": {
    "name": "solc",
    "version": "0.5.16+commit.9c3226ce.Emscripten.clang"
  },
  "schemaVersion": "3.3.4",
  "updatedAt": "2021-06-16T09:31:55.645Z",
  "networkType": "ethereum",
  "devdoc": {
    "methods": {}
  },
  "userdoc": {
    "methods": {}
  }
}