{
  "contractName": "TextImage",
  "abi": [
    {
      "inputs": [],
      "payable": false,
      "stateMutability": "nonpayable",
      "type": "constructor"
    },
    {
      "anonymous": false,
      "inputs": [
        {
          "indexed": false,
          "internalType": "string",
          "name": "_notif",
          "type": "string"
        },
        {
          "indexed": false,
          "internalType": "address",
          "name": "_sender",
          "type": "address"
        }
      ],
      "name": "Notification",
      "type": "event"
    },
    {
      "constant": false,
      "inputs": [
        {
          "internalType": "address",
          "name": "_newAdmin",
          "type": "address"
        }
      ],
      "name": "setAdmin",
      "outputs": [],
      "payable": false,
      "stateMutability": "nonpayable",
      "type": "function"
    },
    {
      "constant": false,
      "inputs": [
        {
          "internalType": "string",
          "name": "_name",
          "type": "string"
        }
      ],
      "name": "setName",
      "outputs": [],
      "payable": false,
      "stateMutability": "nonpayable",
      "type": "function"
    },
    {
      "constant": true,
      "inputs": [],
      "name": "getSolution",
      "outputs": [
        {
          "internalType": "string",
          "name": "",
          "type": "string"
        }
      ],
      "payable": false,
      "stateMutability": "view",
      "type": "function"
    },
    {
      "constant": true,
      "inputs": [],
      "name": "getWinners",
      "outputs": [
        {
          "internalType": "address payable[]",
          "name": "",
          "type": "address[]"
        }
      ],
      "payable": false,
      "stateMutability": "view",
      "type": "function"
    },
    {
      "constant": true,
      "inputs": [],
      "name": "getAdmin",
      "outputs": [
        {
          "internalType": "address",
          "name": "",
          "type": "address"
        }
      ],
      "payable": false,
      "stateMutability": "view",
      "type": "function"
    },
    {
      "constant": true,
      "inputs": [],
      "name": "getPrize",
      "outputs": [
        {
          "internalType": "uint256",
          "name": "",
          "type": "uint256"
        }
      ],
      "payable": false,
      "stateMutability": "view",
      "type": "function"
    },
    {
      "constant": true,
      "inputs": [],
      "name": "getContesters",
      "outputs": [
        {
          "internalType": "address payable[]",
          "name": "",
          "type": "address[]"
        }
      ],
      "payable": false,
      "stateMutability": "view",
      "type": "function"
    },
    {
      "constant": true,
      "inputs": [],
      "name": "getPrizeHasBeenSent",
      "outputs": [
        {
          "internalType": "bool",
          "name": "",
          "type": "bool"
        }
      ],
      "payable": false,
      "stateMutability": "view",
      "type": "function"
    },
    {
      "constant": true,
      "inputs": [],
      "name": "getStatus",
      "outputs": [
        {
          "internalType": "bool",
          "name": "",
          "type": "bool"
        }
      ],
      "payable": false,
      "stateMutability": "view",
      "type": "function"
    },
    {
      "constant": true,
      "inputs": [],
      "name": "getName",
      "outputs": [
        {
          "internalType": "string",
          "name": "",
          "type": "string"
        }
      ],
      "payable": false,
      "stateMutability": "view",
      "type": "function"
    },
    {
      "constant": false,
      "inputs": [
        {
          "internalType": "string",
          "name": "_solution",
          "type": "string"
        }
      ],
      "name": "createContest",
      "outputs": [],
      "payable": true,
      "stateMutability": "payable",
      "type": "function"
    },
    {
      "constant": false,
      "inputs": [],
      "name": "calculateWinners",
      "outputs": [],
      "payable": false,
      "stateMutability": "nonpayable",
      "type": "function"
    },
    {
      "constant": false,
      "inputs": [],
      "name": "sendPrizeToWinners",
      "outputs": [],
      "payable": true,
      "stateMutability": "payable",
      "type": "function"
    },
    {
      "constant": false,
      "inputs": [],
      "name": "resetContest",
      "outputs": [],
      "payable": false,
      "stateMutability": "nonpayable",
      "type": "function"
    },
    {
      "constant": false,
      "inputs": [
        {
          "internalType": "string",
          "name": "_resul",
          "type": "string"
        }
      ],
      "name": "contest",
      "outputs": [],
      "payable": false,
      "stateMutability": "nonpayable",
      "type": "function"
    }
  ],
  "bytecode": "0x60806040523480156200001157600080fd5b5033600160006101000a81548173ffffffffffffffffffffffffffffffffffffffff021916908373ffffffffffffffffffffffffffffffffffffffff16021790555060006004819055506000600560006101000a81548160ff0219169083151502179055506000600560016101000a81548160ff0219169083151502179055506040518060400160405280601481526020017f546578742052656164696e6720436f6e7465737400000000000000000000000081525060069080519060200190620000de929190620000e5565b5062000194565b828054600181600116156101000203166002900490600052602060002090601f016020900481019282601f106200012857805160ff191683800117855562000159565b8280016001018555821562000159579182015b82811115620001585782518255916020019190600101906200013b565b5b5090506200016891906200016c565b5090565b6200019191905b808211156200018d57600081600090555060010162000173565b5090565b90565b61229680620001a46000396000f3fe6080604052600436106100e85760003560e01c80636e9960c31161008a578063c34f6b0d11610059578063c34f6b0d1461050b578063c47f002714610536578063df15c37e146105fe578063fe0563b91461066a576100e8565b80636e9960c31461033c578063704b6c02146103935780638db8aa7a146103e457806398ccaf0914610450576100e8565b8063404f874f116100c6578063404f874f146101ab5780634e69d560146101b557806350592adf146101e457806358aeeee614610274576100e8565b8063011bc2e1146100ed57806312a4d5b61461010457806317d7de7c1461011b575b600080fd5b3480156100f957600080fd5b50610102610699565b005b34801561011057600080fd5b50610119610af1565b005b34801561012757600080fd5b50610130610d04565b6040518080602001828103825283818151815260200191508051906020019080838360005b83811015610170578082015181840152602081019050610155565b50505050905090810190601f16801561019d5780820380516001836020036101000a031916815260200191505b509250505060405180910390f35b6101b3610da6565b005b3480156101c157600080fd5b506101ca6110a2565b604051808215151515815260200191505060405180910390f35b3480156101f057600080fd5b506101f96110b9565b6040518080602001828103825283818151815260200191508051906020019080838360005b8381101561023957808201518184015260208101905061021e565b50505050905090810190601f1680156102665780820380516001836020036101000a031916815260200191505b509250505060405180910390f35b34801561028057600080fd5b5061033a6004803603602081101561029757600080fd5b81019080803590602001906401000000008111156102b457600080fd5b8201836020820111156102c657600080fd5b803590602001918460018302840111640100000000831117156102e857600080fd5b91908080601f016020809104026020016040519081016040528093929190818152602001838380828437600081840152601f19601f820116905080830192505050505050509192919290505050611201565b005b34801561034857600080fd5b50610351611583565b604051808273ffffffffffffffffffffffffffffffffffffffff1673ffffffffffffffffffffffffffffffffffffffff16815260200191505060405180910390f35b34801561039f57600080fd5b506103e2600480360360208110156103b657600080fd5b81019080803573ffffffffffffffffffffffffffffffffffffffff1690602001909291905050506115ad565b005b3480156103f057600080fd5b506103f9611716565b6040518080602001828103825283818151815260200191508051906020019060200280838360005b8381101561043c578082015181840152602081019050610421565b505050509050019250505060405180910390f35b6105096004803603602081101561046657600080fd5b810190808035906020019064010000000081111561048357600080fd5b82018360208201111561049557600080fd5b803590602001918460018302840111640100000000831117156104b757600080fd5b91908080601f016020809104026020016040519081016040528093929190818152602001838380828437600081840152601f19601f8201169050808301925050505050505091929192905050506117a4565b005b34801561051757600080fd5b506105206119e1565b6040518082815260200191505060405180910390f35b34801561054257600080fd5b506105fc6004803603602081101561055957600080fd5b810190808035906020019064010000000081111561057657600080fd5b82018360208201111561058857600080fd5b803590602001918460018302840111640100000000831117156105aa57600080fd5b91908080601f016020809104026020016040519081016040528093929190818152602001838380828437600081840152601f19601f8201169050808301925050505050505091929192905050506119eb565b005b34801561060a57600080fd5b50610613611b2a565b6040518080602001828103825283818151815260200191508051906020019060200280838360005b8381101561065657808201518184015260208101905061063b565b505050509050019250505060405180910390f35b34801561067657600080fd5b5061067f611bb8565b604051808215151515815260200191505060405180910390f35b600160009054906101000a900473ffffffffffffffffffffffffffffffffffffffff1673ffffffffffffffffffffffffffffffffffffffff163373ffffffffffffffffffffffffffffffffffffffff161461073f576040517f08c379a000000000000000000000000000000000000000000000000000000000815260040180806020018281038252602181526020018061221d6021913960400191505060405180910390fd5b6001600380549050101561079e576040517f08c379a00000000000000000000000000000000000000000000000000000000081526004018080602001828103825260238152602001806120ea6023913960400191505060405180910390fd5b60006007600060036000815481106107b257fe5b9060005260206000200160009054906101000a900473ffffffffffffffffffffffffffffffffffffffff1673ffffffffffffffffffffffffffffffffffffffff1673ffffffffffffffffffffffffffffffffffffffff1681526020019081526020016000205490506000600190505b6003805490508110156109335781600760006003848154811061084057fe5b9060005260206000200160009054906101000a900473ffffffffffffffffffffffffffffffffffffffff1673ffffffffffffffffffffffffffffffffffffffff1673ffffffffffffffffffffffffffffffffffffffff1681526020019081526020016000205410156109265760076000600383815481106108bd57fe5b9060005260206000200160009054906101000a900473ffffffffffffffffffffffffffffffffffffffff1673ffffffffffffffffffffffffffffffffffffffff1673ffffffffffffffffffffffffffffffffffffffff1681526020019081526020016000205491505b8080600101915050610821565b600090505b600380549050811015610a6e5781600760006003848154811061095757fe5b9060005260206000200160009054906101000a900473ffffffffffffffffffffffffffffffffffffffff1673ffffffffffffffffffffffffffffffffffffffff1673ffffffffffffffffffffffffffffffffffffffff168152602001908152602001600020541415610a61576002600382815481106109d257fe5b9060005260206000200160009054906101000a900473ffffffffffffffffffffffffffffffffffffffff1690806001815401808255809150509060018203906000526020600020016000909192909190916101000a81548173ffffffffffffffffffffffffffffffffffffffff021916908373ffffffffffffffffffffffffffffffffffffffff160217905550505b8080600101915050610938565b7f4d1919bd0df5ca6d4c1d352a1025604f2c4574dfbd41bdca5e526ade3062e8973360405180806020018373ffffffffffffffffffffffffffffffffffffffff1673ffffffffffffffffffffffffffffffffffffffff1681526020018281038252602f8152602001806121af602f91396040019250505060405180910390a15050565b600160009054906101000a900473ffffffffffffffffffffffffffffffffffffffff1673ffffffffffffffffffffffffffffffffffffffff163373ffffffffffffffffffffffffffffffffffffffff1614610b97576040517f08c379a000000000000000000000000000000000000000000000000000000000815260040180806020018281038252602181526020018061221d6021913960400191505060405180910390fd5b60011515600560019054906101000a900460ff16151514610c03576040517f08c379a000000000000000000000000000000000000000000000000000000000815260040180806020018281038252603f8152602001806121de603f913960400191505060405180910390fd5b6040518060200160405280600081525060009080519060200190610c28929190611f7c565b50600060048190555060026000610c3f9190611ffc565b60036000610c4d9190611ffc565b6000600560006101000a81548160ff0219169083151502179055506000600560016101000a81548160ff0219169083151502179055507f4d1919bd0df5ca6d4c1d352a1025604f2c4574dfbd41bdca5e526ade3062e8973360405180806020018373ffffffffffffffffffffffffffffffffffffffff1673ffffffffffffffffffffffffffffffffffffffff1681526020018281038252602481526020018061213f602491396040019250505060405180910390a1565b606060068054600181600116156101000203166002900480601f016020809104026020016040519081016040528092919081815260200182805460018160011615610100020316600290048015610d9c5780601f10610d7157610100808354040283529160200191610d9c565b820191906000526020600020905b815481529060010190602001808311610d7f57829003601f168201915b5050505050905090565b600160009054906101000a900473ffffffffffffffffffffffffffffffffffffffff1673ffffffffffffffffffffffffffffffffffffffff163373ffffffffffffffffffffffffffffffffffffffff1614610e4c576040517f08c379a000000000000000000000000000000000000000000000000000000000815260040180806020018281038252602181526020018061221d6021913960400191505060405180910390fd5b60016002805490501015610ec8576040517f08c379a00000000000000000000000000000000000000000000000000000000081526004018080602001828103825260208152602001807f57652073686f756c642068617665206174206c6561737420312077696e6e657281525060200191505060405180910390fd5b60001515600560019054906101000a900460ff16151514610f51576040517f08c379a000000000000000000000000000000000000000000000000000000000815260040180806020018281038252601f8152602001807f546865207072697a652068617320616c7265616479206265656e2073656e740081525060200191505060405180910390fd5b600060028054905060045481610f6357fe5b04905060008090505b6002805490508110156110045760028181548110610f8657fe5b9060005260206000200160009054906101000a900473ffffffffffffffffffffffffffffffffffffffff1673ffffffffffffffffffffffffffffffffffffffff166108fc839081150290604051600060405180830381858888f19350505050158015610ff6573d6000803e3d6000fd5b508080600101915050610f6c565b6001600560016101000a81548160ff0219169083151502179055507f4d1919bd0df5ca6d4c1d352a1025604f2c4574dfbd41bdca5e526ade3062e8973360405180806020018373ffffffffffffffffffffffffffffffffffffffff1673ffffffffffffffffffffffffffffffffffffffff168152602001828103825260278152602001806120c3602791396040019250505060405180910390a15050565b6000600560009054906101000a900460ff16905090565b6060600160009054906101000a900473ffffffffffffffffffffffffffffffffffffffff1673ffffffffffffffffffffffffffffffffffffffff163373ffffffffffffffffffffffffffffffffffffffff1614611161576040517f08c379a000000000000000000000000000000000000000000000000000000000815260040180806020018281038252602181526020018061221d6021913960400191505060405180910390fd5b60008054600181600116156101000203166002900480601f0160208091040260200160405190810160405280929190818152602001828054600181600116156101000203166002900480156111f75780601f106111cc576101008083540402835291602001916111f7565b820191906000526020600020905b8154815290600101906020018083116111da57829003601f168201915b5050505050905090565b600160009054906101000a900473ffffffffffffffffffffffffffffffffffffffff1673ffffffffffffffffffffffffffffffffffffffff163373ffffffffffffffffffffffffffffffffffffffff1614156112a8576040517f08c379a00000000000000000000000000000000000000000000000000000000081526004018080602001828103825260268152602001806121636026913960400191505060405180910390fd5b600060028054905014611306576040517f08c379a000000000000000000000000000000000000000000000000000000000815260040180806020018281038252603281526020018061210d6032913960400191505060405180910390fd5b600560009054906101000a900460ff16611388576040517f08c379a00000000000000000000000000000000000000000000000000000000081526004018080602001828103825260198152602001807f54686520636f6e74657374206973206e6f74206163746976650000000000000081525060200191505060405180910390fd5b61142c8160008054600181600116156101000203166002900480601f0160208091040260200160405190810160405280929190818152602001828054600181600116156101000203166002900480156114225780601f106113f757610100808354040283529160200191611422565b820191906000526020600020905b81548152906001019060200180831161140557829003601f168201915b5050505050611bcf565b600760003373ffffffffffffffffffffffffffffffffffffffff1673ffffffffffffffffffffffffffffffffffffffff1681526020019081526020016000208190555061147833611e64565b156114e45760033390806001815401808255809150509060018203906000526020600020016000909192909190916101000a81548173ffffffffffffffffffffffffffffffffffffffff021916908373ffffffffffffffffffffffffffffffffffffffff160217905550505b7f4d1919bd0df5ca6d4c1d352a1025604f2c4574dfbd41bdca5e526ade3062e8973360405180806020018373ffffffffffffffffffffffffffffffffffffffff1673ffffffffffffffffffffffffffffffffffffffff1681526020018281038252601b8152602001807f596f757220736f6c7574696f6e20686173206265656e2073656e7400000000008152506020019250505060405180910390a150565b6000600160009054906101000a900473ffffffffffffffffffffffffffffffffffffffff16905090565b600160009054906101000a900473ffffffffffffffffffffffffffffffffffffffff1673ffffffffffffffffffffffffffffffffffffffff163373ffffffffffffffffffffffffffffffffffffffff1614611653576040517f08c379a000000000000000000000000000000000000000000000000000000000815260040180806020018281038252602181526020018061221d6021913960400191505060405180910390fd5b80600160006101000a81548173ffffffffffffffffffffffffffffffffffffffff021916908373ffffffffffffffffffffffffffffffffffffffff1602179055507f4d1919bd0df5ca6d4c1d352a1025604f2c4574dfbd41bdca5e526ade3062e8973360405180806020018373ffffffffffffffffffffffffffffffffffffffff1673ffffffffffffffffffffffffffffffffffffffff1681526020018281038252602481526020018061223e602491396040019250505060405180910390a150565b6060600380548060200260200160405190810160405280929190818152602001828054801561179a57602002820191906000526020600020905b8160009054906101000a900473ffffffffffffffffffffffffffffffffffffffff1673ffffffffffffffffffffffffffffffffffffffff1681526020019060010190808311611750575b5050505050905090565b600160009054906101000a900473ffffffffffffffffffffffffffffffffffffffff1673ffffffffffffffffffffffffffffffffffffffff163373ffffffffffffffffffffffffffffffffffffffff161461184a576040517f08c379a000000000000000000000000000000000000000000000000000000000815260040180806020018281038252602181526020018061221d6021913960400191505060405180910390fd5b600034116118c0576040517f08c379a00000000000000000000000000000000000000000000000000000000081526004018080602001828103825260128152602001807f5072697a652063616e206e6f742062652030000000000000000000000000000081525060200191505060405180910390fd5b600560009054906101000a900460ff1615611926576040517f08c379a000000000000000000000000000000000000000000000000000000000815260040180806020018281038252603a815260200180612066603a913960400191505060405180910390fd5b806000908051906020019061193c929190611f7c565b506001600560006101000a81548160ff021916908315150217905550346004819055507f4d1919bd0df5ca6d4c1d352a1025604f2c4574dfbd41bdca5e526ade3062e8973360405180806020018373ffffffffffffffffffffffffffffffffffffffff1673ffffffffffffffffffffffffffffffffffffffff16815260200182810382526026815260200180612189602691396040019250505060405180910390a150565b6000600454905090565b600160009054906101000a900473ffffffffffffffffffffffffffffffffffffffff1673ffffffffffffffffffffffffffffffffffffffff163373ffffffffffffffffffffffffffffffffffffffff1614611a91576040517f08c379a000000000000000000000000000000000000000000000000000000000815260040180806020018281038252602181526020018061221d6021913960400191505060405180910390fd5b8060069080519060200190611aa7929190611f7c565b507f4d1919bd0df5ca6d4c1d352a1025604f2c4574dfbd41bdca5e526ade3062e8973360405180806020018373ffffffffffffffffffffffffffffffffffffffff1673ffffffffffffffffffffffffffffffffffffffff168152602001828103825260238152602001806120a0602391396040019250505060405180910390a150565b60606002805480602002602001604051908101604052809291908181526020018280548015611bae57602002820191906000526020600020905b8160009054906101000a900473ffffffffffffffffffffffffffffffffffffffff1673ffffffffffffffffffffffffffffffffffffffff1681526020019060010190808311611b64575b5050505050905090565b6000600560019054906101000a900460ff16905090565b6000808351905060008351905060006001611bea8484611f0e565b019050606081604051908082528060200260200182016040528015611c2957816020015b611c1661201d565b815260200190600190039081611c0e5790505b5090506060879050606087905060008090505b868111611c7a5780848281518110611c5057fe5b6020026020010151600060c88110611c6457fe5b6020020181815250508080600101915050611c3c565b5060008090505b858111611cbf578084600081518110611c9657fe5b60200260200101518260c88110611ca957fe5b6020020181815250508080600101915050611c81565b506000600190505b868111611e31576000600190505b868111611e2357600060019050836001830381518110611cf157fe5b602001015160f81c60f81b7effffffffffffffffffffffffffffffffffffffffffffffffffffffffffffff1916856001850381518110611d2d57fe5b602001015160f81c60f81b7effffffffffffffffffffffffffffffffffffffffffffffffffffffffffffff19161415611d6557600090505b611ded6001876001860381518110611d7957fe5b60200260200101518460c88110611d8c57fe5b6020020151016001888681518110611da057fe5b60200260200101516001860360c88110611db657fe5b60200201510183896001880381518110611dcc57fe5b60200260200101516001870360c88110611de257fe5b602002015101611f2f565b868481518110611df957fe5b60200260200101518360c88110611e0c57fe5b602002018181525050508080600101915050611cd5565b508080600101915050611cc7565b50828681518110611e3e57fe5b60200260200101518560c88110611e5157fe5b6020020151965050505050505092915050565b6000806001905060008090505b60038054905081108015611e825750815b15611f04573373ffffffffffffffffffffffffffffffffffffffff1660038281548110611eab57fe5b9060005260206000200160009054906101000a900473ffffffffffffffffffffffffffffffffffffffff1673ffffffffffffffffffffffffffffffffffffffff161415611ef757600091505b8080600101915050611e71565b5080915050919050565b60008083831115611f2157829050611f25565b8390505b8091505092915050565b600080838511158015611f425750828511155b15611f4f57849050611f71565b828411158015611f5f5750848411155b15611f6c57839050611f70565b8290505b5b809150509392505050565b828054600181600116156101000203166002900490600052602060002090601f016020900481019282601f10611fbd57805160ff1916838001178555611feb565b82800160010185558215611feb579182015b82811115611fea578251825591602001919060010190611fcf565b5b509050611ff89190612040565b5090565b508054600082559060005260206000209081019061201a9190612040565b50565b60405180611900016040528060c890602082028038833980820191505090505090565b61206291905b8082111561205e576000816000905550600101612046565b5090565b9056fe596f752063616e206e6f7420637265617465206120636f6e74657374207768696c6520746865726520697320616e206f6e676f696e67206f6e65546865206e616d6520686173206265656e206368616e67656420636f72726563746c79546865207072697a6520686173206265656e2073656e7420746f207468652077696e6e65722f7357652073686f756c642068617665206174206c65617374203120636f6e746573746572436f6e7465737420706572696f64206973206f7665722e2057696e6e6572732068617665206265656e2073656c656374656454686520636f6e7465737420686173206265656e20726573657420636f72726563746c7941646d696e206973206e6f7420616c6c6f77656420746f206265206120636f6e74657374657254686520636f6e7465737420686173206265656e206372656174656420636f72726563746c795468652077696e6e65722f73206861732f68617665206265656e2063616c63756c6174656420636f72726563746c79596f752063616e206e6f742072657365742074686520636f6e7465737420776974686f75742073656e64696e67207072697a6520746f2077696e6e65722f734f6e6c792061646d696e2063616e2063616c6c20746869732066756e6374696f6e5468652061646d696e20686173206265656e206368616e67656420636f72726563746c79a265627a7a72315820bd1b9ef187e08892a26743a2016a235e2a32485505b98d674186271f9db836f164736f6c63430005100032",
  "source": "pragma solidity ^0.5.0;\n\ncontract TextImage {\n\n  /* = = = = = = = VARIABLES & CONSTRUCTOR = = = = = = =*/\n  //State variables -> Permanently saved in the contract\n  string private solution;\n  address private admin;\n  address payable[] private winners;\n  address payable[] private contesters;\n  uint private prize;\n  bool private status;\n  bool private prizeHasBeenSent;\n  string private name;\n  mapping(address => uint256) private users;\n\n  constructor () public{\n    admin = msg.sender;\n    prize = 0;\n    status = false;\n    prizeHasBeenSent = false;\n    name = \"Text Reading Contest\";\n  }\n\n  modifier onlyAdmin {\n    require(msg.sender == admin, \"Only admin can call this function\");\n        _;\n  }\n  // - - - - Event - - - -\n  event Notification(string _notif, address _sender);\n\n/* = = = = = = = FUNCTIONS = = = = = = = */\n// - - - - Getters & Setters - - - -\nfunction setAdmin(address _newAdmin) public onlyAdmin{\n  admin = _newAdmin;\n  emit Notification(\"The admin has been changed correctly\", msg.sender);\n}\nfunction setName(string memory _name) public onlyAdmin{\n  name = _name;\n  emit Notification(\"The name has been changed correctly\", msg.sender);\n}\nfunction getSolution() public view onlyAdmin returns(string memory){\n  return solution;\n}\nfunction getWinners() public view returns(address payable[] memory){\n  return winners;\n}\nfunction getAdmin() public view returns(address){\n  return admin;\n}\nfunction getPrize() public view returns(uint){\n  return prize;\n}\nfunction getContesters() public view returns(address payable[] memory){\n  return contesters;\n}\nfunction getPrizeHasBeenSent() public view returns(bool){\n  return prizeHasBeenSent;\n}\nfunction getStatus() public view returns(bool){\n  return status;\n}\nfunction getName() public view returns(string memory){\n  return name;\n}\n\n// - - - - - Admin - - - - -\n\n  function createContest(string memory _solution) public payable onlyAdmin{\n    require(msg.value > 0, \"Prize can not be 0\");\n    require(!status, \"You can not create a contest while there is an ongoing one\");\n\n    solution = _solution;\n    status = true;\n    prize = msg.value;\n\n    emit Notification(\"The contest has been created correctly\", msg.sender);\n  }\n\n  function calculateWinners() public onlyAdmin{\n    require(contesters.length >= 1, \"We should have at least 1 contester\");\n\n    uint min = users[contesters[0]];\n    uint256 i;\n\n    // Obtain the minimum score\n    for(i = 1; i < contesters.length; i++){\n        if(users[contesters[i]] < min) {\n            min = users[contesters[i]];\n        }\n    }\n\n    // Obtain all contesters with minimum score\n    for(i = 0; i < contesters.length; i++){\n      if(users[contesters[i]] == min) {\n          winners.push(contesters[i]);\n      }\n    }\n\n    emit Notification(\"The winner/s has/have been calculated correctly\", msg.sender);\n  }\n\n  function sendPrizeToWinners() public payable onlyAdmin{\n    require(winners.length >= 1, \"We should have at least 1 winner\");\n    require(prizeHasBeenSent == false, \"The prize has already been sent\");\n\n    uint prizePerWinner = prize/winners.length;\n    uint i;\n\n    for(i = 0; i < winners.length; i++){\n      winners[i].transfer(prizePerWinner);\n    }\n\n    prizeHasBeenSent = true;\n    emit Notification(\"The prize has been sent to the winner/s\", msg.sender);\n  }\n\n  // - - - - - - - Reset Contest - - - - - - - -\n  function resetContest() public onlyAdmin{\n    require(prizeHasBeenSent == true, \"You can not reset the contest without sending prize to winner/s\");\n\n    solution = \"\";\n    prize = 0;\n    delete winners;\n    delete contesters;\n    status = false;\n    prizeHasBeenSent = false;\n\n    emit Notification(\"The contest has been reset correctly\", msg.sender);\n  }\n\n\n// - - - - Participants - - - -\n  function contest(string memory _resul) public{\n    require(msg.sender != admin, \"Admin is not allowed to be a contester\");\n    require(winners.length == 0, \"Contest period is over. Winners have been selected\");\n    require(status, \"The contest is not active\");\n\n    users[msg.sender] = obtainScore(_resul, solution);\n    if(isFirstAttempt(msg.sender)){\n      contesters.push(msg.sender);\n    }\n\n    emit Notification(\"Your solution has been sent\", msg.sender);\n  }\n\n  //Explain about levehnstein distance\n  function obtainScore(string memory _str1, string memory _str2) private pure returns(uint256){\n    uint length1 = bytes(_str1).length;\n    uint length2 = bytes(_str2).length;\n    uint n = max(length1, length2) + 1;\n    uint[200][] memory distance = new uint[200][](n);\n    bytes memory str1 = bytes(_str1);\n    bytes memory str2 = bytes(_str2);\n\n    for(uint i=0; i<=length1; i++){\n      distance[i][0]=i;\n    }\n    for(uint j=0; j<=length2; j++){\n      distance[0][j]=j;\n    }\n    for(uint i=1; i<=length1; i++){\n      for(uint j=1; j<=length2; j++){\n        uint aux = 1;\n        if (str1[i-1] == str2[j-1]){\n          aux = 0;\n        }\n        distance[i][j]= minimum(distance[i-1][j] + 1, distance[i][j-1] + 1, distance[i-1][j-1] + aux);\n      }\n    }\n\n    return (uint256(distance[length1][length2]));\n  }\n\n  function minimum(uint a, uint b, uint c) private pure returns (uint){\n    uint smallest;\n    if (a <= b && a <= c) {\n      smallest = a;\n    } else if (b <= c && b <= a) {\n      smallest = b;\n    } else {\n      smallest = c;\n    }\n\n    return (smallest);\n  }\n\n  function max(uint a, uint b) private pure returns (uint){\n    uint resul;\n\n    if(b > a){\n      resul = b;\n    } else {\n      resul = a;\n    }\n\n    return (resul);\n  }\n\n  function isFirstAttempt(address) private view returns(bool){\n    bool resul = true;\n\n    for(uint i=0; i<contesters.length && resul; i++){\n      if(contesters[i] == msg.sender){\n        resul = false;\n      }\n    }\n\n    return resul;\n  }\n\n}\n",
  "sourcePath": "/home/pedro/TFG/challenge/contracts/TextImage.sol",
  "compiler": {
    "name": "solc",
    "version": "0.5.16+commit.9c3226ce.Emscripten.clang"
  },
  "schemaVersion": "3.3.4",
  "updatedAt": "2021-07-05T14:36:31.634Z",
  "networkType": "ethereum",
  "devdoc": {
    "methods": {}
  },
  "userdoc": {
    "methods": {}
  }
}