{
  "contractName": "TextImage",
  "abi": [
    {
      "inputs": [],
      "payable": false,
      "stateMutability": "nonpayable",
      "type": "constructor"
    },
    {
      "anonymous": false,
      "inputs": [
        {
          "indexed": false,
          "internalType": "string",
          "name": "_notif",
          "type": "string"
        },
        {
          "indexed": false,
          "internalType": "address",
          "name": "_sender",
          "type": "address"
        }
      ],
      "name": "Notification",
      "type": "event"
    },
    {
      "constant": true,
      "inputs": [],
      "name": "name",
      "outputs": [
        {
          "internalType": "string",
          "name": "",
          "type": "string"
        }
      ],
      "payable": false,
      "stateMutability": "view",
      "type": "function"
    },
    {
      "constant": true,
      "inputs": [],
      "name": "prize",
      "outputs": [
        {
          "internalType": "uint256",
          "name": "",
          "type": "uint256"
        }
      ],
      "payable": false,
      "stateMutability": "view",
      "type": "function"
    },
    {
      "constant": true,
      "inputs": [],
      "name": "prizeHasBeenSent",
      "outputs": [
        {
          "internalType": "bool",
          "name": "",
          "type": "bool"
        }
      ],
      "payable": false,
      "stateMutability": "view",
      "type": "function"
    },
    {
      "constant": true,
      "inputs": [],
      "name": "status",
      "outputs": [
        {
          "internalType": "bool",
          "name": "",
          "type": "bool"
        }
      ],
      "payable": false,
      "stateMutability": "view",
      "type": "function"
    },
    {
      "constant": true,
      "inputs": [
        {
          "internalType": "address",
          "name": "",
          "type": "address"
        }
      ],
      "name": "users",
      "outputs": [
        {
          "internalType": "uint256",
          "name": "",
          "type": "uint256"
        }
      ],
      "payable": false,
      "stateMutability": "view",
      "type": "function"
    },
    {
      "constant": false,
      "inputs": [
        {
          "internalType": "address",
          "name": "_newAdmin",
          "type": "address"
        }
      ],
      "name": "setAdmin",
      "outputs": [],
      "payable": false,
      "stateMutability": "nonpayable",
      "type": "function"
    },
    {
      "constant": false,
      "inputs": [
        {
          "internalType": "string",
          "name": "_name",
          "type": "string"
        }
      ],
      "name": "setName",
      "outputs": [],
      "payable": false,
      "stateMutability": "nonpayable",
      "type": "function"
    },
    {
      "constant": true,
      "inputs": [],
      "name": "getSolution",
      "outputs": [
        {
          "internalType": "string",
          "name": "",
          "type": "string"
        }
      ],
      "payable": false,
      "stateMutability": "view",
      "type": "function"
    },
    {
      "constant": true,
      "inputs": [],
      "name": "getWinners",
      "outputs": [
        {
          "internalType": "address payable[]",
          "name": "",
          "type": "address[]"
        }
      ],
      "payable": false,
      "stateMutability": "view",
      "type": "function"
    },
    {
      "constant": true,
      "inputs": [],
      "name": "getAdmin",
      "outputs": [
        {
          "internalType": "address",
          "name": "",
          "type": "address"
        }
      ],
      "payable": false,
      "stateMutability": "view",
      "type": "function"
    },
    {
      "constant": true,
      "inputs": [],
      "name": "getPrize",
      "outputs": [
        {
          "internalType": "uint256",
          "name": "",
          "type": "uint256"
        }
      ],
      "payable": false,
      "stateMutability": "view",
      "type": "function"
    },
    {
      "constant": true,
      "inputs": [],
      "name": "getContesters",
      "outputs": [
        {
          "internalType": "address payable[]",
          "name": "",
          "type": "address[]"
        }
      ],
      "payable": false,
      "stateMutability": "view",
      "type": "function"
    },
    {
      "constant": true,
      "inputs": [],
      "name": "getPrizeHasBeenSent",
      "outputs": [
        {
          "internalType": "bool",
          "name": "",
          "type": "bool"
        }
      ],
      "payable": false,
      "stateMutability": "view",
      "type": "function"
    },
    {
      "constant": true,
      "inputs": [],
      "name": "getStatus",
      "outputs": [
        {
          "internalType": "bool",
          "name": "",
          "type": "bool"
        }
      ],
      "payable": false,
      "stateMutability": "view",
      "type": "function"
    },
    {
      "constant": true,
      "inputs": [],
      "name": "getName",
      "outputs": [
        {
          "internalType": "string",
          "name": "",
          "type": "string"
        }
      ],
      "payable": false,
      "stateMutability": "view",
      "type": "function"
    },
    {
      "constant": false,
      "inputs": [
        {
          "internalType": "string",
          "name": "_solution",
          "type": "string"
        }
      ],
      "name": "createContest",
      "outputs": [],
      "payable": true,
      "stateMutability": "payable",
      "type": "function"
    },
    {
      "constant": false,
      "inputs": [],
      "name": "calculateWinners",
      "outputs": [],
      "payable": false,
      "stateMutability": "nonpayable",
      "type": "function"
    },
    {
      "constant": false,
      "inputs": [],
      "name": "sendPrizeToWinners",
      "outputs": [],
      "payable": true,
      "stateMutability": "payable",
      "type": "function"
    },
    {
      "constant": false,
      "inputs": [],
      "name": "resetContest",
      "outputs": [],
      "payable": false,
      "stateMutability": "nonpayable",
      "type": "function"
    },
    {
      "constant": false,
      "inputs": [
        {
          "internalType": "string",
          "name": "_resul",
          "type": "string"
        }
      ],
      "name": "contest",
      "outputs": [],
      "payable": false,
      "stateMutability": "nonpayable",
      "type": "function"
    }
  ],
  "bytecode": "0x60806040523480156200001157600080fd5b5033600160006101000a81548173ffffffffffffffffffffffffffffffffffffffff021916908373ffffffffffffffffffffffffffffffffffffffff16021790555060006004819055506000600560006101000a81548160ff0219169083151502179055506000600560016101000a81548160ff0219169083151502179055506040518060400160405280601481526020017f546578742052656164696e6720436f6e7465737400000000000000000000000081525060069080519060200190620000de929190620000e5565b5062000194565b828054600181600116156101000203166002900490600052602060002090601f016020900481019282601f106200012857805160ff191683800117855562000159565b8280016001018555821562000159579182015b82811115620001585782518255916020019190600101906200013b565b5b5090506200016891906200016c565b5090565b6200019191905b808211156200018d57600081600090555060010162000173565b5090565b90565b61248880620001a46000396000f3fe60806040526004361061011f5760003560e01c8063704b6c02116100a0578063c34f6b0d11610064578063c34f6b0d14610695578063c47f0027146106c0578063df15c37e14610788578063e3ac5d26146107f4578063fe0563b91461081f5761011f565b8063704b6c02146104895780638db8aa7a146104da57806398ccaf0914610546578063a87430ba14610601578063bbad0e39146106665761011f565b8063404f874f116100e7578063404f874f146102a15780634e69d560146102ab57806350592adf146102da57806358aeeee61461036a5780636e9960c3146104325761011f565b8063011bc2e11461012457806306fdde031461013b57806312a4d5b6146101cb57806317d7de7c146101e2578063200d2ed214610272575b600080fd5b34801561013057600080fd5b5061013961084e565b005b34801561014757600080fd5b50610150610ca6565b6040518080602001828103825283818151815260200191508051906020019080838360005b83811015610190578082015181840152602081019050610175565b50505050905090810190601f1680156101bd5780820380516001836020036101000a031916815260200191505b509250505060405180910390f35b3480156101d757600080fd5b506101e0610d44565b005b3480156101ee57600080fd5b506101f7610f3c565b6040518080602001828103825283818151815260200191508051906020019080838360005b8381101561023757808201518184015260208101905061021c565b50505050905090810190601f1680156102645780820380516001836020036101000a031916815260200191505b509250505060405180910390f35b34801561027e57600080fd5b50610287610fde565b604051808215151515815260200191505060405180910390f35b6102a9610ff1565b005b3480156102b757600080fd5b506102c06112ed565b604051808215151515815260200191505060405180910390f35b3480156102e657600080fd5b506102ef611304565b6040518080602001828103825283818151815260200191508051906020019080838360005b8381101561032f578082015181840152602081019050610314565b50505050905090810190601f16801561035c5780820380516001836020036101000a031916815260200191505b509250505060405180910390f35b34801561037657600080fd5b506104306004803603602081101561038d57600080fd5b81019080803590602001906401000000008111156103aa57600080fd5b8201836020820111156103bc57600080fd5b803590602001918460018302840111640100000000831117156103de57600080fd5b91908080601f016020809104026020016040519081016040528093929190818152602001838380828437600081840152601f19601f82011690508083019250505050505050919291929050505061144c565b005b34801561043e57600080fd5b50610447611770565b604051808273ffffffffffffffffffffffffffffffffffffffff1673ffffffffffffffffffffffffffffffffffffffff16815260200191505060405180910390f35b34801561049557600080fd5b506104d8600480360360208110156104ac57600080fd5b81019080803573ffffffffffffffffffffffffffffffffffffffff16906020019092919050505061179a565b005b3480156104e657600080fd5b506104ef611903565b6040518080602001828103825283818151815260200191508051906020019060200280838360005b83811015610532578082015181840152602081019050610517565b505050509050019250505060405180910390f35b6105ff6004803603602081101561055c57600080fd5b810190808035906020019064010000000081111561057957600080fd5b82018360208201111561058b57600080fd5b803590602001918460018302840111640100000000831117156105ad57600080fd5b91908080601f016020809104026020016040519081016040528093929190818152602001838380828437600081840152601f19601f820116905080830192505050505050509192919290505050611991565b005b34801561060d57600080fd5b506106506004803603602081101561062457600080fd5b81019080803573ffffffffffffffffffffffffffffffffffffffff169060200190929190505050611b68565b6040518082815260200191505060405180910390f35b34801561067257600080fd5b5061067b611b80565b604051808215151515815260200191505060405180910390f35b3480156106a157600080fd5b506106aa611b93565b6040518082815260200191505060405180910390f35b3480156106cc57600080fd5b50610786600480360360208110156106e357600080fd5b810190808035906020019064010000000081111561070057600080fd5b82018360208201111561071257600080fd5b8035906020019184600183028401116401000000008311171561073457600080fd5b91908080601f016020809104026020016040519081016040528093929190818152602001838380828437600081840152601f19601f820116905080830192505050505050509192919290505050611b9d565b005b34801561079457600080fd5b5061079d611cdc565b6040518080602001828103825283818151815260200191508051906020019060200280838360005b838110156107e05780820151818401526020810190506107c5565b505050509050019250505060405180910390f35b34801561080057600080fd5b50610809611e10565b6040518082815260200191505060405180910390f35b34801561082b57600080fd5b50610834611e16565b604051808215151515815260200191505060405180910390f35b600160009054906101000a900473ffffffffffffffffffffffffffffffffffffffff1673ffffffffffffffffffffffffffffffffffffffff163373ffffffffffffffffffffffffffffffffffffffff16146108f4576040517f08c379a000000000000000000000000000000000000000000000000000000000815260040180806020018281038252602181526020018061240f6021913960400191505060405180910390fd5b60016003805490501015610953576040517f08c379a000000000000000000000000000000000000000000000000000000000815260040180806020018281038252602381526020018061230e6023913960400191505060405180910390fd5b600060076000600360008154811061096757fe5b9060005260206000200160009054906101000a900473ffffffffffffffffffffffffffffffffffffffff1673ffffffffffffffffffffffffffffffffffffffff1673ffffffffffffffffffffffffffffffffffffffff1681526020019081526020016000205490506000600190505b600380549050811015610ae8578160076000600384815481106109f557fe5b9060005260206000200160009054906101000a900473ffffffffffffffffffffffffffffffffffffffff1673ffffffffffffffffffffffffffffffffffffffff1673ffffffffffffffffffffffffffffffffffffffff168152602001908152602001600020541015610adb576007600060038381548110610a7257fe5b9060005260206000200160009054906101000a900473ffffffffffffffffffffffffffffffffffffffff1673ffffffffffffffffffffffffffffffffffffffff1673ffffffffffffffffffffffffffffffffffffffff1681526020019081526020016000205491505b80806001019150506109d6565b600090505b600380549050811015610c2357816007600060038481548110610b0c57fe5b9060005260206000200160009054906101000a900473ffffffffffffffffffffffffffffffffffffffff1673ffffffffffffffffffffffffffffffffffffffff1673ffffffffffffffffffffffffffffffffffffffff168152602001908152602001600020541415610c1657600260038281548110610b8757fe5b9060005260206000200160009054906101000a900473ffffffffffffffffffffffffffffffffffffffff1690806001815401808255809150509060018203906000526020600020016000909192909190916101000a81548173ffffffffffffffffffffffffffffffffffffffff021916908373ffffffffffffffffffffffffffffffffffffffff160217905550505b8080600101915050610aed565b7f4d1919bd0df5ca6d4c1d352a1025604f2c4574dfbd41bdca5e526ade3062e8973360405180806020018373ffffffffffffffffffffffffffffffffffffffff1673ffffffffffffffffffffffffffffffffffffffff1681526020018281038252602f8152602001806123a1602f91396040019250505060405180910390a15050565b60068054600181600116156101000203166002900480601f016020809104026020016040519081016040528092919081815260200182805460018160011615610100020316600290048015610d3c5780601f10610d1157610100808354040283529160200191610d3c565b820191906000526020600020905b815481529060010190602001808311610d1f57829003601f168201915b505050505081565b600160009054906101000a900473ffffffffffffffffffffffffffffffffffffffff1673ffffffffffffffffffffffffffffffffffffffff163373ffffffffffffffffffffffffffffffffffffffff1614610dea576040517f08c379a000000000000000000000000000000000000000000000000000000000815260040180806020018281038252602181526020018061240f6021913960400191505060405180910390fd5b60011515600560019054906101000a900460ff16151514610e56576040517f08c379a000000000000000000000000000000000000000000000000000000000815260040180806020018281038252603f8152602001806123d0603f913960400191505060405180910390fd5b6040518060200160405280600081525060009080519060200190610e7b9291906121da565b50600060048190555060026000610e92919061225a565b60036000610ea0919061225a565b6000600560006101000a81548160ff0219169083151502179055507f4d1919bd0df5ca6d4c1d352a1025604f2c4574dfbd41bdca5e526ade3062e8973360405180806020018373ffffffffffffffffffffffffffffffffffffffff1673ffffffffffffffffffffffffffffffffffffffff16815260200182810382526024815260200180612331602491396040019250505060405180910390a1565b606060068054600181600116156101000203166002900480601f016020809104026020016040519081016040528092919081815260200182805460018160011615610100020316600290048015610fd45780601f10610fa957610100808354040283529160200191610fd4565b820191906000526020600020905b815481529060010190602001808311610fb757829003601f168201915b5050505050905090565b600560009054906101000a900460ff1681565b600160009054906101000a900473ffffffffffffffffffffffffffffffffffffffff1673ffffffffffffffffffffffffffffffffffffffff163373ffffffffffffffffffffffffffffffffffffffff1614611097576040517f08c379a000000000000000000000000000000000000000000000000000000000815260040180806020018281038252602181526020018061240f6021913960400191505060405180910390fd5b60016002805490501015611113576040517f08c379a00000000000000000000000000000000000000000000000000000000081526004018080602001828103825260208152602001807f57652073686f756c642068617665206174206c6561737420312077696e6e657281525060200191505060405180910390fd5b60001515600560019054906101000a900460ff1615151461119c576040517f08c379a000000000000000000000000000000000000000000000000000000000815260040180806020018281038252601f8152602001807f546865207072697a652068617320616c7265616479206265656e2073656e740081525060200191505060405180910390fd5b6000600280549050600454816111ae57fe5b04905060008090505b60028054905081101561124f57600281815481106111d157fe5b9060005260206000200160009054906101000a900473ffffffffffffffffffffffffffffffffffffffff1673ffffffffffffffffffffffffffffffffffffffff166108fc839081150290604051600060405180830381858888f19350505050158015611241573d6000803e3d6000fd5b5080806001019150506111b7565b6001600560016101000a81548160ff0219169083151502179055507f4d1919bd0df5ca6d4c1d352a1025604f2c4574dfbd41bdca5e526ade3062e8973360405180806020018373ffffffffffffffffffffffffffffffffffffffff1673ffffffffffffffffffffffffffffffffffffffff168152602001828103825260278152602001806122e7602791396040019250505060405180910390a15050565b6000600560009054906101000a900460ff16905090565b6060600160009054906101000a900473ffffffffffffffffffffffffffffffffffffffff1673ffffffffffffffffffffffffffffffffffffffff163373ffffffffffffffffffffffffffffffffffffffff16146113ac576040517f08c379a000000000000000000000000000000000000000000000000000000000815260040180806020018281038252602181526020018061240f6021913960400191505060405180910390fd5b60008054600181600116156101000203166002900480601f0160208091040260200160405190810160405280929190818152602001828054600181600116156101000203166002900480156114425780601f1061141757610100808354040283529160200191611442565b820191906000526020600020905b81548152906001019060200180831161142557829003601f168201915b5050505050905090565b600160009054906101000a900473ffffffffffffffffffffffffffffffffffffffff1673ffffffffffffffffffffffffffffffffffffffff163373ffffffffffffffffffffffffffffffffffffffff1614156114f3576040517f08c379a00000000000000000000000000000000000000000000000000000000081526004018080602001828103825260268152602001806123556026913960400191505060405180910390fd5b600560009054906101000a900460ff16611575576040517f08c379a00000000000000000000000000000000000000000000000000000000081526004018080602001828103825260198152602001807f54686520636f6e74657374206973206e6f74206163746976650000000000000081525060200191505060405180910390fd5b6116198160008054600181600116156101000203166002900480601f01602080910402602001604051908101604052809291908181526020018280546001816001161561010002031660029004801561160f5780601f106115e45761010080835404028352916020019161160f565b820191906000526020600020905b8154815290600101906020018083116115f257829003601f168201915b5050505050611e2d565b600760003373ffffffffffffffffffffffffffffffffffffffff1673ffffffffffffffffffffffffffffffffffffffff16815260200190815260200160002081905550611665336120c2565b156116d15760033390806001815401808255809150509060018203906000526020600020016000909192909190916101000a81548173ffffffffffffffffffffffffffffffffffffffff021916908373ffffffffffffffffffffffffffffffffffffffff160217905550505b7f4d1919bd0df5ca6d4c1d352a1025604f2c4574dfbd41bdca5e526ade3062e8973360405180806020018373ffffffffffffffffffffffffffffffffffffffff1673ffffffffffffffffffffffffffffffffffffffff1681526020018281038252601b8152602001807f596f757220736f6c7574696f6e20686173206265656e2073656e7400000000008152506020019250505060405180910390a150565b6000600160009054906101000a900473ffffffffffffffffffffffffffffffffffffffff16905090565b600160009054906101000a900473ffffffffffffffffffffffffffffffffffffffff1673ffffffffffffffffffffffffffffffffffffffff163373ffffffffffffffffffffffffffffffffffffffff1614611840576040517f08c379a000000000000000000000000000000000000000000000000000000000815260040180806020018281038252602181526020018061240f6021913960400191505060405180910390fd5b80600160006101000a81548173ffffffffffffffffffffffffffffffffffffffff021916908373ffffffffffffffffffffffffffffffffffffffff1602179055507f4d1919bd0df5ca6d4c1d352a1025604f2c4574dfbd41bdca5e526ade3062e8973360405180806020018373ffffffffffffffffffffffffffffffffffffffff1673ffffffffffffffffffffffffffffffffffffffff16815260200182810382526024815260200180612430602491396040019250505060405180910390a150565b6060600380548060200260200160405190810160405280929190818152602001828054801561198757602002820191906000526020600020905b8160009054906101000a900473ffffffffffffffffffffffffffffffffffffffff1673ffffffffffffffffffffffffffffffffffffffff168152602001906001019080831161193d575b5050505050905090565b600160009054906101000a900473ffffffffffffffffffffffffffffffffffffffff1673ffffffffffffffffffffffffffffffffffffffff163373ffffffffffffffffffffffffffffffffffffffff1614611a37576040517f08c379a000000000000000000000000000000000000000000000000000000000815260040180806020018281038252602181526020018061240f6021913960400191505060405180910390fd5b60003411611aad576040517f08c379a00000000000000000000000000000000000000000000000000000000081526004018080602001828103825260128152602001807f5072697a652063616e206e6f742062652030000000000000000000000000000081525060200191505060405180910390fd5b8060009080519060200190611ac39291906121da565b506001600560006101000a81548160ff021916908315150217905550346004819055507f4d1919bd0df5ca6d4c1d352a1025604f2c4574dfbd41bdca5e526ade3062e8973360405180806020018373ffffffffffffffffffffffffffffffffffffffff1673ffffffffffffffffffffffffffffffffffffffff1681526020018281038252602681526020018061237b602691396040019250505060405180910390a150565b60076020528060005260406000206000915090505481565b600560019054906101000a900460ff1681565b6000600454905090565b600160009054906101000a900473ffffffffffffffffffffffffffffffffffffffff1673ffffffffffffffffffffffffffffffffffffffff163373ffffffffffffffffffffffffffffffffffffffff1614611c43576040517f08c379a000000000000000000000000000000000000000000000000000000000815260040180806020018281038252602181526020018061240f6021913960400191505060405180910390fd5b8060069080519060200190611c599291906121da565b507f4d1919bd0df5ca6d4c1d352a1025604f2c4574dfbd41bdca5e526ade3062e8973360405180806020018373ffffffffffffffffffffffffffffffffffffffff1673ffffffffffffffffffffffffffffffffffffffff168152602001828103825260238152602001806122c4602391396040019250505060405180910390a150565b6060600160009054906101000a900473ffffffffffffffffffffffffffffffffffffffff1673ffffffffffffffffffffffffffffffffffffffff163373ffffffffffffffffffffffffffffffffffffffff1614611d84576040517f08c379a000000000000000000000000000000000000000000000000000000000815260040180806020018281038252602181526020018061240f6021913960400191505060405180910390fd5b6002805480602002602001604051908101604052809291908181526020018280548015611e0657602002820191906000526020600020905b8160009054906101000a900473ffffffffffffffffffffffffffffffffffffffff1673ffffffffffffffffffffffffffffffffffffffff1681526020019060010190808311611dbc575b5050505050905090565b60045481565b6000600560019054906101000a900460ff16905090565b6000808351905060008351905060006001611e48848461216c565b019050606081604051908082528060200260200182016040528015611e8757816020015b611e7461227b565b815260200190600190039081611e6c5790505b5090506060879050606087905060008090505b868111611ed85780848281518110611eae57fe5b6020026020010151600060148110611ec257fe5b6020020181815250508080600101915050611e9a565b5060008090505b858111611f1d578084600081518110611ef457fe5b60200260200101518260148110611f0757fe5b6020020181815250508080600101915050611edf565b506000600190505b86811161208f576000600190505b86811161208157600060019050836001830381518110611f4f57fe5b602001015160f81c60f81b7effffffffffffffffffffffffffffffffffffffffffffffffffffffffffffff1916856001850381518110611f8b57fe5b602001015160f81c60f81b7effffffffffffffffffffffffffffffffffffffffffffffffffffffffffffff19161415611fc357600090505b61204b6001876001860381518110611fd757fe5b60200260200101518460148110611fea57fe5b6020020151016001888681518110611ffe57fe5b6020026020010151600186036014811061201457fe5b6020020151018389600188038151811061202a57fe5b6020026020010151600187036014811061204057fe5b60200201510161218d565b86848151811061205757fe5b6020026020010151836014811061206a57fe5b602002018181525050508080600101915050611f33565b508080600101915050611f25565b5082868151811061209c57fe5b602002602001015185601481106120af57fe5b6020020151965050505050505092915050565b6000806001905060008090505b600380549050811080156120e05750815b15612162573373ffffffffffffffffffffffffffffffffffffffff166003828154811061210957fe5b9060005260206000200160009054906101000a900473ffffffffffffffffffffffffffffffffffffffff1673ffffffffffffffffffffffffffffffffffffffff16141561215557600091505b80806001019150506120cf565b5080915050919050565b6000808383111561217f57829050612183565b8390505b8091505092915050565b6000808385111580156121a05750828511155b156121ad578490506121cf565b8284111580156121bd5750848411155b156121ca578390506121ce565b8290505b5b809150509392505050565b828054600181600116156101000203166002900490600052602060002090601f016020900481019282601f1061221b57805160ff1916838001178555612249565b82800160010185558215612249579182015b8281111561224857825182559160200191906001019061222d565b5b509050612256919061229e565b5090565b5080546000825590600052602060002090810190612278919061229e565b50565b604051806102800160405280601490602082028038833980820191505090505090565b6122c091905b808211156122bc5760008160009055506001016122a4565b5090565b9056fe546865206e616d6520686173206265656e206368616e67656420636f72726563746c79546865207072697a6520686173206265656e2073656e7420746f207468652077696e6e65722f7357652073686f756c642068617665206174206c65617374203120636f6e74657374657254686520636f6e7465737420686173206265656e20726573657420636f72726563746c7941646d696e206973206e6f7420616c6c6f77656420746f206265206120636f6e74657374657254686520636f6e7465737420686173206265656e206372656174656420636f72726563746c795468652077696e6e65722f73206861732f68617665206265656e2063616c63756c6174656420636f72726563746c79596f752063616e206e6f742072657365742074686520636f6e7465737420776974686f75742073656e64696e67207072697a6520746f2077696e6e65722f734f6e6c792061646d696e2063616e2063616c6c20746869732066756e6374696f6e5468652061646d696e20686173206265656e206368616e67656420636f72726563746c79a265627a7a723158208ca5f5d22903c7916f7f7fc4bf48af0cacd9bffdabf6901c300cc8ad793a85ff64736f6c63430005100032",
  "source": "pragma solidity ^0.5.0;\n\ncontract TextImage {\n\n  /* = = = = = = = VARIABLES & CONSTRUCTOR = = = = = = =*/\n  //State variables -> Permanently saved in the contract\n  string private solution;\n  address private admin;\n  address payable[] private winners;\n  address payable[] private contesters;\n  uint public prize;\n  bool public status;\n  bool public prizeHasBeenSent;\n  string public name;\n  mapping(address => uint256) public users;\n\n  constructor () public{\n    admin = msg.sender;\n    prize = 0;\n    status = false;\n    prizeHasBeenSent = false;\n    name = \"Text Reading Contest\";\n  }\n\n  modifier onlyAdmin {\n    require(msg.sender == admin, \"Only admin can call this function\");\n        _;\n  }\n  // - - - - Event - - - -\n  event Notification(string _notif, address _sender);\n\n/* = = = = = = = FUNCTIONS = = = = = = = */\n// - - - - Getters & Setters - - - -\nfunction setAdmin(address _newAdmin) public onlyAdmin{\n  admin = _newAdmin;\n  emit Notification(\"The admin has been changed correctly\", msg.sender);\n}\nfunction setName(string memory _name) public onlyAdmin{\n  name = _name;\n  emit Notification(\"The name has been changed correctly\", msg.sender);\n}\n\nfunction getSolution() public view onlyAdmin returns(string memory){\n  return solution;\n}\nfunction getWinners() public view onlyAdmin returns(address payable[] memory){\n  return winners;\n}\nfunction getAdmin() public view returns(address){\n  return admin;\n}\nfunction getPrize() public view returns(uint){\n  return prize;\n}\nfunction getContesters() public view returns(address payable[] memory){\n  return contesters;\n}\nfunction getPrizeHasBeenSent() public view returns(bool){\n  return prizeHasBeenSent;\n}\nfunction getStatus() public view returns(bool){\n  return status;\n}\nfunction getName() public view returns(string memory){\n  return name;\n}\n\n// - - - - - Admin - - - - -\n\n  function createContest(string memory _solution) public payable onlyAdmin{\n    require(msg.value > 0, \"Prize can not be 0\");\n\n    solution = _solution;\n    status = true;\n    prize = msg.value;\n\n    emit Notification(\"The contest has been created correctly\", msg.sender);\n  }\n\n  function calculateWinners() public onlyAdmin{\n    require(contesters.length >= 1, \"We should have at least 1 contester\");\n\n    uint min = users[contesters[0]];\n    uint256 i;\n\n    // Obtain the minimum score\n    for(i = 1; i < contesters.length; i++){\n        if(users[contesters[i]] < min) {\n            min = users[contesters[i]];\n        }\n    }\n\n    // Obtain all contesters with minimum score\n    for(i = 0; i < contesters.length; i++){\n      if(users[contesters[i]] == min) {\n          winners.push(contesters[i]);\n      }\n    }\n\n    emit Notification(\"The winner/s has/have been calculated correctly\", msg.sender);\n  }\n\n  function sendPrizeToWinners() public payable onlyAdmin{\n    require(winners.length >= 1, \"We should have at least 1 winner\");\n    require(prizeHasBeenSent == false, \"The prize has already been sent\");\n\n    uint prizePerWinner = prize/winners.length;\n    uint i;\n\n    for(i = 0; i < winners.length; i++){\n      winners[i].transfer(prizePerWinner);\n    }\n\n    prizeHasBeenSent = true;\n    emit Notification(\"The prize has been sent to the winner/s\", msg.sender);\n  }\n\n  // - - - - - - - Reset Contest - - - - - - - -\n  function resetContest() public onlyAdmin{\n    require(prizeHasBeenSent == true, \"You can not reset the contest without sending prize to winner/s\");\n\n    solution = \"\";\n    prize = 0;\n    delete winners;\n    delete contesters;\n    status = false;\n\n    emit Notification(\"The contest has been reset correctly\", msg.sender);\n  }\n\n\n// - - - - Participants - - - -\n  function contest(string memory _resul) public{\n    require(msg.sender != admin, \"Admin is not allowed to be a contester\");\n    require(status, \"The contest is not active\");\n\n    users[msg.sender] = obtainScore(_resul, solution);\n    if(isFirstAttempt(msg.sender)){\n      contesters.push(msg.sender);\n    }\n\n    emit Notification(\"Your solution has been sent\", msg.sender);\n  }\n\n  //Explain about levehnstein distance\n  function obtainScore(string memory _str1, string memory _str2) private pure returns(uint256){\n    uint length1 = bytes(_str1).length;\n    uint length2 = bytes(_str2).length;\n    uint n = max(length1, length2) + 1;\n    uint[20][] memory distance = new uint[20][](n);\n    bytes memory str1 = bytes(_str1);\n    bytes memory str2 = bytes(_str2);\n\n    for(uint i=0; i<=length1; i++){\n      distance[i][0]=i;\n    }\n    for(uint j=0; j<=length2; j++){\n      distance[0][j]=j;\n    }\n    for(uint i=1; i<=length1; i++){\n      for(uint j=1; j<=length2; j++){\n        uint aux = 1;\n        if (str1[i-1] == str2[j-1]){\n          aux = 0;\n        }\n        distance[i][j]= minimum(distance[i-1][j] + 1, distance[i][j-1] + 1, distance[i-1][j-1] + aux);\n      }\n    }\n\n    return (uint256(distance[length1][length2]));\n  }\n\n  function minimum(uint a, uint b, uint c) private pure returns (uint){\n    uint smallest;\n    if (a <= b && a <= c) {\n      smallest = a;\n    } else if (b <= c && b <= a) {\n      smallest = b;\n    } else {\n      smallest = c;\n    }\n\n    return (smallest);\n  }\n\n  function max(uint a, uint b) private pure returns (uint){\n    uint resul;\n\n    if(b > a){\n      resul = b;\n    } else {\n      resul = a;\n    }\n\n    return (resul);\n  }\n\n  function isFirstAttempt(address) private view returns(bool){\n    bool resul = true;\n\n    for(uint i=0; i<contesters.length && resul; i++){\n      if(contesters[i] == msg.sender){\n        resul = false;\n      }\n    }\n\n    return resul;\n  }\n\n}\n",
  "sourcePath": "/home/pedro/TFG/challenge/contracts/TextImage.sol",
  "compiler": {
    "name": "solc",
    "version": "0.5.16+commit.9c3226ce.Emscripten.clang"
  },
  "schemaVersion": "3.3.4",
  "updatedAt": "2021-07-03T20:19:00.110Z",
  "networkType": "ethereum",
  "devdoc": {
    "methods": {}
  },
  "userdoc": {
    "methods": {}
  }
}