{
  "contractName": "TextImage",
  "abi": [
    {
      "inputs": [],
      "payable": false,
      "stateMutability": "nonpayable",
      "type": "constructor"
    },
    {
      "anonymous": false,
      "inputs": [
        {
          "indexed": false,
          "internalType": "string",
          "name": "_notif",
          "type": "string"
        },
        {
          "indexed": false,
          "internalType": "address",
          "name": "_sender",
          "type": "address"
        }
      ],
      "name": "Notification",
      "type": "event"
    },
    {
      "constant": false,
      "inputs": [
        {
          "internalType": "address",
          "name": "_newAdmin",
          "type": "address"
        }
      ],
      "name": "setAdmin",
      "outputs": [],
      "payable": false,
      "stateMutability": "nonpayable",
      "type": "function"
    },
    {
      "constant": true,
      "inputs": [],
      "name": "getSolution",
      "outputs": [
        {
          "internalType": "string",
          "name": "",
          "type": "string"
        }
      ],
      "payable": false,
      "stateMutability": "view",
      "type": "function"
    },
    {
      "constant": true,
      "inputs": [],
      "name": "getWinners",
      "outputs": [
        {
          "internalType": "address payable[]",
          "name": "",
          "type": "address[]"
        }
      ],
      "payable": false,
      "stateMutability": "view",
      "type": "function"
    },
    {
      "constant": true,
      "inputs": [],
      "name": "getAdmin",
      "outputs": [
        {
          "internalType": "address",
          "name": "",
          "type": "address"
        }
      ],
      "payable": false,
      "stateMutability": "view",
      "type": "function"
    },
    {
      "constant": true,
      "inputs": [],
      "name": "getPrize",
      "outputs": [
        {
          "internalType": "uint256",
          "name": "",
          "type": "uint256"
        }
      ],
      "payable": false,
      "stateMutability": "view",
      "type": "function"
    },
    {
      "constant": true,
      "inputs": [],
      "name": "getContesters",
      "outputs": [
        {
          "internalType": "address payable[]",
          "name": "",
          "type": "address[]"
        }
      ],
      "payable": false,
      "stateMutability": "view",
      "type": "function"
    },
    {
      "constant": true,
      "inputs": [],
      "name": "getPrizeHasBeenSent",
      "outputs": [
        {
          "internalType": "bool",
          "name": "",
          "type": "bool"
        }
      ],
      "payable": false,
      "stateMutability": "view",
      "type": "function"
    },
    {
      "constant": true,
      "inputs": [],
      "name": "getStatus",
      "outputs": [
        {
          "internalType": "bool",
          "name": "",
          "type": "bool"
        }
      ],
      "payable": false,
      "stateMutability": "view",
      "type": "function"
    },
    {
      "constant": true,
      "inputs": [],
      "name": "getName",
      "outputs": [
        {
          "internalType": "string",
          "name": "",
          "type": "string"
        }
      ],
      "payable": false,
      "stateMutability": "view",
      "type": "function"
    },
    {
      "constant": false,
      "inputs": [
        {
          "internalType": "string",
          "name": "_solution",
          "type": "string"
        }
      ],
      "name": "createContest",
      "outputs": [],
      "payable": true,
      "stateMutability": "payable",
      "type": "function"
    },
    {
      "constant": false,
      "inputs": [],
      "name": "calculateWinners",
      "outputs": [],
      "payable": false,
      "stateMutability": "nonpayable",
      "type": "function"
    },
    {
      "constant": false,
      "inputs": [],
      "name": "sendPrizeToWinners",
      "outputs": [],
      "payable": true,
      "stateMutability": "payable",
      "type": "function"
    },
    {
      "constant": false,
      "inputs": [
        {
          "internalType": "address",
          "name": "_winner",
          "type": "address"
        }
      ],
      "name": "expelWinner",
      "outputs": [],
      "payable": false,
      "stateMutability": "nonpayable",
      "type": "function"
    },
    {
      "constant": false,
      "inputs": [],
      "name": "resetContest",
      "outputs": [],
      "payable": false,
      "stateMutability": "nonpayable",
      "type": "function"
    },
    {
      "constant": false,
      "inputs": [
        {
          "internalType": "string",
          "name": "_resul",
          "type": "string"
        }
      ],
      "name": "contest",
      "outputs": [],
      "payable": false,
      "stateMutability": "nonpayable",
      "type": "function"
    }
  ],
  "bytecode": "0x60806040523480156200001157600080fd5b5033600260006101000a81548173ffffffffffffffffffffffffffffffffffffffff021916908373ffffffffffffffffffffffffffffffffffffffff16021790555060006005819055506000600660006101000a81548160ff0219169083151502179055506000600660016101000a81548160ff0219169083151502179055506040518060400160405280601481526020017f546578742052656164696e6720436f6e7465737400000000000000000000000081525060019080519060200190620000de929190620000e5565b5062000194565b828054600181600116156101000203166002900490600052602060002090601f016020900481019282601f106200012857805160ff191683800117855562000159565b8280016001018555821562000159579182015b82811115620001585782518255916020019190600101906200013b565b5b5090506200016891906200016c565b5090565b6200019191905b808211156200018d57600081600090555060010162000173565b5090565b90565b6124d380620001a46000396000f3fe6080604052600436106100e85760003560e01c806358aeeee61161008a57806398ccaf091161005957806398ccaf09146104a1578063c34f6b0d1461055c578063df15c37e14610587578063fe0563b9146105f3576100e8565b806358aeeee6146102c55780636e9960c31461038d578063704b6c02146103e45780638db8aa7a14610435576100e8565b8063404f874f116100c6578063404f874f146101ab5780634aaa7a8f146101b55780634e69d5601461020657806350592adf14610235576100e8565b8063011bc2e1146100ed57806312a4d5b61461010457806317d7de7c1461011b575b600080fd5b3480156100f957600080fd5b50610102610622565b005b34801561011057600080fd5b50610119610a88565b005b34801561012757600080fd5b50610130610c9b565b6040518080602001828103825283818151815260200191508051906020019080838360005b83811015610170578082015181840152602081019050610155565b50505050905090810190601f16801561019d5780820380516001836020036101000a031916815260200191505b509250505060405180910390f35b6101b3610d3d565b005b3480156101c157600080fd5b50610204600480360360208110156101d857600080fd5b81019080803573ffffffffffffffffffffffffffffffffffffffff169060200190929190505050611039565b005b34801561021257600080fd5b5061021b6113ec565b604051808215151515815260200191505060405180910390f35b34801561024157600080fd5b5061024a611403565b6040518080602001828103825283818151815260200191508051906020019080838360005b8381101561028a57808201518184015260208101905061026f565b50505050905090810190601f1680156102b75780820380516001836020036101000a031916815260200191505b509250505060405180910390f35b3480156102d157600080fd5b5061038b600480360360208110156102e857600080fd5b810190808035906020019064010000000081111561030557600080fd5b82018360208201111561031757600080fd5b8035906020019184600183028401116401000000008311171561033957600080fd5b91908080601f016020809104026020016040519081016040528093929190818152602001838380828437600081840152601f19601f82011690508083019250505050505050919291929050505061154b565b005b34801561039957600080fd5b506103a26118cd565b604051808273ffffffffffffffffffffffffffffffffffffffff1673ffffffffffffffffffffffffffffffffffffffff16815260200191505060405180910390f35b3480156103f057600080fd5b506104336004803603602081101561040757600080fd5b81019080803573ffffffffffffffffffffffffffffffffffffffff1690602001909291905050506118f7565b005b34801561044157600080fd5b5061044a611a60565b6040518080602001828103825283818151815260200191508051906020019060200280838360005b8381101561048d578082015181840152602081019050610472565b505050509050019250505060405180910390f35b61055a600480360360208110156104b757600080fd5b81019080803590602001906401000000008111156104d457600080fd5b8201836020820111156104e657600080fd5b8035906020019184600183028401116401000000008311171561050857600080fd5b91908080601f016020809104026020016040519081016040528093929190818152602001838380828437600081840152601f19601f820116905080830192505050505050509192919290505050611aee565b005b34801561056857600080fd5b50610571611d2b565b6040518082815260200191505060405180910390f35b34801561059357600080fd5b5061059c611d35565b6040518080602001828103825283818151815260200191508051906020019060200280838360005b838110156105df5780820151818401526020810190506105c4565b505050509050019250505060405180910390f35b3480156105ff57600080fd5b50610608611dc3565b604051808215151515815260200191505060405180910390f35b600260009054906101000a900473ffffffffffffffffffffffffffffffffffffffff1673ffffffffffffffffffffffffffffffffffffffff163373ffffffffffffffffffffffffffffffffffffffff16146106c8576040517f08c379a00000000000000000000000000000000000000000000000000000000081526004018080602001828103825260218152602001806124316021913960400191505060405180910390fd5b60016004805490501015610727576040517f08c379a00000000000000000000000000000000000000000000000000000000081526004018080602001828103825260238152602001806122fe6023913960400191505060405180910390fd5b600360006107359190612187565b600060076000600460008154811061074957fe5b9060005260206000200160009054906101000a900473ffffffffffffffffffffffffffffffffffffffff1673ffffffffffffffffffffffffffffffffffffffff1673ffffffffffffffffffffffffffffffffffffffff1681526020019081526020016000205490506000600190505b6004805490508110156108ca578160076000600484815481106107d757fe5b9060005260206000200160009054906101000a900473ffffffffffffffffffffffffffffffffffffffff1673ffffffffffffffffffffffffffffffffffffffff1673ffffffffffffffffffffffffffffffffffffffff1681526020019081526020016000205410156108bd57600760006004838154811061085457fe5b9060005260206000200160009054906101000a900473ffffffffffffffffffffffffffffffffffffffff1673ffffffffffffffffffffffffffffffffffffffff1673ffffffffffffffffffffffffffffffffffffffff1681526020019081526020016000205491505b80806001019150506107b8565b600090505b600480549050811015610a05578160076000600484815481106108ee57fe5b9060005260206000200160009054906101000a900473ffffffffffffffffffffffffffffffffffffffff1673ffffffffffffffffffffffffffffffffffffffff1673ffffffffffffffffffffffffffffffffffffffff1681526020019081526020016000205414156109f85760036004828154811061096957fe5b9060005260206000200160009054906101000a900473ffffffffffffffffffffffffffffffffffffffff1690806001815401808255809150509060018203906000526020600020016000909192909190916101000a81548173ffffffffffffffffffffffffffffffffffffffff021916908373ffffffffffffffffffffffffffffffffffffffff160217905550505b80806001019150506108cf565b7f4d1919bd0df5ca6d4c1d352a1025604f2c4574dfbd41bdca5e526ade3062e8973360405180806020018373ffffffffffffffffffffffffffffffffffffffff1673ffffffffffffffffffffffffffffffffffffffff1681526020018281038252602f8152602001806123c3602f91396040019250505060405180910390a15050565b600260009054906101000a900473ffffffffffffffffffffffffffffffffffffffff1673ffffffffffffffffffffffffffffffffffffffff163373ffffffffffffffffffffffffffffffffffffffff1614610b2e576040517f08c379a00000000000000000000000000000000000000000000000000000000081526004018080602001828103825260218152602001806124316021913960400191505060405180910390fd5b60011515600660019054906101000a900460ff16151514610b9a576040517f08c379a000000000000000000000000000000000000000000000000000000000815260040180806020018281038252603f8152602001806123f2603f913960400191505060405180910390fd5b6040518060200160405280600081525060009080519060200190610bbf9291906121a8565b50600060058190555060036000610bd69190612187565b60046000610be49190612187565b6000600660006101000a81548160ff0219169083151502179055506000600660016101000a81548160ff0219169083151502179055507f4d1919bd0df5ca6d4c1d352a1025604f2c4574dfbd41bdca5e526ade3062e8973360405180806020018373ffffffffffffffffffffffffffffffffffffffff1673ffffffffffffffffffffffffffffffffffffffff16815260200182810382526024815260200180612353602491396040019250505060405180910390a1565b606060018054600181600116156101000203166002900480601f016020809104026020016040519081016040528092919081815260200182805460018160011615610100020316600290048015610d335780601f10610d0857610100808354040283529160200191610d33565b820191906000526020600020905b815481529060010190602001808311610d1657829003601f168201915b5050505050905090565b600260009054906101000a900473ffffffffffffffffffffffffffffffffffffffff1673ffffffffffffffffffffffffffffffffffffffff163373ffffffffffffffffffffffffffffffffffffffff1614610de3576040517f08c379a00000000000000000000000000000000000000000000000000000000081526004018080602001828103825260218152602001806124316021913960400191505060405180910390fd5b60016003805490501015610e5f576040517f08c379a00000000000000000000000000000000000000000000000000000000081526004018080602001828103825260208152602001807f57652073686f756c642068617665206174206c6561737420312077696e6e657281525060200191505060405180910390fd5b60001515600660019054906101000a900460ff16151514610ee8576040517f08c379a000000000000000000000000000000000000000000000000000000000815260040180806020018281038252601f8152602001807f546865207072697a652068617320616c7265616479206265656e2073656e740081525060200191505060405180910390fd5b600060038054905060055481610efa57fe5b04905060008090505b600380549050811015610f9b5760038181548110610f1d57fe5b9060005260206000200160009054906101000a900473ffffffffffffffffffffffffffffffffffffffff1673ffffffffffffffffffffffffffffffffffffffff166108fc839081150290604051600060405180830381858888f19350505050158015610f8d573d6000803e3d6000fd5b508080600101915050610f03565b6001600660016101000a81548160ff0219169083151502179055507f4d1919bd0df5ca6d4c1d352a1025604f2c4574dfbd41bdca5e526ade3062e8973360405180806020018373ffffffffffffffffffffffffffffffffffffffff1673ffffffffffffffffffffffffffffffffffffffff168152602001828103825260278152602001806122d7602791396040019250505060405180910390a15050565b600260009054906101000a900473ffffffffffffffffffffffffffffffffffffffff1673ffffffffffffffffffffffffffffffffffffffff163373ffffffffffffffffffffffffffffffffffffffff16146110df576040517f08c379a00000000000000000000000000000000000000000000000000000000081526004018080602001828103825260218152602001806124316021913960400191505060405180910390fd5b6001600380549050101561115b576040517f08c379a00000000000000000000000000000000000000000000000000000000081526004018080602001828103825260208152602001807f57652073686f756c642068617665206174206c6561737420312077696e6e657281525060200191505060405180910390fd5b60001515600660019054906101000a900460ff161515146111c7576040517f08c379a00000000000000000000000000000000000000000000000000000000081526004018080602001828103825260298152602001806124766029913960400191505060405180910390fd5b60008060019050600091505b600380549050821080156111e45750805b156113e7578273ffffffffffffffffffffffffffffffffffffffff166003838154811061120d57fe5b9060005260206000200160009054906101000a900473ffffffffffffffffffffffffffffffffffffffff1673ffffffffffffffffffffffffffffffffffffffff1614156113da576003828154811061126157fe5b9060005260206000200160006101000a81549073ffffffffffffffffffffffffffffffffffffffff02191690556003600160038054905003815481106112a357fe5b9060005260206000200160009054906101000a900473ffffffffffffffffffffffffffffffffffffffff16600383815481106112db57fe5b9060005260206000200160006101000a81548173ffffffffffffffffffffffffffffffffffffffff021916908373ffffffffffffffffffffffffffffffffffffffff16021790555060038054809190600190036113389190612228565b50600090507f4d1919bd0df5ca6d4c1d352a1025604f2c4574dfbd41bdca5e526ade3062e8973360405180806020018373ffffffffffffffffffffffffffffffffffffffff1673ffffffffffffffffffffffffffffffffffffffff1681526020018281038252601c8152602001807f5468652077696e6e657220686173206265656e20657870656c6c6564000000008152506020019250505060405180910390a15b81806001019250506111d3565b505050565b6000600660009054906101000a900460ff16905090565b6060600260009054906101000a900473ffffffffffffffffffffffffffffffffffffffff1673ffffffffffffffffffffffffffffffffffffffff163373ffffffffffffffffffffffffffffffffffffffff16146114ab576040517f08c379a00000000000000000000000000000000000000000000000000000000081526004018080602001828103825260218152602001806124316021913960400191505060405180910390fd5b60008054600181600116156101000203166002900480601f0160208091040260200160405190810160405280929190818152602001828054600181600116156101000203166002900480156115415780601f1061151657610100808354040283529160200191611541565b820191906000526020600020905b81548152906001019060200180831161152457829003601f168201915b5050505050905090565b600260009054906101000a900473ffffffffffffffffffffffffffffffffffffffff1673ffffffffffffffffffffffffffffffffffffffff163373ffffffffffffffffffffffffffffffffffffffff1614156115f2576040517f08c379a00000000000000000000000000000000000000000000000000000000081526004018080602001828103825260268152602001806123776026913960400191505060405180910390fd5b600060038054905014611650576040517f08c379a00000000000000000000000000000000000000000000000000000000081526004018080602001828103825260328152602001806123216032913960400191505060405180910390fd5b600660009054906101000a900460ff166116d2576040517f08c379a00000000000000000000000000000000000000000000000000000000081526004018080602001828103825260198152602001807f54686520636f6e74657374206973206e6f74206163746976650000000000000081525060200191505060405180910390fd5b6117768160008054600181600116156101000203166002900480601f01602080910402602001604051908101604052809291908181526020018280546001816001161561010002031660029004801561176c5780601f106117415761010080835404028352916020019161176c565b820191906000526020600020905b81548152906001019060200180831161174f57829003601f168201915b5050505050611dda565b600760003373ffffffffffffffffffffffffffffffffffffffff1673ffffffffffffffffffffffffffffffffffffffff168152602001908152602001600020819055506117c23361206f565b1561182e5760043390806001815401808255809150509060018203906000526020600020016000909192909190916101000a81548173ffffffffffffffffffffffffffffffffffffffff021916908373ffffffffffffffffffffffffffffffffffffffff160217905550505b7f4d1919bd0df5ca6d4c1d352a1025604f2c4574dfbd41bdca5e526ade3062e8973360405180806020018373ffffffffffffffffffffffffffffffffffffffff1673ffffffffffffffffffffffffffffffffffffffff1681526020018281038252601b8152602001807f596f757220736f6c7574696f6e20686173206265656e2073656e7400000000008152506020019250505060405180910390a150565b6000600260009054906101000a900473ffffffffffffffffffffffffffffffffffffffff16905090565b600260009054906101000a900473ffffffffffffffffffffffffffffffffffffffff1673ffffffffffffffffffffffffffffffffffffffff163373ffffffffffffffffffffffffffffffffffffffff161461199d576040517f08c379a00000000000000000000000000000000000000000000000000000000081526004018080602001828103825260218152602001806124316021913960400191505060405180910390fd5b80600260006101000a81548173ffffffffffffffffffffffffffffffffffffffff021916908373ffffffffffffffffffffffffffffffffffffffff1602179055507f4d1919bd0df5ca6d4c1d352a1025604f2c4574dfbd41bdca5e526ade3062e8973360405180806020018373ffffffffffffffffffffffffffffffffffffffff1673ffffffffffffffffffffffffffffffffffffffff16815260200182810382526024815260200180612452602491396040019250505060405180910390a150565b60606004805480602002602001604051908101604052809291908181526020018280548015611ae457602002820191906000526020600020905b8160009054906101000a900473ffffffffffffffffffffffffffffffffffffffff1673ffffffffffffffffffffffffffffffffffffffff1681526020019060010190808311611a9a575b5050505050905090565b600260009054906101000a900473ffffffffffffffffffffffffffffffffffffffff1673ffffffffffffffffffffffffffffffffffffffff163373ffffffffffffffffffffffffffffffffffffffff1614611b94576040517f08c379a00000000000000000000000000000000000000000000000000000000081526004018080602001828103825260218152602001806124316021913960400191505060405180910390fd5b60003411611c0a576040517f08c379a00000000000000000000000000000000000000000000000000000000081526004018080602001828103825260128152602001807f5072697a652063616e206e6f742062652030000000000000000000000000000081525060200191505060405180910390fd5b600660009054906101000a900460ff1615611c70576040517f08c379a000000000000000000000000000000000000000000000000000000000815260040180806020018281038252603a81526020018061229d603a913960400191505060405180910390fd5b8060009080519060200190611c869291906121a8565b506001600660006101000a81548160ff021916908315150217905550346005819055507f4d1919bd0df5ca6d4c1d352a1025604f2c4574dfbd41bdca5e526ade3062e8973360405180806020018373ffffffffffffffffffffffffffffffffffffffff1673ffffffffffffffffffffffffffffffffffffffff1681526020018281038252602681526020018061239d602691396040019250505060405180910390a150565b6000600554905090565b60606003805480602002602001604051908101604052809291908181526020018280548015611db957602002820191906000526020600020905b8160009054906101000a900473ffffffffffffffffffffffffffffffffffffffff1673ffffffffffffffffffffffffffffffffffffffff1681526020019060010190808311611d6f575b5050505050905090565b6000600660019054906101000a900460ff16905090565b6000808351905060008351905060006001611df58484612119565b019050606081604051908082528060200260200182016040528015611e3457816020015b611e21612254565b815260200190600190039081611e195790505b5090506060879050606087905060008090505b868111611e855780848281518110611e5b57fe5b6020026020010151600060c88110611e6f57fe5b6020020181815250508080600101915050611e47565b5060008090505b858111611eca578084600081518110611ea157fe5b60200260200101518260c88110611eb457fe5b6020020181815250508080600101915050611e8c565b506000600190505b86811161203c576000600190505b86811161202e57600060019050836001830381518110611efc57fe5b602001015160f81c60f81b7effffffffffffffffffffffffffffffffffffffffffffffffffffffffffffff1916856001850381518110611f3857fe5b602001015160f81c60f81b7effffffffffffffffffffffffffffffffffffffffffffffffffffffffffffff19161415611f7057600090505b611ff86001876001860381518110611f8457fe5b60200260200101518460c88110611f9757fe5b6020020151016001888681518110611fab57fe5b60200260200101516001860360c88110611fc157fe5b60200201510183896001880381518110611fd757fe5b60200260200101516001870360c88110611fed57fe5b60200201510161213a565b86848151811061200457fe5b60200260200101518360c8811061201757fe5b602002018181525050508080600101915050611ee0565b508080600101915050611ed2565b5082868151811061204957fe5b60200260200101518560c8811061205c57fe5b6020020151965050505050505092915050565b6000806001905060008090505b6004805490508110801561208d5750815b1561210f573373ffffffffffffffffffffffffffffffffffffffff16600482815481106120b657fe5b9060005260206000200160009054906101000a900473ffffffffffffffffffffffffffffffffffffffff1673ffffffffffffffffffffffffffffffffffffffff16141561210257600091505b808060010191505061207c565b5080915050919050565b6000808383111561212c57829050612130565b8390505b8091505092915050565b60008083851115801561214d5750828511155b1561215a5784905061217c565b82841115801561216a5750848411155b156121775783905061217b565b8290505b5b809150509392505050565b50805460008255906000526020600020908101906121a59190612277565b50565b828054600181600116156101000203166002900490600052602060002090601f016020900481019282601f106121e957805160ff1916838001178555612217565b82800160010185558215612217579182015b828111156122165782518255916020019190600101906121fb565b5b5090506122249190612277565b5090565b81548183558181111561224f5781836000526020600020918201910161224e9190612277565b5b505050565b60405180611900016040528060c890602082028038833980820191505090505090565b61229991905b8082111561229557600081600090555060010161227d565b5090565b9056fe596f752063616e206e6f7420637265617465206120636f6e74657374207768696c6520746865726520697320616e206f6e676f696e67206f6e65546865207072697a6520686173206265656e2073656e7420746f207468652077696e6e65722f7357652073686f756c642068617665206174206c65617374203120636f6e746573746572436f6e7465737420706572696f64206973206f7665722e2057696e6e6572732068617665206265656e2073656c656374656454686520636f6e7465737420686173206265656e20726573657420636f72726563746c7941646d696e206973206e6f7420616c6c6f77656420746f206265206120636f6e74657374657254686520636f6e7465737420686173206265656e206372656174656420636f72726563746c795468652077696e6e65722f73206861732f68617665206265656e2063616c63756c6174656420636f72726563746c79596f752063616e206e6f742072657365742074686520636f6e7465737420776974686f75742073656e64696e67207072697a6520746f2077696e6e65722f734f6e6c792061646d696e2063616e2063616c6c20746869732066756e6374696f6e5468652061646d696e20686173206265656e206368616e67656420636f72726563746c79546f6f206c6174652c20746865207072697a652068617320616c7265616479206265656e2073656e74a265627a7a723158204d178cadedfc6002a1e08fe7758a617be7b8c187bafbc6fcd39668f8b41ba25764736f6c63430005100032",
  "source": "pragma solidity >=0.5.0 <0.9.0;\n\ncontract TextImage {\n\n  /* = = = = = = = VARIABLES & CONSTRUCTOR = = = = = = =*/\n  string private solution;                    // Correct answer of the contest\n  string private name;                        // Contest name\n  address private admin;                      // Address of the contract Owner\n  address payable[] private winners;          // List of the winners of the contest\n  address payable[] private contesters;       // List of the contesters\n  uint private prize;                         // Prize amount (in Wei)\n  bool private status;                        // The contest is Active or Inactive\n  bool private prizeHasBeenSent;              // To check if the prize has been sent to winners\n  mapping(address => uint256) private users;  // All users of all contests\n\n  constructor () public{\n    admin = msg.sender;\n    prize = 0;\n    status = false;\n    prizeHasBeenSent = false;\n    name = \"Text Reading Contest\";\n  }\n\n  modifier onlyAdmin {\n    require(msg.sender == admin, \"Only admin can call this function\");\n        _;\n  }\n  // - - - - Event - - - -\n  event Notification(string _notif, address _sender);\n\n/* = = = = = = = FUNCTIONS = = = = = = = */\n// - - - - Getters & Setters - - - -\nfunction setAdmin(address _newAdmin) public onlyAdmin{\n  admin = _newAdmin;\n  emit Notification(\"The admin has been changed correctly\", msg.sender);\n}\nfunction getSolution() public view onlyAdmin returns(string memory){\n  return solution;\n}\nfunction getWinners() public view returns(address payable[] memory){\n  return winners;\n}\nfunction getAdmin() public view returns(address){\n  return admin;\n}\nfunction getPrize() public view returns(uint){\n  return prize;\n}\nfunction getContesters() public view returns(address payable[] memory){\n  return contesters;\n}\nfunction getPrizeHasBeenSent() public view returns(bool){\n  return prizeHasBeenSent;\n}\nfunction getStatus() public view returns(bool){\n  return status;\n}\nfunction getName() public view returns(string memory){\n  return name;\n}\n\n// - - - - - Admin - - - - -\n  function createContest(string memory _solution) public payable onlyAdmin{\n    require(msg.value > 0, \"Prize can not be 0\");\n    require(!status, \"You can not create a contest while there is an ongoing one\");\n\n    solution = _solution;\n    status = true;\n    prize = msg.value;\n\n    emit Notification(\"The contest has been created correctly\", msg.sender);\n  }\n\n  function calculateWinners() public onlyAdmin{\n    require(contesters.length >= 1, \"We should have at least 1 contester\");\n\n    delete winners;\n    uint min = users[contesters[0]];\n    uint256 i;\n\n    // Obtain the minimum score\n    for(i = 1; i < contesters.length; i++){\n        if(users[contesters[i]] < min) {\n            min = users[contesters[i]];\n        }\n    }\n\n    // Obtain all contesters with minimum score\n    for(i = 0; i < contesters.length; i++){\n      if(users[contesters[i]] == min) {\n          winners.push(contesters[i]);\n      }\n    }\n\n    emit Notification(\"The winner/s has/have been calculated correctly\", msg.sender);\n  }\n\n  function sendPrizeToWinners() public payable onlyAdmin{\n    require(winners.length >= 1, \"We should have at least 1 winner\");\n    require(prizeHasBeenSent == false, \"The prize has already been sent\");\n\n    uint prizePerWinner = prize/winners.length;\n    uint i;\n\n    for(i = 0; i < winners.length; i++){\n      winners[i].transfer(prizePerWinner);\n    }\n\n    prizeHasBeenSent = true;\n    emit Notification(\"The prize has been sent to the winner/s\", msg.sender);\n  }\n\n  function expelWinner(address _winner) public onlyAdmin{\n    require(winners.length >= 1, \"We should have at least 1 winner\");\n    require(prizeHasBeenSent == false, \"Too late, the prize has already been sent\");\n\n    uint i;\n    bool flag = true;\n\n    for(i = 0; (i < winners.length) && flag; i++){\n      if(winners[i] == _winner) {\n        delete winners[i];\n        winners[i] = winners[winners.length - 1];\n        winners.length--;\n        flag = false;\n        emit Notification(\"The winner has been expelled\", msg.sender);\n      }\n    }\n  }\n\n  function resetContest() public onlyAdmin{\n    require(prizeHasBeenSent == true, \"You can not reset the contest without sending prize to winner/s\");\n\n    solution = \"\";\n    prize = 0;\n    delete winners;\n    delete contesters;\n    status = false;\n    prizeHasBeenSent = false;\n\n    emit Notification(\"The contest has been reset correctly\", msg.sender);\n  }\n\n// - - - - Contesters - - - -\n  function contest(string memory _resul) public{\n    require(msg.sender != admin, \"Admin is not allowed to be a contester\");\n    require(winners.length == 0, \"Contest period is over. Winners have been selected\");\n    require(status, \"The contest is not active\");\n\n    users[msg.sender] = obtainScore(_resul, solution);\n    if(isFirstAttempt(msg.sender)){\n      contesters.push(msg.sender);\n    }\n\n    emit Notification(\"Your solution has been sent\", msg.sender);\n  }\n\n  // The lower the score, the better:\n  // To obtain the score, the 'Levenshtein distance' algorithm is used. It obtains\n  // the minimum number of modifications that must be made to a chain so that it\n  // is equal to the other. Solidity limitations:\n  //   1. The maximun length can not be variable. In this scenario -> 200 characters\n  //   2. As we are comparing bytes (not characters), just 32B characters are allowed\n  function obtainScore(string memory _str1, string memory _str2) private pure returns(uint256){\n    uint length1 = bytes(_str1).length;\n    uint length2 = bytes(_str2).length;\n    uint n = max(length1, length2) + 1;\n    uint[200][] memory distance = new uint[200][](n);\n    bytes memory str1 = bytes(_str1);\n    bytes memory str2 = bytes(_str2);\n\n    for(uint i=0; i<=length1; i++){\n      distance[i][0]=i;\n    }\n    for(uint j=0; j<=length2; j++){\n      distance[0][j]=j;\n    }\n    for(uint i=1; i<=length1; i++){\n      for(uint j=1; j<=length2; j++){\n        uint aux = 1;\n        if (str1[i-1] == str2[j-1]){\n          aux = 0;\n        }\n        distance[i][j]= minimum(distance[i-1][j] + 1, distance[i][j-1] + 1, distance[i-1][j-1] + aux);\n      }\n    }\n\n    return (uint256(distance[length1][length2]));\n  }\n\n  function minimum(uint a, uint b, uint c) private pure returns (uint){\n    uint smallest;\n    if (a <= b && a <= c) {\n      smallest = a;\n    } else if (b <= c && b <= a) {\n      smallest = b;\n    } else {\n      smallest = c;\n    }\n\n    return (smallest);\n  }\n\n  function max(uint a, uint b) private pure returns (uint){\n    uint resul;\n\n    if(b > a){\n      resul = b;\n    } else {\n      resul = a;\n    }\n\n    return (resul);\n  }\n\n  function isFirstAttempt(address) private view returns(bool){\n    bool resul = true;\n\n    for(uint i=0; i<contesters.length && resul; i++){\n      if(contesters[i] == msg.sender){\n        resul = false;\n      }\n    }\n\n    return resul;\n  }\n\n}\n",
  "sourcePath": "/home/pedro/TFG/contest/challenge/contracts/TextImage.sol",
  "compiler": {
    "name": "solc",
    "version": "0.5.16+commit.9c3226ce.Emscripten.clang"
  },
  "schemaVersion": "3.3.4",
  "updatedAt": "2022-05-21T17:29:55.803Z",
  "devdoc": {
    "methods": {}
  },
  "userdoc": {
    "methods": {}
  }
}